:020000040800F2
:1000000000040020E1010008B1030008B10300086A
:10001000B1030008B1030008B1030008B1030008F0
:10002000B1030008B1030008B1030008E1030008B0
:10003000B1030008B1030008B1030008C1040008BF
:10004000B1030008B1030008B1030008B1030008C0
:10005000B1030008B1030008B1030008B1030008B0
:10006000B1030008B1030008B1030008A11800089B
:10007000D118000801190008411900088119000869
:10008000C1190008011A0008B1030008B1030008F3
:10009000B1030008B1030008B1030008B103000870
:1000A000B1030008B1030008B1030008B103000860
:1000B000B1030008B1030008B1030008B103000850
:1000C000B10300082120000831210008B103000815
:1000D000B1030008B103000841260008B10300087D
:1000E000B1030008B1030008B1030008B103000820
:1000F000B1030008B1030008B1030008B103000810
:10010000B1030008B1030008B1030008B1030008FF
:10011000B1030008B1030008B1030008B1030008EF
:10012000411A0008811A0008C11A0008011B0008C2
:10013000411B0008B1030008B1030008B103000827
:10014000B1030008B1030008B1030008B1030008BF
:1001500010B582B001F0D4F900F032FA40F6186020
:100160000021C2F2000001F003FB40F6E05043F230
:10017000F071C2F20000C0F6000101F0E9F90024BC
:1001800042F6917340F69060D0214022C0F6000301
:100190000094C2F2000000F0F3FD40F6607042F6F9
:1001A000017300944FF4D8714022C0F60003C2F2EC
:1001B000000000F0E5FD204602B010BDAFF3008066
:1001C000704700BFAFF30080AFF30080AFF3008053
:1001D000FEE700BFAFF30080AFF30080AFF3008015
:1001E00072B6644C84F30988022383F31488BFF346
:1001F0006F8F61486149884218D2CA1C051D531B84
:1002000023F00302034610184FF055318342196062
:10021000C2F380020AD01AB185422B46296005D06C
:100220001D1D5960083383426960F9D15448A042CA
:1002300018D25449041D0A1B22F00305034628184E
:100240004FF0553183421960C5F380020AD01AB1CC
:1002500084422346216005D01D1D59600833834226
:100260006960F9D102F0FCFA4749484881421BD243
:10027000C61C0C1D321B464822F00302161D0568E1
:100280000423B3420D60C2F380020DD022B1456851
:100290000823B342256007D01D581A1D5D508458AD
:1002A0000833B3428C50F7D13A483B49884217D2C1
:1002B000CB1C041D1A1B22F003050346281800213D
:1002C00083421960C5F380020AD01AB184422346E2
:1002D000216005D01D1D5960083383426960F9D142
:1002E000FFF76EFF2D4D2E498D421DD2CC1C2E1DC9
:1002F000A71BB808471C01242A6800EA0408904795
:10030000BC4211D0B8F1000F05D0336802249847E1
:10031000BC42354608D0696888470234A8682E1D5B
:1003200080470835BC42F6D1FFF712FF1D4D1E4A2B
:1003300095421DD2D41C2E1DA71BBB085F1C012497
:10034000296803EA04088847BC4211D0B8F1000FBD
:1003500005D0306802248047BC42354608D06A6820
:1003600090470234AB682E1D98470835BC42F6D141
:10037000FFF72EFF000800200000002000040020EE
:1003800000040020030800200008002000080020CE
:10039000403800080008002010110020500100081B
:1003A000500100085001000850010008AFF3008020
:1003B000FEE700BFAFF30080AFF30080AFF3008033
:1003C00072B6FEE7AFF30080AFF30080AFF30080BA
:1003D00000F086F900F044FC00F09AF900DF00BF5D
:1003E000EFF30983203383F30988002383F3118813
:1003F000704700BFAFF30080AFF30080AFF3008021
:1004000008B54FF440724FF46D43CEF20003C0F2D2
:10041000FA520021996007201021DA6000F0A8F854
:100420000A204FF4007100F0A3F80B208021BDE8F2
:10043000084000F09DB800BFAFF30080AFF300802C
:10044000202383F311884FF46D43CEF200035868E4
:1004500010F400631AD0EFF30983A3F1200282F3B2
:10046000098811494FF080708A6943F8040C92F8AA
:10047000230009689268896858B1914294BF0022AC
:10048000012262B1094A43F8082C704783F31188AE
:100490007047914234BF00220122002AF2D1044861
:1004A00043F8080C704700BF340D0020D10300084A
:1004B000DC030008AFF30080AFF30080AFF30080EF
:1004C00008B500F07DF9202383F3118800F040F98E
:1004D00000F0B6F800F054F9002383F3118800F01F
:1004E0008FF9BDE80840FFF7ABBF00BFAFF3008056
:1004F0002DE9F04FC1F80CD0D0F80CD0BDE8F08F4A
:1005000008B500F005F9002383F311882846A047B9
:1005100000F0C6FC08BD00BFAFF30080AFF3008061
:1005200000F0030370B4DA00FF2505FA02F500F0CD
:100530001F0401FA02F1012202FA04F24FF46143AE
:100540008408CEF20003C03453F82460400926EA40
:1005500005050D4300F1600643F8245043F82620BA
:1005600043F8202070BC7047AFF30080AFF30080E9
:1005700000F0030310B4FF22DC0002FA04F201FAD7
:1005800004F180084FF46D43CEF20003063053F8B7
:10059000204024EA02020A4343F8202010BC70479E
:1005A000024B034A98698261FEE700BF340D0020C8
:1005B000D02F0008AFF30080AFF30080AFF30080CE
:1005C00030B583B0FFF71CFF00F00AFA00F0A0F985
:1005D00000F03EFF00F084FF00F062F940F60000FA
:1005E0004021C2F2000000F04BFB40F20043C2F297
:1005F0000003012540F63454C361C2F2000480F8C0
:100600002050A06100F054F8002383F3118862B6F3
:1006100043F25011A269C0F60001916140F650000A
:10062000009340F2A153C0212A46C0F60003C2F253
:10063000000000F0A5FB03B030BD00BFAFF30080A9
:10064000F8B500F0FDF8164B986990F8232012B128
:10065000511E80F82310446A124D631C4362E868FF
:100660002C68421CAC42EA6018D0A768013FA76022
:10067000A7B92168E6684D60E760296000F080F85E
:10068000002383F311882069B047202383F3118866
:1006900000F05EF82C68A368002BEAD0F8BD00BF1C
:1006A000340D0020240D0020AFF30080AFF3008054
:1006B000054B186810B905490A6822B10448054B72
:1006C0001860FFF77DBE7047100900201C0D002048
:1006D000F02F0008200D0020AFF30080AFF3008062
:1006E000074B10B51868074C08B9216821B1064AB4
:1006F000064B1A60FFF764FE0120206010BD00BFAA
:10070000100900201C0D0020F82F0008200D0020EB
:10071000084B10B51868084C28B92168002902DD7B
:100720000020206010BD054A054B1A60FFF748FE07
:10073000F6E700BF100900201C0D00200030000863
:10074000200D0020AFF30080AFF30080AFF30080F6
:10075000074B10B51868074C002801DD216821B14E
:10076000054A064B1A60FFF72BFE0120206010BDE2
:10077000100900201C0D002008300008200D00206A
:10078000084B10B51868084C002805DD21680029C1
:1007900002DD0020206010BD044A054B1A60FFF7FF
:1007A0000FFEF6E7100900201C0D00201030000895
:1007B000200D0020AFF30080AFF30080AFF3008086
:1007C00010B5202383F31188094C2168002902DB2E
:1007D000084A106828B10849084B1960FFF7F0FD76
:1007E00021684A1C2260002383F3118810BD00BFDA
:1007F000100900201C0D002018300008200D0020DA
:1008000010B5202383F31188094C2168002902DDEB
:10081000084A106828B10849084B1960FFF7D0FD55
:1008200021684A1E2260002383F3118810BD00BF97
:10083000100900201C0D002020300008200D002091
:10084000064B1868002804DB05490A68002A00DD09
:1008500070470448044B1860FFF7B2BD1009002030
:100860001C0D002028300008200D0020AFF3008070
:10087000064B186820B906490A68002A00DD70474F
:100880000448054B1860FFF79BBD00BF100900200E
:100890001C0D002030300008200D0020AFF3008038
:1008A00040F61413C2F200031A46402142F8081B16
:1008B0005A607047AFF30080AFF30080AFF3008061
:1008C0000C4910B40C4ACC680C49536889691C6007
:1008D0005960846A03F110019C6090F8204002F591
:1008E000816081421C732ABF02F10803516053608A
:1008F00010BC7047240D002014090020340D002086
:1009000040F62053C2F200031860FFF759BD00BF44
:1009100040F62453C2F200034FF0FF3200205B6028
:100920001B609A60D8607047AFF30080AFF300801F
:10093000F8B505460C4616461F46FFF781FFCDB1B8
:10094000C6B1BCB10D492F610B68EE609A68944244
:1009500004D91B68A41A9A68A242FAD358688B4239
:100960002B60686005605D60AC6002D099680C1B0C
:100970009C60F8BD0248FFF7C3FFE3E7240D0020A9
:1009800040300008AFF30080AFF30080AFF3008089
:1009900010B50446FFF754FF84B1E36893B12068B3
:1009A0000A4A904203D08168A368CA1882606268CC
:1009B000002110602068E160426010BD0448FFF72C
:1009C0009FFFEAE70348FFF79BFFE8E7240D0020BD
:1009D0005030000860300008AFF30080AFF30080B3
:1009E00040F63453C2F2000300225B601B609A6041
:1009F0005B611B61704700BFAFF30080AFF3008005
:100A000010B50446FFF71CFF94F820308BB10E2B75
:100A10000FD00022A168094884F82020006883686C
:100A20008B42FBD24168206061600C6044602046CC
:100A300010BD0348FFF764FFEBE700BF340D002053
:100A400080300008AFF30080AFF30080AFF3008088
:100A500010B52023044683F31188FFF779FE94F83C
:100A600020300D2B11D8DFE803F016101007100B03
:100A7000101010101010100BA06A8268511C8160B9
:100A800094E80C001A60206843604FF0FF33A362C3
:100A90002046FFF7B5FFFFF773FE002383F31188AD
:100AA00010BD00BFAFF30080AFF30080AFF3008054
:100AB00070B5114C0646FFF7DBFE2368A5691A687E
:100AC00014210120546085F8206085F8231083F8F4
:100AD000200028462260A361FFF7F2FEEB69ADF12A
:100AE0002402934202D90548FFF70AFFA06929466C
:100AF000BDE87040FFF7FCBC340D002094300008C6
:100B000070B50C4686B00646FFF7B2FE631C12D0E5
:100B10000B4D2146AB690B4A01A8FFF709FF304690
:100B2000FFF7C6FF049B13B101A8FFF731FFA869C7
:100B3000806A06B070BD3046FFF7BAFF004DF6E799
:100B4000340D0020510A0008AFF30080AFF300809D
:100B500070B5144D04460E46FFF78AFEA869A268D8
:100B60008368A6629A4213D9FFF74AFF012106461D
:100B700084F82010AC61FFF7A3FEF069ADF1240208
:100B800090420AD820463146BDE87040FFF7B0BC1D
:100B90002046BDE87040FFF733BF0348FFF7B0FEC3
:100BA000F0E700BF340D002094300008AFF3008060
:100BB00038B5104C01212368A5691A6814205460C7
:100BC00083F8201085F8230028462260A361FFF7F0
:100BD00017FF2846FFF774FEEB69ADF1240293423C
:100BE00002D90548FFF78CFEA0692946BDE83840C8
:100BF000FFF77EBC340D002094300008AFF3008076
:100C000070B5144E01213368B5691A680020AC68CC
:100C1000566083F820103260B36185F8200000E050
:100C20001B689A68A242FBD859682B606960284605
:100C30005D600D60FFF744FEEB69ADF12400834277
:100C400002D90548FFF75CFEB0692946BDE870404F
:100C5000FFF74EBC340D002094300008AFF3008045
:100C6000044B986990F8231009B1FFF7C9BFFFF74B
:100C70009FBF00BF340D0020AFF30080AFF30080B2
:100C80002DE9F00140F63454C2F2000465690022F7
:100C9000046100F13006816000F12C0C00F14C077A
:100CA00045614FF00208606141641424012180F81D
:100CB000208080F8212080F823400264C2634262D1
:100CC00080F8221082612861C0F82CC04663066358
:100CD000C761BDE8F0017047AFF30080AFF300805B
:100CE0002DE9F04704460D4690469946FFF7A8FDCA
:100CF0000CB1AF2D35D81E48FFF702FE1D4EA5F1F1
:100D00002403E7187169E76044F80390089B002505
:100D10007B60194B04F130023B62022384F82030DF
:100D2000142304F12C0A04F14C0C84F82330012321
:100D30002661C4F8088061612046746184F82150FE
:100D4000C4F844802564E563656284F82230A561B7
:100D50000C61C4F82CA062632263C4F81CC0BDE817
:100D6000F087B8F17F0FC6D8B9F1000FC6D1C2E73E
:100D7000B0300008340D002001050008AFF30080FA
:100D80002DE9F04F9B4683B080468946924600F19C
:100D90004C0300F1010400F14D07FF26254604F83D
:100DA000016C05F8016B6C1CBC42F7D108EB09071C
:100DB000BB4215D218465526DA4300F8016BB91824
:100DC000B84201F001030BD01BB100F8016BB8422F
:100DD00006D0054605F8016B4670681CB842F8D18C
:100DE000202383F31188FFF77BFC0C9C5B46524663
:100DF000494600944046FFF773FF00210446FFF781
:100E0000A7FEFFF785FC002383F31188204603B07B
:100E1000BDE8F08FAFF30080AFF30080AFF3008048
:100E200010B5044610B90948FFF76AFD202383F383
:100E30001188FFF755FC21460620FFF761FEFFF7FA
:100E400067FC002383F3118810BD00BFF030000859
:100E500038B5104B9C69254655F82C1FA062A94255
:100E600007D00A680846E262FFF7CAFDE16AA942B4
:100E7000F7D194F82100830704D1636922691A61CC
:100E800021694B610E20FFF713FE0348BDE838408F
:100E9000FFF736BD340D002000310008AFF30080AD
:100EA00010B52023044683F31188FFF719FC204670
:100EB000BDE81040FFF7CCBFAFF30080AFF3008078
:100EC00010B5044620B1002364602460A36010BD07
:100ED0000148FFF715FDF6E770310008AFF3008019
:100EE000F8B53B4B05469C69FFF7C2FC002D6BD063
:100EF000A868002836D0A2688168914208D290F88C
:100F000020308260042B45D0052B30D0002B1ED022
:100F100028460068854203D08168A2689142F8D2D1
:100F20004368206063601C604460A5620420FFF792
:100F3000BFFDA868A04202D02648FFF7E1FC216C63
:100F4000A94213D02448BDE8F840FFF7D9BC90E887
:100F50000C001A600268012180F820105360FFF72E
:100F60004FFDD5E7206CAC60E8602564F8BD4168B2
:100F70000768866A0F600768334679601B689E427F
:100F800002D099689142F9D25A68036042601060B9
:100F90005860BDE741680768866A0F600768334696
:100FA00079601B689E420DD099689142F9D25A68C7
:100FB0000360426010605860B068A2688368934222
:100FC0009DD3A5E73346F2E70448FFF799FC8FE786
:100FD000340D002090310008A43100088031000851
:100FE00010B52023044683F31188FFF779FB2046D0
:100FF000FFF776FFFFF78CFB002383F3118810BD0A
:101000001E4A70B52023956983F31188FFF768FBAA
:101010002C6C002C2DD0A368AB4203D01848FFF7EE
:101020006FFC2C6C2668E368A6422B641ED0696CAA
:101030004BB11A689A4203D09068814238BF01468A
:10104000DB68002BF5D13368326CA9603046236031
:1010500000215C60A660E2603464FFF779FDFFF771
:1010600057FB002383F31188204670BD0020A06049
:10107000F5E70448FFF744FC2C6CCCE7340D002066
:10108000E0310008CC310008AFF30080AFF30080FE
:1010900038B504460D46FFF7D3FBC4B1E26B94F8B4
:1010A000203045EA0201082BE1630CD0092B00D067
:1010B00038BDA06A01408842FAD12046FFF7A0FC63
:1010C0000023836238BDA26A1142F6D138BD0248BE
:1010D000FFF716FCE2E700BF4C320008AFF30080D8
:1010E00070B505460E46FFF7ABFB6DB12C68A54207
:1010F00009D0E36860683343E360A168FFF7C8FF85
:101100002468A542F5D170BD0148FFF7F9FBEDE772
:1011100070320008AFF30080AFF30080AFF30080BF
:1011200010B4024659B1084B0D209B699A6254686D
:1011300083E814005360236010BCFFF7E1BC4FF05C
:10114000FF3010BC704700BF340D0020AFF30080AB
:1011500010B4C361019B8A18002440600060846061
:1011600041618161C1600261036210BC704700BFD0
:1011700038B504460D46FFF763FB6369A269A068B2
:1011800093421AD0411CA16003F8015B226963619C
:1011900093420BD22068A0420DD0016821604C60C0
:1011A000FFF72EFC00228262104638BD2068E368FB
:1011B000A0426361F1D1002038BD0028E2D06FF079
:1011C000030038BDAFF30080AFF30080AFF30080C1
:1011D000F8B504460E46202383F31188FFF780FA02
:1011E000E3690BB120469847A5682046314655B9BA
:1011F000FFF796FF071EF7DAFFF78AFA2B4683F30D
:1012000011883846F8BDA069013DA56010F8017B42
:101210002269A061904224BFE068A061FFF778FADC
:10122000002383F311883846F8BD00BFAFF3008078
:101230002DE9F0470446154688461E46C769002A30
:101240003AD0202383F31188FFF74AFA08F1010A04
:101250004FF00009A8440FB12046B847A5682046C2
:1012600031465DB9FFF75CFF0028F7D0FFF750FA71
:101270002B4683F311884846BDE8F087A369013DFA
:10128000A56013F8012B0AF8012C2069A3618342A1
:1012900024BFE368A361FFF73BFA002383F31188BF
:1012A000C24509F10109E6D0202383F31188FFF735
:1012B00017FA0AF1010ACEE70148FFF721FBC0E760
:1012C000B0320008AFF30080AFF30080AFF30080CE
:1012D00010B4C361019B8C18406000608260416162
:1012E0008161C1600461036210BC7047AFF300808C
:1012F0002DE9F041202304468846164683F31188E1
:10130000FFF7EEF9A568204631465DB9FFF708FF03
:10131000071EF7DAFFF7FCF92B4683F311883846EE
:10132000BDE8F0816369013DA56003F8018B226986
:101330006361934228BFE368E16928BF636109B133
:1013400020468847FFF7E4F9002383F311881F46FE
:101350003846BDE8F08100BFAFF30080AFF30080F6
:1013600038B50446FFF76CFAA3696269A0689A422F
:1013700016D0411CA16013F8015B2269A36193425E
:101380000BD22068A04206D0016821604C60FFF7B4
:1013900037FB00228262284638BDE368A361F0E78C
:1013A0000028E6D06FF0020038BD00BFAFF3008028
:1013B0002DE9F0470446164688469A46D0F81C9018
:1013C000002A39D0202383F31188FFF789F90027F9
:1013D000A56820466B1E0DB3A360656918F8011B54
:1013E00005F8011B22696561954224BFE2686261CC
:1013F000B9F1000F00D0C847FFF78AF9002383F343
:1014000011880137013E14D0202383F31188FFF7A0
:1014100067F9A56820466B1E002DDDD12046514698
:10142000FFF77EFE0028D3D0FFF772F92B4683F337
:1014300011883846BDE8F0870148FFF761FAC1E737
:10144000C4320008AFF30080AFF30080AFF3008038
:1014500040F20001084840F6545240F65053C2F2A0
:101460000101C2F2000220F00700C2F2000321F0E5
:10147000070110601960704717110020AFF300805A
:1014800010B50446FFF7DCF9074A084913680968F4
:10149000E01D20F00700C91A88429ABF1818106092
:1014A0000023184610BD00BF540D0020500D002031
:1014B00010B52023044683F31188FFF711F9204665
:1014C000FFF7DEFF0446FFF723F9002383F31188BB
:1014D000204610BDAFF30080AFF30080AFF3008073
:1014E00040F65853C2F2000341F2B1410022C0F667
:1014F000000103F1100019609A60DA60FFF7E0BCA8
:1015000008B500F00DFC00F0A3F943F27060C0F6DE
:10151000000000F0A5FC00F00BF800F0F9F8BDE8C1
:10152000084001F0A5B900BFAFF30080AFF3008021
:1015300000F07EBEAFF30080AFF30080AFF3008019
:1015400001230021037041600C30FFF7B9BC00BFDC
:1015500038B504460D46D0B1C9B123785A1E012AC8
:1015600004D9052B02D00C48FFF7CAF9202383F3D6
:101570001188FFF7B5F82046656000F071FE022083
:101580002070FFF7C5F8002383F3118838BD0348A6
:10159000FFF7B6F9E1E700BFF0320008E0320008DB
:1015A00010B5044608B1A06810BD0248FFF7A8F9BD
:1015B000A06810BD1C330008AFF30080AFF30080BB
:1015C0002DE9F04685B004460F46924699460D9D9A
:1015D0000E9E08B1002928D11B48FFF791F9207809
:1015E000022802D01948FFF78BF9202383F31188D2
:1015F000FFF776F80C9B00210322A16022702046A1
:101600008DE8680039464B46524600F079FF431C8E
:10161000054615D002232370FFF77AF8002383F3E1
:101620001188284605B0BDE8F086002BD4D0002AEA
:10163000D2D015B10C9B002BCED0002ECFD1CBE752
:1016400005202070E8E700BF303300085033000861
:1016500010B5044628B104F10C00BDE81040FFF7B6
:10166000BFBC0248FFF74CF9F5E700BFA433000800
:1016700008B518B1BDE80840FFF7C2BC0148FFF744
:101680003FF9F7E7B8330008AFF30080AFF300800D
:101690000C30FFF7CDBD00BFAFF30080AFF300808B
:1016A0000C304FF0FF33FFF7C3BD00BFAFF3008036
:1016B0003030FFF77DBE00BFAFF30080AFF3008096
:1016C00030304FF0FF33FFF773BE00BFAFF3008041
:1016D0000C30FFF77DBD00BFAFF30080AFF300809B
:1016E0000C304FF0FF31FFF773BD00BFAFF3008048
:1016F0003030FFF7FDBD00BFAFF30080AFF30080D7
:1017000030304FF0FF32FFF7F3BD00BFAFF3008082
:1017100001F04EB8AFF30080AFF30080AFF300806C
:1017200070B50B4643F230410546C0F60001044651
:1017300045F8041B82B065600125164604F154018A
:101740001022257200F10C000094FFF701FD0094B7
:1017500004F1300004F1640110223346FFF7B8FDB4
:1017600002B070BDAFF30080AFF30080AFF3008034
:1017700038B504460D46B8B1202383F31188FEF72F
:10178000AFFF237A581E012802D90948FFF7B8F89D
:101790002046294601F024F802212172FEF7B8FF05
:1017A000002383F3118838BD0248FFF7A9F8E3E767
:1017B000DC330008D0330008AFF30080AFF30080C3
:1017C00038B504460D46FFF73BF8D4B163693BB129
:1017D00004F10C002946FFF7CBFC00280BDB38BDD9
:1017E000201D0421FFF77CFC04F10C002946FFF7C3
:1017F000BFFC0028F3DA201D8021BDE83840FFF748
:101800006FBC0248FFF77CF8E0E700BF083400082F
:101810004FF48053CEF2000359688160704700BFD7
:101820004FF48053CEF20003084982685B68096870
:101830009B1AC268591A9142816004D8036999427F
:1018400038BF01617047C160704700BF780D00204C
:1018500010B540F6785486B00022C2F200044FF072
:10186000FF304FF48053226004920590CEF20003C3
:10187000596841F6110241F6210301A8C0F60002A1
:10188000C0F60003019202930391FFF7C9FF03988A
:10189000206006B010BD00BFAFF30080AFF3008042
:1018A00010B5FEF78DFF00230848C4F20203196843
:1018B00002680F2401F00F015C600AB14068904794
:1018C000FEF79EFFBDE81040FEF7BABD7C0D00207C
:1018D00010B5FEF775FF00230848C4F2020319682B
:1018E0008268F024C1F303115C600AB1C0689047BC
:1018F000FEF786FFBDE81040FEF7A2BD7C0D00207C
:1019000010B5FEF75DFF00230948C4F20203196811
:1019100002694FF47064C1F303215C600AB140694D
:101920009047FEF76DFFBDE81040FEF789BD00BF90
:101930007C0D0020AFF30080AFF30080AFF3008098
:1019400010B5FEF73DFF00230948C4F202031968F1
:1019500082694FF47044C1F303315C600AB1C0691D
:101960009047FEF74DFFBDE81040FEF769BD00BF90
:101970007C0D0020AFF30080AFF30080AFF3008058
:1019800010B5FEF71DFF00230948C4F202031968D1
:10199000026A4FF47024C1F303415C600AB1406AEB
:1019A0009047FEF72DFFBDE81040FEF749BD00BF90
:1019B0007C0D0020AFF30080AFF30080AFF3008018
:1019C00010B5FEF7FDFE00230948C4F202031968B2
:1019D000826A4FF47004C1F303515C600AB1C06ABB
:1019E0009047FEF70DFFBDE81040FEF729BD00BF90
:1019F0007C0D0020AFF30080AFF30080AFF30080D8
:101A000010B5FEF7DDFE00230948C4F20203196891
:101A1000026B4FF07064C1F303615C600AB1406B0C
:101A20009047FEF7EDFEBDE81040FEF709BD00BF90
:101A30007C0D0020AFF30080AFF30080AFF3008097
:101A400010B5FEF7BDFE4FF480630948C4F20203EF
:101A50001968826B0F2401F00F015C600AB1C06B42
:101A60009047FEF7CDFEBDE81040FEF7E9BC00BF91
:101A70007C0D0020AFF30080AFF30080AFF3008057
:101A800010B5FEF79DFE4FF480630948C4F20203CF
:101A90001968026CF024C1F303115C600AB1406C58
:101AA0009047FEF7ADFEBDE81040FEF7C9BC00BF91
:101AB0007C0D0020AFF30080AFF30080AFF3008017
:101AC00010B5FEF77DFE4FF480630948C4F20203AF
:101AD0001968826C4FF47064C1F303215C600AB131
:101AE000C06C9047FEF78CFEBDE81040FEF7A8BC26
:101AF0007C0D0020AFF30080AFF30080AFF30080D7
:101B000010B5FEF75DFE4FF480630948C4F202038E
:101B10001968026D4FF47044C1F303315C600AB17F
:101B2000406D9047FEF76CFEBDE81040FEF788BCA4
:101B30007C0D0020AFF30080AFF30080AFF3008096
:101B400010B5FEF73DFE4FF480630948C4F202036E
:101B50001968826D4FF47024C1F303415C600AB1CF
:101B6000C06D9047FEF74CFEBDE81040FEF768BC24
:101B70007C0D0020AFF30080AFF30080AFF3008056
:101B80002DE9F00F40F6DC5086B0C2F20000029062
:101B90004FF48660C4F20200019040F24440C4F267
:101BA000020003904FF48B60C4F2020004904FF4E3
:101BB0008060C4F202000590002102980A4602608B
:101BC0004FF0080B019840F67C534FF01C0A4FF081
:101BD00030094FF044084FF0580C6C2780264FF422
:101BE000816540F21C44C2F20003C4F2020BC4F24D
:101BF000020AC4F20209C4F20208C4F2020CC4F2DE
:101C00000207C4F20206C4F20205C4F20204CBF8D1
:101C100000201A60CAF800209A60C9F800201A61F2
:101C2000C8F800209A61CCF800201A623A609A62E3
:101C300032601A632A609A6322601A640260039811
:101C40009A64026004981A6502609A65059B4FF0D9
:101C5000FF32C4F202014A605A6006B0BDE8F00FDC
:101C6000704700BFAFF30080AFF30080AFF3008098
:101C7000F0B5044685B000283ED0657A012000FA10
:101C800005FC224E37681CEA070F31D120484CEA88
:101C9000070700EBC50CCCF804307B0640F8352074
:101CA000376007D04FF48053C4F202035D6945F0FA
:101CB00001065E6117F4786F07D04FF48057C4F2C5
:101CC0000207786940F002037B61236860681D6841
:101CD0000F2725F00F061E60267A002507FA06F664
:101CE00006601D6032B1A07A0901FEF719FC284692
:101CF00005B0F0BD1046FBE7064803910292019340
:101D0000FEF7FEFD019B029A0399B6E7DC0D002069
:101D10007C0D002050340008AFF30080AFF300804A
:101D20004FF4805330B4C4F2020300214FF0FF346B
:101D300018694EF210021C611961DD68CEF20002D2
:101D4000DC6048F69F44D9604EF6F05054609160D4
:101D500007211160CEF20000C2684FF4805142F0BA
:101D60008072C260CEF2000108684FF4E04240F099
:101D700001000860D969C4F2000241F08050D861C6
:101D8000D96941F00060D861136843F48071116033
:101D900030BCFFF7F5BE00BFAFF30080AFF30080AB
:101DA0004FF48053C4F202031A68194642F001004E
:101DB00018600A684FF480539007C4F20203F8D504
:101DC000002159601868194600F0F9021A60486845
:101DD0004FF4805310F00C0FC4F20203F7D11A68CD
:101DE000194642F4803018600A684FF48053920319
:101DF000C4F20203F8D548F24461D9621868194662
:101E000040F080621A6008684FF480530001C4F209
:101E10000203F8D55A68194642F4E01058601A686F
:101E200042F0807018600A684FF480539201C4F247
:101E30000203F8D54FF4C8414FF40050C0F21C0122
:101E4000C4F202001122596002605968184641F03C
:101E500002025A60436803F00C010829FAD1704766
:101E60004FF48053C4F202039A6910B442F07D012A
:101E7000996104684FF40062C4F20102D460816881
:101E80004FF4406351604468C4F201031460C268B7
:101E90004FF48051DA604469C4F201015C60046966
:101EA0004FF4A0521C608369C4F20102CB60046A43
:101EB0004FF4C0534C60C469C4F201030C60416A22
:101EC000D160C16A5160816A1160026BDA60816B16
:101ED0005960406B186010BC704700BFAFF30080C2
:101EE000026B436B30B4002114684FF400451D8031
:101EF00019809980998223680F2123F00F032360B2
:101F0000147AC36A01FA04F450681A680460146809
:101F1000586824F00F0414601B7A01FA03F1016081
:101F200030BC7047AFF30080AFF30080AFF30080A8
:101F300038B50446202383F31188FEF709FCE569D0
:101F400055B12046FFF7CCFF00234FF0FF31E3618E
:101F50002846A962FEF754FDFEF712FC002383F326
:101F6000118838BDAFF30080AFF30080AFF300807D
:101F700038B50B070546446B01D5FEF721FA2B6BEC
:101F80001A685968106820F00F0010601B7A0F2241
:101F900002FA03F00860A1888BB243F40072A280B9
:101FA00038BD00BFAFF30080AFF30080AFF3008017
:101FB0000A0770B50546446B2FD4EA6A20231168DE
:101FC00050680E6826F00F060E60127A0F2101FA93
:101FD00002F20260A08820F480510A04100CA08054
:101FE000218821F480621004010C2180228890B2A3
:101FF00040F40071218083F31188FEF7A9FBEB699F
:102000002BB10022EA6118469A62FEF7F9FCFEF74E
:10201000B7FB002383F3118870BDFEF7D1F9CCE73D
:10202000F8B53F4DFEF7CCFB6C6B0223228BA68AE2
:10203000C0F20303B6B246EA024020F07F41994263
:1020400037D010D80123C0F20303994201D12B8C61
:10205000238216F00A0F18BF238BFEF7D1FBBDE8D1
:10206000F840FEF7EDB98223C0F20703994213D07E
:102070008423C0F207039942EBD1EF6A3A685768AC
:10208000002F31D02388298C98B241F0010240F40E
:10209000A0632A842380E0E7A188286B21F40072E2
:1020A00013040168180CA0800A6842F001030B6059
:1020B000CFE7A388E96A23F4007003040A68190CC7
:1020C000A180106840F001031360A18888B240F439
:1020D0008053A3805368012BBBD8228822F48061EF
:1020E0000804030C2380B4E7A088202320F40071A7
:1020F0000A04100CA08021888AB242F4007020806B
:1021000083F31188FEF724FBE86918B18762EF6159
:10211000FEF776FCFEF734FB002383F3118898E783
:10212000E00D0020AFF30080AFF30080AFF300803C
:10213000F8B53D4C636B9D8AFEF742FBADB2216B57
:1021400005F45F40626B80F47F470E6887F0FF0301
:10215000938237680F2027F00F0333600E7AE36A0B
:1021600000FA06F74E68196837600F685E6827F056
:102170000F070F60197A05F4807300FA01F09BB223
:10218000306003B1012305F4007081B2A36011B186
:1021900043F00203A36005F4806081B269B19088C6
:1021A00043F0040320F400710804010C91801088AE
:1021B00081B241F400701080A36005F4006291B216
:1021C00011B143F00803A36005F4804082B212B15C
:1021D00043F02003A36005F4805188B210B143F0AE
:1021E0001003A360290406D443B9FEF709FBBDE838
:1021F000F840FEF725B943F04002A260202383F3A4
:102200001188FEF7A5FAE06938B16FF00101064BBD
:1022100000228162DA61FEF7F3FBFEF7B1FA0023D8
:1022200083F31188E1E700BFE00D0020AFF30080E9
:1022300010B540F6E054C2F200042046FFF780F9E2
:10224000064B4FF4B042C4F20002A3F10C0100208F
:10225000E0616263E362216310BD00BFD034000817
:1022600003789A222DE9F041044682628A20012BEC
:102270006062656B00F086802E466268236BE06AC0
:1022800019685768006805F11003836092F80880A8
:1022900000208B604FF400424FF41061002F2A8021
:1022A0002880A98056DDC0F23D018F4252DCB38800
:1022B00048F2A06223F03F0001040B0CB380B08809
:1022C000C0F2010281B241F012039742B38045DCB3
:1022D000B8F1010F02D07C48FEF712FB4AF68003EA
:1022E0007F00C0F2121393FBF7F207FB02F04AF6ED
:1022F0008001C0F212110B1A002B40F08D804AF6BB
:102300008002C0F2121292FBF7F7B8B203287BD911
:10231000390513230F0DB0F5805F338402D36B486A
:10232000FEF7EEFA6268616B1078B7830B880228BB
:102330009BB263D003285ED0012803D123F00A02A8
:1023400013041B0C0B8029888AB242F001032B80F6
:10235000BDE8F0815E48FEF7D3FAA8E74FF4D45207
:10236000C0F2060297420BDCA8F10200012857D9FF
:102370005848FEF7C5FA48F6FF7706213184D1E7C1
:102380000027CFE7544EB4427FF476AF4FF480512C
:10239000C4F202010F69002247F480030B61E06A76
:1023A00023460A610A214D4AFFF762FC002840F0EB
:1023B0008380306B0A214A4A474BFFF759FC0028BB
:1023C00076D14FF48057C4F20207F969212041F415
:1023D0008003FB61A021FEF7A3F82220A021FEF7D5
:1023E0009FF8706AB76A40F4805247F48051726275
:1023F000B162766B41E743F00A03A3E74FF6F7704B
:10240000184040F002039DE73648FEF779FA3A0596
:102410001320170D308485E73348FEF771FA6EE715
:10242000B8F1020F1FD14AF6800107EB4707C0F24F
:10243000121191FBF7F307FB03F24AF68000C0F29A
:102440001210811A59B94AF68003C0F2121393FB95
:10245000F7F76FEA47426FEA524087B28DE72348A9
:10246000FEF74EFAEFE7B8F1030F29D107EB870724
:102470004AF6800107EB8707C0F2121191FBF7F3D0
:1024800007FB03F24AF68000C0F21210811A59B914
:102490004AF68003C0F2121393FBF7F76FEA874204
:1024A0006FEA924087B268E71148FEF729FAEFE732
:1024B0001048FEF725FA84E70F48FEF721FA78E77F
:1024C00048F6FF7759E700BF70350008003600086E
:1024D00058350008B8350008E00D0020B11F00088D
:1024E000711F0008A035000888350008D0350008A5
:1024F000E83500084435000830350008AFF30080A7
:102500002DE9F04E86B00F9F06468B4692469946BF
:10251000109D446B27B1012F63D90E98002860D01D
:102520006B1C05D001A82946384A3346FEF700FA4D
:10253000FEF7EEF8002383F31188316BF26A096825
:102540001268B360B36A4FEA4B0BA6F820B0706A0A
:102550000B60C1F80CA0C1F804900E991060D16016
:10256000576004E0FEF7D4F8002383F31188228B30
:10257000202302F0020081B221B9228802F4007007
:1025800081B269B183F31188FEF7AAF8681CE9D01B
:10259000049A002AE6D14FF0FF3006B0BDE8F08E75
:1025A00083F31188FEF79CF8691C1ED0049900295A
:1025B000F1D0A388164D9AB242F40070A080218811
:1025C000AB698AB242F4807020800220F361FEF78A
:1025D0006FFA049911B101A8FEF7DAF9AB69986AAC
:1025E000DBE70C48FEF78CF99AE7A388084D9AB20E
:1025F00042F40070A0802188AB698AB242F48070F6
:1026000020800220F361FEF753FAE7E7311F00084C
:10261000340D00203C360008AFF30080AFF300809B
:102620004FF48843C4F200039A8990B240F08001CD
:1026300099817047AFF30080AFF30080AFF3008063
:102640002DE9F041FEF7BCF8544B5D6FAE892C8844
:10265000A988A4B22207B6B28FB259D104F480720D
:1026600093B2002B3ED104F0200188B200282AD179
:1026700006F0800293B223B104F0800188B20028F2
:102680006FD104F04004A4B2BCB1202383F31188BD
:10269000FEF75EF842481021FEF722FDFEF770F8C3
:1026A000002383F311884FF6BF703040A8812A8839
:1026B00022F040031904080C2880FEF7A1F8BDE8B9
:1026C000F041FDF7BDBE202383F31188FEF740F8EB
:1026D0003248F9B2FFF774F8FEF752F8002383F39B
:1026E0001188C5E7202383F31188FEF731F82C48C1
:1026F0004FF40071FEF7F4FCFEF742F8002383F379
:102700001188298821F480700204130C2B80AAE719
:1027100004F008081FFA88F004F00202002814BF31
:102720004FF080084FF00008E30793B248BF48F02D
:1027300020080BB148F0400804F0040188B208B149
:1027400048F48078202383F31188FEF701F81448B9
:102750004146FEF7C5FCFEF713F8002383F311880A
:102760007CE7202383F31188FDF7F2FF0D48FEF785
:10277000F7FD002807DB82B2AA80FEF701F80023EC
:1027800083F311887DE708210548FEF7A9FC26F0B0
:10279000C00343F04001A981EFE700BF180E0020FD
:1027A0001C0E0020480E0020AFF30080AFF3008025
:1027B00010B540F61864C2F2000442F221622046CD
:1027C0000021C0F60002FEF7ABFF4FF48843C4F2CD
:1027D0000003636710BD00BFAFF30080AFF300805C
:1027E00038B5037A1B4C0546002918BF0C46012B4F
:1027F0001FD020684AF68001C0F212116B6FB1FB46
:10280000F0F290B21881A288E088218942F4045243
:1028100040F0400080B241F0010142F02C021882E9
:1028200092B289B2002099829A8118801A889B8876
:1028300038BD09488542DCD14FF48051C4F2020111
:10284000CA69262042F40033CB61C021FDF768FE3F
:10285000CFE700BF60360008180E0020AFF30080FD
:10286000FFF79EBAAFF30080AFF30080AFF30080B4
:10287000704700BFAFF30080AFF30080AFF300807C
:10288000F0B400F10B0C074600F10A050C46B1FB51
:10289000F2F602FB161101F13003392BC8BF01F12A
:1028A0003703DBB2B4FBF2F42846314605F80139B0
:1028B000002CECD1C0EB0C020146B818FA43821888
:1028C000D2070AD507F8013B11F8013F05E011F8DE
:1028D000013F7B7011F8013F571C3A4602F8013B5B
:1028E0008242F4D1F0BC7047AFF30080AFF30080B8
:1028F0000EB42DE9F04F86B00FAA0DF10D0352F87A
:10290000044B0DF10C0ACAEB030C009383460292B0
:10291000CDF804C0254615F8011B61B125290FD05B
:10292000DBF800405846A3682C462546984715F822
:10293000011B0029F2D106B0BDE8F04F03B070478B
:1029400063782D2B00F0828100272E2B00F07A81F6
:10295000302B00F0778120262C460299002506E0D6
:102960000A78043105EB8505237802EB4505A3F1D0
:102970003000C2B20134092AF4D92A2BF0D0002049
:102980002E2B029149D06C2B55D04C2B53D0A3F158
:10299000410119298CBF00210121A3F14402342AED
:1029A00000F24A81DFE812F039014801480148018C
:1029B00048013901480148014801480148013701EF
:1029C000480148014801480148012F0148014801D8
:1029D00022014801480148014801480148014801D5
:1029E000480148014801E600390148014801480111
:1029F00048013901480148014801480148013701AF
:102A00004801480148014F0048012F014801480191
:102A100022010A78043102EB480014F8013B00EB74
:102A20008008A3F13002D2B2092AF4D92A2BF0D0BF
:102A30006C2B0291A9D12178002900F00B810B4663
:102A400001340121A9E7029E43F2B0683368C0F661
:102A50000008002B18BF9846311D98F8006047F613
:102A6000FF720291002808BF1046002E00F00F816F
:102A700098F80130411E08EB000908F1010201F04D
:102A80000100B3B19145134600F0FD8060B1567866
:102A9000013276B19145134606D1F4E05678013201
:102AA0003EB1994500F0EF8058785A1C531C00281D
:102AB000F4D1C8EB0209C9EB0505202625EAE57526
:102AC000002F67D0B9F1000F2ADD4746DBF8000080
:102AD000C1446FEA080E17F8011B09EB0E0C83685E
:102AE00058460CF0010898474F4519D0B8F1000F2F
:102AF00004D0DBF8002017F8011B0CE0DBF8000025
:102B0000B84618F8011B826858469047DBF8002049
:102B1000797808F101079368584698474F45EDD1F9
:102B2000002D3FF4F7AEDBF800706B1EBA681D464F
:102B30005846314603F001079047002D3FF4EAAEB6
:102B400047B1DBF8001058468B6831469847013D85
:102B50003FF4E0AEDBF8000031468268584690470B
:102B6000DBF80010013D8B68584631469847013D1F
:102B7000F0D1CFE60298DDF804900268011D0291C1
:102B80008DF80C202026D046C9EB050525EAE57511
:102B9000002F97D16D42002D94D098F800102D2968
:102BA00065D0DBF80010EA438B685846314602F0E6
:102BB00001079847013585D047B1DBF8001058462A
:102BC0008A683146904701353FF47CAFDBF800005E
:102BD0003146836858469847DBF8001001358A680B
:102BE0005846314690470135F0D16BE71022029BE1
:102BF00069B1191D029119685046FFF741FED04690
:102C0000CAEB0009C0E70A22029B0029F1D1181D76
:102C100019680290F0E70822E9E7029B1A1DD9B96A
:102C20001968029200291BDB50460A22FFF728FE92
:102C3000D046CAEB0009A7E78DF80C30DDF8049008
:102C4000D046A1E76B783026013585E6A51CA37830
:102C500001277AE60121A0E6196802920029E3DA49
:102C60002D208DF80C0049420DF10D00DDE7302ECE
:102C700097D1DBF800705846BB68984708F1010807
:102C800009F1FF398DE7C8EB090920267CE7B14639
:102C9000202679E7AFF30080AFF30080AFF3008028
:102CA00010B5304904463048FFF722FE2046FEF7B3
:102CB00077FC01383F2821D8DFE800F04F4A204553
:102CC00020202040202020202020203B20202020C9
:102CD00020202020202020202020203620202020DE
:102CE00020202020202020202020202020202020E4
:102CF0002020202020202020202020311A481B497D
:102D0000FFF7F6FD1A491848FFF7F2FD4FF47A7005
:102D1000FEF786F814481749FFF7EAFDFEE7124868
:102D20001549FFF7E5FDEDE70F481449FFF7E0FD12
:102D3000E8E70D481249FFF7DBFDE3E70A481149D0
:102D4000FFF7D6FDDEE708480F49FFF7D1FDD9E7C9
:102D500005480E49FFF7CCFDD4E703480C49FFF7BF
:102D6000C7FDCFE7C0360008180E00206C370008FA
:102D700074370008A03700085C370008483700089F
:102D80002C3700081837000800370008EC36000818
:102D9000E0360008AFF30080AFF30080AFF30080AF
:102DA00070B5202386B00C460646FF211C488DF8DE
:102DB00010308DF81110FEF74BFC0020042200901B
:102DC000019002921648214604AA0223FEF7F8FB5E
:102DD00005461348FEF74CFCEDB92E234021104860
:102DE0008DF810308DF81110FEF732FC002004220F
:102DF0000090019002922146094804AA0223FEF79E
:102E0000DFFB04460648FEF733FC14B13046FFF7FB
:102E100047FF06B070BD3046FFF742FFDDE700BF59
:102E2000E00D0020AFF30080AFF30080AFF300802F
:102E30002DE9F04188B008AC1E462823054604F869
:102E4000083D88461746FEF703FC04A80621042225
:102E50000090019102922846224641460123FEF746
:102E6000AFFB04462846FEF703FC14B12846FFF7E3
:102E700017FF9DF815209DF814009DF810509DF83F
:102E800011109DF812409DF8133042EA00200E9A6E
:102E900041EA052143EA042339803380108008B0D9
:102EA000BDE8F081AFF30080AFF30080AFF30080A6
:102EB000F0B589B008AC2623054604F8083D0F4656
:102EC0001646FEF7C5FB04A80621042200900191D6
:102ED00002922846224639460123FEF771FB04463A
:102EE0002846FEF7C5FB14B12846FFF7D9FE9DF82A
:102EF0001030337009B0F0BDAFF30080AFF3008045
:102F000010B51A4884B06821FFF74AFF0DF10E048E
:102F100003AB0DF10A02682100941448FFF788FF03
:102F20000DF1090268211148FFF7C2FFBDF90A201F
:102F30000F481049FFF7DCFCBDF90C200C480E4986
:102F4000FFF7D6FCBDF90E2009480C49FFF7D0FC6D
:102F50009DF8092006480A49FFF7CAFC04480949B8
:102F6000FFF7C6FC0520FDF75BFFD1E7E00D002071
:102F7000180E0020003800080C3800081838000827
:102F8000243800083C380008AFF30080AFF300801D
:102F9000F8B50B480B49FFF7ABFC4FF440644FF416
:102FA0008076C4F20104374680252761FA206561E6
:102FB000FDF736FF6661FA202561FDF731FFF4E782
:102FC000180E002030380008AFF30080AFF3008007
:102FD00069646C6500000000000000000000000053
:102FE00053562331000000005356233200000000E6
:102FF00053562333000000005356233400000000D2
:1030000053562335000000005356233600000000BD
:1030100053562337000000005356233800000000A9
:10302000535623390000000053562331300000006E
:103030005356233131000000000000000000000062
:103040002263685654536574492228290000000001
:10305000226368565452657365744922282900001A
:103060006368565452657365744928292C202331AE
:103070000000000000000000000000000000000050
:10308000636853636852656164794928292C202359
:1030900031000000737461636B206F766572666C3B
:1030A0006F7700000000000000000000000000003A
:1030B00022636854686443726561746549222829F3
:1030C000000000002263685468645365745072699C
:1030D0006F726974792228290000000063685468BF
:1030E00064526573756D6528292C2023310000001A
:1030F000226368546864536C656570222829000057
:103100006368546864457869745328292C202331F6
:1031100000000000226368546864576169742228C3
:103120002900000063685468645761697428292C79
:103130002023310063685468645761697428292C1E
:10314000202332000000000000000000000000000A
:103150006D61696E0016C01104044C080C1014183F
:103160001C20212223240000000000000000000099
:103170002263684D7478496E697422282900000022
:103180002263684D74784C6F636B532228290000CA
:1031900063684D74784C6F636B5328292C2023315E
:1031A0000000000063684D74784C6F636B532829EE
:1031B0002C202332000000002263684D7478547282
:1031C000794C6F636B5322282900000063684D74AB
:1031D00078556E6C6F636B28292C2023310000001A
:1031E00063684D7478556E6C6F636B28292C2023AF
:1031F0003200000063684D7478556E6C6F636B53DA
:1032000028292C202331000063684D7478556E6C9A
:103210006F636B5328292C2023320000000000002C
:1032200022636845767452656769737465724D618F
:10323000736B222829000000226368457674556E5E
:103240007265676973746572222829002263684574
:1032500076745369676E616C49222829000000006A
:103260002263684576745369676E616C2228290071
:1032700022636845767442726F6164636173744D52
:1032800061736B492228290022636845767444697A
:1032900073706174636822282900000063684576B2
:1032A00074446973706174636828292C2023310089
:1032B00022636849515265616454696D656F757424
:1032C000222829002263684F515772697465546936
:1032D0006D656F7574222829000000000000000051
:1032E000226932635374617274222829000000003D
:1032F000693263537461727428292C2023310000D1
:103300002269326353746F70222829006932635333
:10331000746F7028292C2023310000002269326349
:103320004765744572726F7273222829000000008D
:10333000226932634D61737465725472616E736D8C
:10334000697454696D656F75742228290000000046
:103350006932634D61737465725472616E736D6925
:103360007454696D656F757428292C202331000011
:10337000226932634D617374657252656365697663
:103380006554696D656F7574222829006932634D33
:1033900061737465725265636569766528292C20AE
:1033A000233100002269326341637175697265429D
:1033B00075732228290000002269326352656C650A
:1033C0006173654275732228290000000000000027
:1033D00022736453746172742228290073645374D5
:1033E00061727428292C2023310000002273645359
:1033F000746F702228290000736453746F70282939
:103400002C20233100000000227364496E636F6D2D
:10341000696E6744617461492228290022736452ED
:1034200065717565737444617461492228290000CF
:10343000C1160008A116000801170008E1160008CF
:10344000F1160008D1160008B11600089116000800
:1034500022646D6153747265616D416C6C6F636160
:10346000746522282900000022646D61537472651E
:10347000616D52656C65617365222829000000004A
:10348000646D6153747265616D52656C65617365DD
:1034900028292C202331000000000000000000003B
:1034A000080002400400024000000B001C00024023
:1034B0000400024004010C003000024004000240FD
:1034C00008020D0044000240040002400C030E00FC
:1034D000580002400400024010040F006C0002403B
:1034E0000400024014051000800002400400024065
:1034F00018061100080402400404024000073800C6
:103500001C04024004040240040839003004024054
:103510000404024008093A00440402400404024042
:103520000C0A3B005804024004040240100B3C000B
:103530006932635F6C6C645F737461727428292CE8
:10354000202333006932635F6C6C645F7374617253
:103550007428292C20233400226932635F6C6C6448
:103560005F7365745F636C6F636B222829000000D2
:103570006932635F6C6C645F7365745F636C6F6307
:103580006B28292C202331006932635F6C6C645FE7
:103590007365745F636C6F636B28292C2023320082
:1035A0006932635F6C6C645F7365745F636C6F63D7
:1035B0006B28292C202333006932635F6C6C645FB5
:1035C0007365745F636C6F636B28292C2023340050
:1035D0006932635F6C6C645F7365745F636C6F63A7
:1035E0006B28292C202335006932635F6C6C645F83
:1035F0007365745F636C6F636B28292C202336001E
:103600006932635F6C6C645F7365745F636C6F6376
:103610006B28292C20233800226932635F6C6C648C
:103620005F6D61737465725F726563656976655F0E
:1036300074696D656F7574222829000022693263F0
:103640005F6C6C645F6D61737465725F7472616EE0
:10365000736D69745F74696D656F757422282900D4
:103660000096000000000040000000000000000084
:10367000FFFFFFFF844B888888488488FFFFFFFF97
:103680008888443883FF8888FFFFFFFF8888888800
:10369000BBBB8B88FFFFFFFF448B888888888888A6
:1036A000FFFFFFFF888888888888888800000000DE
:1036B000286E756C6C2900000000000000000000FE
:1036C00057656C6C2C207468697320697320656D74
:1036D000626172617373696E67203A27280D0A0070
:1036E000427573206572726F720D0A0041726269D1
:1036F00074726174696F6E206C6F73740D0A0000D0
:1037000041636B6E6F776C65646765206661696C99
:103710007572650D0A0000004F76657272756E2F26
:10372000556E64657272756E0D0A00005045432037
:103730006572726F7220696E20726563657074695C
:103740006F6E0D0A00000000486172647761726557
:103750002074696D656F75740D0A0000534D4275D4
:103760007320616C746572740D0A00005754463FF3
:103770000D0A0000446F20796F752068617665201E
:10378000657665727468696720636F6E6E656374D1
:10379000656420636F72726563746C793F0D0A0013
:1037A00041726520796F7520737572652074686148
:1037B0007420796F7520686176656E27742074684F
:1037C00065206461746120616E6420636C6F636B5B
:1037D0002070696E7320736574206173206F757437
:1037E000707574733F203A290D0A00000000000034
:1037F00001000000801A0600020000000000000026
:103800002564205820202020000000002564205935
:1038100020202020000000002564205A20202020A5
:10382000000000002564205420202020000000001B
:1038300048656C6C6F20776F726C64210A0D000014
:04000005080001E10D
:00000001FF
