:020000040800F2
:100000000004002041020008110400081104000847
:10001000110400081104000811040008110400086C
:10002000110400081104000811040008410400082C
:10003000110400081104000811040008210500083B
:10004000110400081104000811040008110400083C
:10005000110400081104000811040008110400082C
:100060001104000811040008110400081118000808
:100070004118000871180008B1180008F1180008AC
:100080003119000871190008110400081104000852
:1000900011040008110400081104000811040008EC
:1000A00011040008110400081104000811040008DC
:1000B000110400082122000811040008110400089E
:1000C00011040008110400081104000811040008BC
:1000D000110400081104000881240008110400081C
:1000E000110400081104000811040008110400089C
:1000F000110400081104000811040008110400088C
:10010000110400081104000811040008110400087B
:10011000110400081104000811040008110400086B
:10012000B1190008F1190008311A0008711A000805
:10013000B11A000811040008110400081104000895
:10014000110400081104000811040008110400083B
:1001500030B583B001F02CF900F062FA40F660602F
:100160000021C2F2000001F0BBFA40F64C6040F6FC
:100170000001C2F20000C2F2000101F0C9F94FF41F
:10018000006540F6186043F20041C4F20105C2F276
:100190000000C0F6000101F03BF94FF4406440213B
:1001A0001022284601F094FFC4F201042846802161
:1001B000102201F08DFF01211022204601F088FF5E
:1001C00020460221102201F083FF4FF480500421C9
:1001D0000522C4F2010001F07BFF002442F6C14376
:1001E00041F2A810D0214022C0F600030094C2F2D0
:1001F000000000F0F5FD40F6D86042F6F1330094BF
:100200004FF42C714022C0F60003C2F2000000F04F
:10021000E7FD204603B030BDAFF30080AFF30080B0
:10022000704700BFAFF30080AFF30080AFF30080F2
:10023000FEE700BFAFF30080AFF30080AFF30080B4
:1002400072B6644C84F30988022383F31488BFF3E5
:100250006F8F61486149884218D2CA1C051D531B23
:1002600023F00302034610184FF055318342196002
:10027000C2F380020AD01AB185422B46296005D00C
:100280001D1D5960083383426960F9D15448A0426A
:1002900018D25449041D0A1B22F0030503462818EE
:1002A0004FF0553183421960C5F380020AD01AB16C
:1002B00084422346216005D01D1D596008338342C6
:1002C0006960F9D102F0ECF94749484881421BD2F4
:1002D000C61C0C1D321B464822F00302161D056881
:1002E0000423B3420D60C2F380020DD022B14568F1
:1002F0000823B342256007D01D581A1D5D5084584D
:100300000833B3428C50F7D13A483B49884217D260
:10031000CB1C041D1A1B22F00305034628180021DC
:1003200083421960C5F380020AD01AB18442234681
:10033000216005D01D1D5960083383426960F9D1E1
:10034000FFF76EFF2D4D2E498D421DD2CC1C2E1D68
:10035000A71BB808471C01242A6800EA0408904734
:10036000BC4211D0B8F1000F05D033680224984781
:10037000BC42354608D0696888470234A8682E1DFB
:1003800080470835BC42F6D1FFF7E2FE1D4D1E4AFC
:1003900095421DD2D41C2E1DA71BBB085F1C012437
:1003A000296803EA04088847BC4211D0B8F1000F5D
:1003B00005D0306802248047BC42354608D06A68C0
:1003C00090470234AB682E1D98470835BC42F6D1E1
:1003D000FFF72EFF0008002000000020000400208E
:1003E000000400200308002000080020340800203A
:1003F0005834000838080020781200205001000806
:10040000500100085001000850010008AFF30080BF
:10041000FEE700BFAFF30080AFF30080AFF30080D2
:1004200072B6FEE7AFF30080AFF30080AFF3008059
:1004300000F086F900F044FC00F09AF900DF00BFFC
:10044000EFF30983203383F30988002383F31188B2
:10045000704700BFAFF30080AFF30080AFF30080C0
:1004600008B54FF440724FF46D43CEF20003C0F272
:10047000FA520021996007201021DA6000F0A8F8F4
:100480000A204FF4007100F0A3F80B208021BDE892
:10049000084000F09DB800BFAFF30080AFF30080CC
:1004A000202383F311884FF46D43CEF20003586884
:1004B00010F400631AD0EFF30983A3F1200282F352
:1004C000098811494FF080708A6943F8040C92F84A
:1004D000230009689268896858B1914294BF00224C
:1004E000012262B1094A43F8082C704783F311884E
:1004F0007047914234BF00220122002AF2D1044801
:1005000043F8080C704700BF6C0D00203104000850
:100510003C040008AFF30080AFF30080AFF300802D
:1005200008B500F07DF9202383F3118800F040F92D
:1005300000F0B6F800F054F9002383F3118800F0BE
:100540008FF9BDE80840FFF7ABBF00BFAFF30080F5
:100550002DE9F04FC1F80CD0D0F80CD0BDE8F08FE9
:1005600008B500F005F9002383F311882846A04759
:1005700000F0C6FC08BD00BFAFF30080AFF3008001
:1005800000F0030370B4DA00FF2505FA02F500F06D
:100590001F0401FA02F1012202FA04F24FF461434E
:1005A0008408CEF20003C03453F82460400926EAE0
:1005B00005050D4300F1600643F8245043F826205A
:1005C00043F8202070BC7047AFF30080AFF3008089
:1005D00000F0030310B4FF22DC0002FA04F201FA77
:1005E00004F180084FF46D43CEF20003063053F857
:1005F000204024EA02020A4343F8202010BC70473E
:10060000024B034A98698261FEE700BF6C0D00202F
:10061000002D0008AFF30080AFF30080AFF300803F
:1006200030B583B0FFF71CFF00F00AFA00F0A0F924
:1006300000F066FE00F0ACFE00F062F940F6380013
:100640004021C2F2000000F04BFB40F20043C2F236
:100650000003012540F66C54C361C2F2000480F827
:100660002050A06100F054F8002383F3118862B693
:1006700042F68061A269C0F60001916140F68800EF
:10068000009340F20163C0212A46C0F60003C2F283
:10069000000000F0A5FB03B030BD00BFAFF3008049
:1006A000F8B500F0FDF8164B986990F8232012B1C8
:1006B000511E80F82310446A124D631C4362E8689F
:1006C0002C68421CAC42EA6018D0A768013FA760C2
:1006D000A7B92168E6684D60E760296000F080F8FE
:1006E000002383F311882069B047202383F3118806
:1006F00000F05EF82C68A368002BEAD0F8BD00BFBC
:100700006C0D00205C0D0020AFF30080AFF3008083
:10071000054B186810B905490A6822B10448054B11
:100720001860FFF77DBE704748090020540D002077
:10073000202D0008580D0020AFF30080AFF300809B
:10074000074B10B51868074C08B9216821B1064A53
:10075000064B1A60FFF764FE0120206010BD00BF49
:1007600048090020540D0020282D0008580D0020B5
:10077000084B10B51868084C28B92168002902DD1B
:100780000020206010BD054A054B1A60FFF748FEA7
:10079000F6E700BF48090020540D0020302D000866
:1007A000580D0020AFF30080AFF30080AFF300805E
:1007B000074B10B51868074C002801DD216821B1EE
:1007C000054A064B1A60FFF72BFE0120206010BD82
:1007D00048090020540D0020382D0008580D002035
:1007E000084B10B51868084C002805DD2168002961
:1007F00002DD0020206010BD044A054B1A60FFF79F
:100800000FFEF6E748090020540D0020402D000897
:10081000580D0020AFF30080AFF30080AFF30080ED
:1008200010B5202383F31188094C2168002902DBCD
:10083000084A106828B10849084B1960FFF7F0FD15
:1008400021684A1C2260002383F3118810BD00BF79
:1008500048090020540D0020482D0008580D0020A4
:1008600010B5202383F31188094C2168002902DD8B
:10087000084A106828B10849084B1960FFF7D0FDF5
:1008800021684A1E2260002383F3118810BD00BF37
:1008900048090020540D0020502D0008580D00205C
:1008A000064B1868002804DB05490A68002A00DDA9
:1008B00070470448044B1860FFF7B2BD4809002098
:1008C000540D0020582D0008580D0020AFF3008073
:1008D000064B186820B906490A68002A00DD7047EF
:1008E0000448054B1860FFF79BBD00BF4809002076
:1008F000540D0020602D0008580D0020AFF300803B
:1009000040F64C13C2F200031A46402142F8081B7D
:100910005A607047AFF30080AFF30080AFF3008000
:100920000C4910B40C4ACC680C49536889691C60A6
:100930005960846A03F110019C6090F8204002F530
:10094000816081421C732ABF02F108035160536029
:1009500010BC70475C0D00204C0900206C0D00207D
:1009600040F65853C2F200031860FFF759BD00BFAC
:1009700040F65C53C2F200034FF0FF3200205B6090
:100980001B609A60D8607047AFF30080AFF30080BF
:10099000F8B505460C4616461F46FFF781FFCDB158
:1009A000C6B1BCB10D492F610B68EE609A689442E4
:1009B00004D91B68A41A9A68A242FAD358688B42D9
:1009C0002B60686005605D60AC6002D099680C1BAC
:1009D0009C60F8BD0248FFF7C3FFE3E75C0D002011
:1009E000702D0008AFF30080AFF30080AFF30080FC
:1009F00010B50446FFF754FF84B1E36893B1206853
:100A00000A4A904203D08168A368CA18826062686B
:100A1000002110602068E160426010BD0448FFF7CB
:100A20009FFFEAE70348FFF79BFFE8E75C0D002024
:100A3000802D0008902D0008AFF30080AFF30080F8
:100A400040F66C53C2F2000300225B601B609A60A8
:100A50005B611B61704700BFAFF30080AFF30080A4
:100A600010B50446FFF71CFF94F820308BB10E2B15
:100A70000FD00022A168094884F82020006883680C
:100A80008B42FBD24168206061600C60446020466C
:100A900010BD0348FFF764FFEBE700BF6C0D0020BB
:100AA000B02D0008AFF30080AFF30080AFF30080FB
:100AB00010B52023044683F31188FFF779FE94F8DC
:100AC00020300D2B11D8DFE803F016101007100BA3
:100AD000101010101010100BA06A8268511C816059
:100AE00094E80C001A60206843604FF0FF33A36263
:100AF0002046FFF7B5FFFFF773FE002383F311884D
:100B000010BD00BFAFF30080AFF30080AFF30080F3
:100B100070B5114C0646FFF7DBFE2368A5691A681D
:100B200014210120546085F8206085F8231083F893
:100B3000200028462260A361FFF7F2FEEB69ADF1C9
:100B40002402934202D90548FFF70AFFA06929460B
:100B5000BDE87040FFF7FCBC6C0D0020C42D000800
:100B600070B50C4686B00646FFF7B2FE631C12D085
:100B70000B4D2146AB690B4A01A8FFF709FF304630
:100B8000FFF7C6FF049B13B101A8FFF731FFA86967
:100B9000806A06B070BD3046FFF7BAFF004DF6E739
:100BA0006C0D0020B10A0008AFF30080AFF30080A5
:100BB00070B5144D04460E46FFF78AFEA869A26878
:100BC0008368A6629A4213D9FFF74AFF01210646BD
:100BD00084F82010AC61FFF7A3FEF069ADF12402A8
:100BE00090420AD820463146BDE87040FFF7B0BCBD
:100BF0002046BDE87040FFF733BF0348FFF7B0FE63
:100C0000F0E700BF6C0D0020C42D0008AFF300809A
:100C100038B5104C01212368A5691A681420546066
:100C200083F8201085F8230028462260A361FFF78F
:100C300017FF2846FFF774FEEB69ADF124029342DB
:100C400002D90548FFF78CFEA0692946BDE8384067
:100C5000FFF77EBC6C0D0020C42D0008AFF30080B0
:100C600070B5144E01213368B5691A680020AC686C
:100C7000566083F820103260B36185F8200000E0F0
:100C80001B689A68A242FBD859682B6069602846A5
:100C90005D600D60FFF744FEEB69ADF12400834217
:100CA00002D90548FFF75CFEB0692946BDE87040EF
:100CB000FFF74EBC6C0D0020C42D0008AFF3008080
:100CC000044B986990F8231009B1FFF7C9BFFFF7EB
:100CD0009FBF00BF6C0D0020AFF30080AFF300801A
:100CE0002DE9F00140F66C54C2F20004656900225F
:100CF000046100F13006816000F12C0C00F14C071A
:100D000045614FF00208606141641424012180F8BC
:100D1000208080F8212080F823400264C263426270
:100D200080F8221082612861C0F82CC046630663F7
:100D3000C761BDE8F0017047AFF30080AFF30080FA
:100D40002DE9F04704460D4690469946FFF7A8FD69
:100D50000CB1AF2D35D81E48FFF702FE1D4EA5F190
:100D60002403E7187169E76044F80390089B0025A5
:100D70007B60194B04F130023B62022384F820307F
:100D8000142304F12C0A04F14C0C84F823300123C1
:100D90002661C4F8088061612046746184F821509E
:100DA000C4F844802564E563656284F82230A56157
:100DB0000C61C4F82CA062632263C4F81CC0BDE8B7
:100DC000F087B8F17F0FC6D8B9F1000FC6D1C2E7DE
:100DD000E02D00086C0D002061050008AFF30080D5
:100DE0002DE9F04F9B4683B080468946924600F13C
:100DF0004C0300F1010400F14D07FF26254604F8DD
:100E0000016C05F8016B6C1CBC42F7D108EB0907BB
:100E1000BB4215D218465526DA4300F8016BB918C3
:100E2000B84201F001030BD01BB100F8016BB842CE
:100E300006D0054605F8016B4670681CB842F8D12B
:100E4000202383F31188FFF77BFC0C9C5B46524602
:100E5000494600944046FFF773FF00210446FFF720
:100E6000A7FEFFF785FC002383F31188204603B01B
:100E7000BDE8F08FAFF30080AFF30080AFF30080E8
:100E800010B5044610B90948FFF76AFD202383F323
:100E90001188FFF755FC21460620FFF761FEFFF79A
:100EA00067FC002383F3118810BD00BF202E0008CB
:100EB00038B5104B9C69254655F82C1FA062A942F5
:100EC00007D00A680846E262FFF7CAFDE16AA94254
:100ED000F7D194F82100830704D1636922691A616C
:100EE00021694B610E20FFF713FE0348BDE838402F
:100EF000FFF736BD6C0D0020302E0008AFF30080E8
:100F000010B52023044683F31188FFF719FC20460F
:100F1000BDE81040FFF7CCBFAFF30080AFF3008017
:100F200010B5044620B1002364602460A36010BDA6
:100F30000148FFF715FDF6E7A02E0008AFF300808B
:100F400038B504460D46FFF7ABFCC4B1E26B94F82C
:100F5000203045EA0201082BE1630CD0092B00D0B8
:100F600038BDA06A01408842FAD12046FFF778FDDB
:100F70000023836238BDA26A1142F6D138BD02480F
:100F8000FFF7EEFCE2E700BF7C2F0008AFF3008024
:100F900070B505460E46FFF783FC6DB12C68A5427F
:100FA00009D0E36860683343E360A168FFF7C8FFD6
:100FB0002468A542F5D170BD0148FFF7D1FCEDE7EB
:100FC000A02F0008AFF30080AFF30080AFF30080E4
:100FD00010B4024659B1084B0D209B699A625468BF
:100FE00083E814005360236010BCFFF7B9BD4FF0D5
:100FF000FF3010BC704700BF6C0D0020AFF30080C5
:1010000010B4C361019B8A180024406000608460B2
:1010100041618161C1600261036210BC704700BF21
:1010200038B504460D46FFF73BFC6369A269A0682A
:1010300093421AD0411CA16003F8015B22696361ED
:1010400093420BD22068A0420DD0016821604C6011
:10105000FFF706FD00228262104638BD2068E36873
:10106000A0426361F1D1002038BD0028E2D06FF0CA
:10107000030038BDAFF30080AFF30080AFF3008012
:10108000F8B504460E46202383F31188FFF758FB7A
:10109000E3690BB120469847A5682046314655B90B
:1010A000FFF796FF071EF7DAFFF762FB2B4683F385
:1010B00011883846F8BDA069013DA56010F8017B94
:1010C0002269A061904224BFE068A061FFF750FB55
:1010D000002383F311883846F8BD00BFAFF30080CA
:1010E0002DE9F0470446154688461E46C769002A82
:1010F0003AD0202383F31188FFF722FB08F1010A7D
:101100004FF00009A8440FB12046B847A568204613
:1011100031465DB9FFF75CFF0028F7D0FFF728FBE9
:101120002B4683F311884846BDE8F087A369013D4B
:10113000A56013F8012B0AF8012C2069A3618342F2
:1011400024BFE368A361FFF713FB002383F3118837
:10115000C24509F10109E6D0202383F31188FFF786
:10116000EFFA0AF1010ACEE70148FFF7F9FBC0E701
:10117000E02F0008AFF30080AFF30080AFF30080F2
:1011800010B4C361019B8C184060006082604161B3
:101190008161C1600461036210BC7047AFF30080DD
:1011A0002DE9F041202304468846164683F3118832
:1011B000FFF7C6FAA568204631465DB9FFF708FF7C
:1011C000071EF7DAFFF7D4FA2B4683F31188384667
:1011D000BDE8F0816369013DA56003F8018B2269D8
:1011E0006361934228BFE368E16928BF636109B185
:1011F00020468847FFF7BCFA002383F311881F4677
:101200003846BDE8F08100BFAFF30080AFF3008047
:1012100038B50446FFF744FBA3696269A0689A42A7
:1012200016D0411CA16013F8015B2269A3619342AF
:101230000BD22068A04206D0016821604C60FFF705
:101240000FFC00228262284638BDE368A361F0E704
:101250000028E6D06FF0020038BD00BFAFF3008079
:101260002DE9F0470446164688469A46D0F81C9069
:10127000002A39D0202383F31188FFF761FA002771
:10128000A56820466B1E0DB3A360656918F8011BA5
:1012900005F8011B22696561954224BFE26862611D
:1012A000B9F1000F00D0C847FFF762FA002383F3BB
:1012B00011880137013E14D0202383F31188FFF7F2
:1012C0003FFAA56820466B1E002DDDD12046514611
:1012D000FFF77EFE0028D3D0FFF74AFA2B4683F3B0
:1012E00011883846BDE8F0870148FFF739FBC1E7B0
:1012F000F42F0008AFF30080AFF30080AFF300805D
:1013000040F20001084840F68C5240F68853C2F281
:101310000101C2F2000220F00700C2F2000321F036
:1013200007011060196070477F120020AFF3008042
:1013300010B50446FFF7B4FA074A0849136809686C
:10134000E01D20F00700C91A88429ABF18181060E3
:101350000023184610BD00BF8C0D0020880D002012
:1013600010B52023044683F31188FFF7E9F92046DE
:10137000FFF7DEFF0446FFF7FBF9002383F3118834
:10138000204610BDAFF30080AFF30080AFF30080C4
:1013900040F69053C2F2000341F261310022C0F6E0
:1013A000000103F1100019609A60DA60FFF7B8BD20
:1013B00008B500F06DFC00F003FA43F2A030C0F66F
:1013C000000000F045FE00F00BF800F091F800F08E
:1013D00057F9BDE8084001F06BB900BFAFF30080DA
:1013E00000F08EBDAFF30080AFF30080AFF300805C
:1013F00000230122027043608360C3600361436184
:101400001830FFF78DBD00BFAFF30080AFF3008051
:1014100038B504460D46B8B1202383F31188FFF791
:101420008FF92378581E012802D90948FFF798FA46
:101430002046656000F0A4FD02212170FFF798F9B5
:10144000002383F3118838BD0248FFF789FAE3E7E8
:101450002030000810300008AFF30080AFF30080A8
:10146000F8B504460E4617461D46FFF719FACCB1EB
:10147000C6B1BFB1012D01D0EB0713D420780228EB
:1014800006D0042804D0052802D00848FFF768FADF
:1014900003232046A760E56026612370BDE8F8407D
:1014A00000F09EBD0248FFF75BFAE7E764300008F2
:1014B0004C300008AFF30080AFF30080AFF3008042
:1014C000F8B51C4607460E461546202383F31188BF
:1014D000FFF736F92346384631462A46FFF7C0FF64
:1014E000FFF746F9002383F31188F8BDAFF30080BE
:1014F00000F0D6BEAFF30080AFF30080AFF3008002
:101500000123002103704160704700BFAFF30080EA
:1015100038B504460D46D0B1C9B1202383F31188F4
:10152000FFF70EF92378581E012802D90A48FFF761
:1015300017FAA98820462181656000F0C1FE0222C9
:101540002270FFF715F9002383F3118838BD034893
:10155000FFF706FAE1E700BF30310008203100084C
:1015600070B504460D461646B8B1032915D8202398
:1015700083F31188FFF7E4F82378022B02D009489F
:10158000FFF7EEF920462946324600F039FFFFF713
:10159000EFF8002383F3118870BD0348FFF7E0F9EB
:1015A000E5E700BFA031000888310008AFF30080F4
:1015B00038B504460D46B0B1032914D8202383F36F
:1015C0001188FFF7BDF82378022B02D00848FFF7F7
:1015D000C7F92046294600F033FFFFF7C9F800237A
:1015E00083F3118838BD0348FFF7BAF9E6E700BF77
:1015F000B831000888310008AFF30080AFF30080F5
:101600000C30FFF76DBD00BFAFF30080AFF300807B
:101610000C304FF0FF33FFF763BD00BFAFF3008026
:101620003030FFF71DBE00BFAFF30080AFF3008086
:1016300030304FF0FF33FFF713BE00BFAFF3008031
:101640000C30FFF71DBD00BFAFF30080AFF300808B
:101650000C304FF0FF31FFF713BD00BFAFF3008038
:101660003030FFF79DBD00BFAFF30080AFF30080C7
:1016700030304FF0FF32FFF793BD00BFAFF3008073
:1016800000F0B6BFAFF30080AFF30080AFF300808F
:1016900070B50B4643F230210546C0F60001044602
:1016A00045F8041B82B065600125164604F154011B
:1016B0001022257200F10C000094FFF7A1FC0094A9
:1016C00004F1300004F1640110223346FFF758FDA5
:1016D00002B070BDAFF30080AFF30080AFF30080C5
:1016E00038B504460D46B8B1202383F31188FFF7BF
:1016F00027F8237A581E012802D90948FFF730F944
:101700002046294600F08CFF02212172FFF730F8B5
:10171000002383F3118838BD0248FFF721F9E3E77E
:10172000DC310008D0310008AFF30080AFF3008057
:1017300038B504460D46FFF7B3F8D4B163693BB141
:1017400004F10C002946FFF76BFC00280BDB38BDC9
:10175000201D0421FFF71CFC04F10C002946FFF7B3
:101760005FFC0028F3DA201D8021BDE83840FFF738
:101770000FBC0248FFF7F4F8E0E700BF08320008AA
:101780004FF48053CEF2000359688160704700BF68
:101790004FF48053CEF20003084982685B68096801
:1017A0009B1AC268591A9142816004D80369994210
:1017B00038BF01617047C160704700BFB00D0020A5
:1017C00010B540F6B05486B00022C2F200044FF0CB
:1017D000FF304FF48053226004920590CEF2000354
:1017E000596841F2817241F2917301A8C0F600027A
:1017F000C0F60003019202930391FFF7C9FF03981B
:10180000206006B010BD00BFAFF30080AFF30080D2
:1018100010B5FFF705F800230848C4F20203196861
:1018200002680F2401F00F015C600AB14068904724
:10183000FFF716F8BDE81040FEF732BEB40D0020E9
:1018400010B5FEF7EDFF00230848C4F20203196843
:101850008268F024C1F303115C600AB1C06890474C
:10186000FEF7FEFFBDE81040FEF71ABEB40D0020E3
:1018700010B5FEF7D5FF00230948C4F2020319682A
:1018800002694FF47064C1F303215C600AB14069DE
:101890009047FEF7E5FFBDE81040FEF701BE00BF30
:1018A000B40D0020AFF30080AFF30080AFF30080F1
:1018B00010B5FEF7B5FF00230948C4F2020319680A
:1018C00082694FF47044C1F303315C600AB1C069AE
:1018D0009047FEF7C5FFBDE81040FEF7E1BD00BF31
:1018E000B40D0020AFF30080AFF30080AFF30080B1
:1018F00010B5FEF795FF00230948C4F202031968EA
:10190000026A4FF47024C1F303415C600AB1406A7B
:101910009047FEF7A5FFBDE81040FEF7C1BD00BF30
:10192000B40D0020AFF30080AFF30080AFF3008070
:1019300010B5FEF775FF00230948C4F202031968C9
:10194000826A4FF47004C1F303515C600AB1C06A4B
:101950009047FEF785FFBDE81040FEF7A1BD00BF30
:10196000B40D0020AFF30080AFF30080AFF3008030
:1019700010B5FEF755FF00230948C4F202031968A9
:10198000026B4FF07064C1F303615C600AB1406B9D
:101990009047FEF765FFBDE81040FEF781BD00BF30
:1019A000B40D0020AFF30080AFF30080AFF30080F0
:1019B00010B5FEF735FF4FF480630948C4F2020307
:1019C0001968826B0F2401F00F015C600AB1C06BD3
:1019D0009047FEF745FFBDE81040FEF761BD00BF30
:1019E000B40D0020AFF30080AFF30080AFF30080B0
:1019F00010B5FEF715FF4FF480630948C4F20203E7
:101A00001968026CF024C1F303115C600AB1406CE8
:101A10009047FEF725FFBDE81040FEF741BD00BF2F
:101A2000B40D0020AFF30080AFF30080AFF300806F
:101A300010B5FEF7F5FE4FF480630948C4F20203C7
:101A40001968826C4FF47064C1F303215C600AB1C1
:101A5000C06C9047FEF704FFBDE81040FEF720BDC4
:101A6000B40D0020AFF30080AFF30080AFF300802F
:101A700010B5FEF7D5FE4FF480630948C4F20203A7
:101A80001968026D4FF47044C1F303315C600AB110
:101A9000406D9047FEF7E4FEBDE81040FEF700BD44
:101AA000B40D0020AFF30080AFF30080AFF30080EF
:101AB00010B5FEF7B5FE4FF480630948C4F2020387
:101AC0001968826D4FF47024C1F303415C600AB160
:101AD000C06D9047FEF7C4FEBDE81040FEF7E0BCC5
:101AE000B40D0020AFF30080AFF30080AFF30080AF
:101AF0002DE9F00F40F6146086B0C2F200000290AB
:101B00004FF48660C4F20200019040F24440C4F2F7
:101B1000020003904FF48B60C4F2020004904FF473
:101B20008060C4F202000590002102980A4602601B
:101B30004FF0080B019840F6B4534FF01C0A4FF0D9
:101B400030094FF044084FF0580C6C2780264FF4B2
:101B5000816540F21C44C2F20003C4F2020BC4F2DD
:101B6000020AC4F20209C4F20208C4F2020CC4F26E
:101B70000207C4F20206C4F20205C4F20204CBF862
:101B800000201A60CAF800209A60C9F800201A6183
:101B9000C8F800209A61CCF800201A623A609A6274
:101BA00032601A632A609A6322601A6402600398A2
:101BB0009A64026004981A6502609A65059B4FF06A
:101BC000FF32C4F202014A605A6006B0BDE8F00F6D
:101BD000704700BFAFF30080AFF30080AFF3008029
:101BE000F0B5044685B000283ED0657A012000FAA1
:101BF00005FC224E37681CEA070F31D120484CEA19
:101C0000070700EBC50CCCF804307B0640F8352004
:101C1000376007D04FF48053C4F202035D6945F08A
:101C200001065E6117F4786F07D04FF48057C4F255
:101C30000207786940F002037B61236860681D68D1
:101C40000F2725F00F061E60267A002507FA06F6F4
:101C500006601D6032B1A07A0901FEF791FC2846AA
:101C600005B0F0BD1046FBE70648039102920193D0
:101C7000FEF776FE019B029A0399B6E7140E002048
:101C8000B40D002050320008AFF30080AFF30080A5
:101C90004FF4805330B4C4F2020300214FF0FF34FC
:101CA00018694EF210021C611961DD68CEF2000263
:101CB000DC6048F69F44D9604EF6F0505460916065
:101CC00007211160CEF20000C2684FF4805142F04B
:101CD0008072C260CEF2000108684FF4E04240F02A
:101CE00001000860D969C4F2000241F08050D86157
:101CF000D96941F00060D861136843F480711160C4
:101D000030BCFFF7F5BE00BFAFF30080AFF300803B
:101D10004FF48053C4F202031A68194642F00100DE
:101D200018600A684FF480539007C4F20203F8D594
:101D3000002159601868194600F0F9021A604868D5
:101D40004FF4805310F00C0FC4F20203F7D11A685D
:101D5000194642F4803018600A684FF480539203A9
:101D6000C4F20203F8D548F24461D96218681946F2
:101D700040F080621A6008684FF480530001C4F29A
:101D80000203F8D55A68194642F4E01058601A6800
:101D900042F0807018600A684FF480539201C4F2D8
:101DA0000203F8D54FF4C8414FF40050C0F21C01B3
:101DB000C4F202001122596002605968184641F0CD
:101DC00002025A60436803F00C010829FAD17047F7
:101DD000F8B50D46290704462DD5C36A01691A686E
:101DE0005D68166826F00F0616601B7A0F2606FA45
:101DF00003F6826A8B6800212E6091602BB1052565
:101E0000057098472078052865D000252561202396
:101E100083F31188FEF7CCFC636933B14FF0FF32D6
:101E2000656118469A62FEF71BFEFEF7D9FC002397
:101E300083F31188F8BD6A0706D503695B681BB197
:101E4000C268816852089847AB07F3D523691A78AE
:101E5000002A30D1E16AA66A91E88100056825F080
:101E60000F050560097A0F2000FA01F15D683960FD
:101E7000B260002D3FD0E2680420012A207036D9DC
:101E80005988520801FB02F1A368204603EB410187
:101E9000A8472278042A25D0202383F31188FEF74F
:101EA00087FC6369002BC0D00022626118469A62E9
:101EB000FEF7D6FDB9E75D68002DBBD0E268012AC8
:101EC0000CD95888520800FB02F1A368204603EBA6
:101ED0004101A847F8BD0221217096E72046A1687C
:101EE000A847F8BD0220002120702161D4E72046D8
:101EF000A168A847CDE7022323702561CCE700BF86
:101F000010B51C4C2046FFF773FA42F28A534FF487
:101F100080522363C4F20202906917494FF41053B0
:101F2000C4F2010340F40070E162A36290610022F8
:101F30005A6001200922986019469A6088684FF417
:101F400010530007C4F20103F8D405219960184624
:101F500083684FF4105213F00403C4F20102F7D166
:101F60004FF480519360C4F20201886920F400723A
:101F70008A6110BD180E0020A0320008AFF3008067
:101F800038B503780446012B00D038BD114DA84266
:101F900004D0A16A00234B608B6038BDC06A052164
:101FA0000D4A2346FFF71CFE78B9E86A42F24C421C
:101FB0000168C4F201024FF480538A60C4F2020344
:101FC000986940F400729A61E3E70448FEF7C8FCA0
:101FD000EBE700BF180E0020D11D000830330008C9
:101FE0000369F0B41978026B09B142F02002C468A9
:101FF0005E88012CC76A88BF66433968856888BFD8
:1020000042F00402DC68CD604E600A600E68826AAD
:10201000186946F0010710F4841F0F6044F48075BE
:1020200014BF40F4807140F4817155605F699E690E
:10203000DD691C6A41F001015B6A08439060D7606A
:102040001661D562146353639160F0BC704700BFA2
:102050004FF48053C4F202039A6910B442F07D0138
:10206000996104684FF40062C4F20102D46081688F
:102070004FF4406351604468C4F201031460C268C5
:102080004FF48051DA604469C4F201015C60046974
:102090004FF4A0521C608369C4F20102CB60046A51
:1020A0004FF4C0534C60C469C4F201030C60416A30
:1020B000D160C16A5160816A1160026BDA60816B24
:1020C0005960406B186010BC704700BFAFF30080D0
:1020D000032AF0B400F09980042A08BF41614C4BF8
:1020E00001F080049B5C002C01F4004214BF1F46E9
:1020F000002714BF00260F26002A14BF1D46002506
:102100004FEA41024FEA06140CBFF02600263901BF
:102110002D0112F0800F14BF194344F00F0412F484
:10212000004F14BF1D4346F00F0652002401360134
:1021300009012D0112F0800F14BF194344F00F0460
:1021400012F4004F14BF1D4346F00F065200240145
:10215000360109012D0112F0800F14BF194344F01C
:102160000F0412F4004F14BF1D4346F00F06520037
:102170002401360109012D0112F0800F14BF19430B
:1021800044F00F0412F4004F14BF1D4346F00F0635
:1021900052002401360109012D0112F0800F14BFF5
:1021A000194344F00F0412F4004F14BF1D4346F0CE
:1021B0000F0652002401360109012D0112F0800F93
:1021C00014BF194344F00F0412F4004F14BF1D4311
:1021D00046F00F0652002401360109012D0112F0CC
:1021E000800F14BF194344F00F04120448BF1D436D
:1021F000436858BF46F00F061E40354345600268ED
:10220000144021430160F0BC7047016167E700BFE3
:1022100050330008AFF30080AFF30080AFF30080CD
:1022200038B51E4DFEF7FCFA2B691A69DC681440BC
:10223000A4B2E1B204F00200C94382B21961002ADB
:1022400027D104F0040082B2002A1DD104F0080056
:1022500082B2A2B904F0100082B25AB9E30703D5E2
:102260006A680E4893689847FEF7FAFABDE8384066
:10227000FEF716B96B680948996A8847EEE76B68FC
:102280000648196A8847E5E76B68044899698847F2
:10229000DCE76B68284619698847D2E74C0E0020B6
:1022A00010B540F64C64C2F200042046FFF728F94E
:1022B0004FF48063C4F20003236110BDAFF30080CC
:1022C000037870B5012B044671D042680369106B26
:1022D000002120F0FF051960DD60196159639963E1
:1022E000D96319645962E1681668B1FBF6F0451EBE
:1022F000B5F5803F03D206FB00F0814204D03E4892
:10230000FEF72EFB626823692489D168D06A013CFC
:1023100001F00F01ADB2A4B201299D62DC625860E8
:1023200003D002290CBF03210021506900F00F00E7
:10233000012821D002281DD0D06900F00F0001280B
:1023400021D002282ED0506A00F00F00012821D0A1
:10235000022822D0012019625861D9689268002AA7
:102360000CBF084641F0010000218522D8601961A8
:102370001A6070BD41F02001D06941F0100100F0F9
:102380000F000128DDD141F48071506A00F00F0088
:102390000128DDD141F48051DCE741F4005141F4E2
:1023A0008051D7E741F4007141F48071EDE7134AA1
:1023B000904208D0236946F66800C0F20110986187
:1023C0006268D8618FE74FF48056C4F20206F36961
:1023D000002243F00200F06131691D2041F0020546
:1023E000356132614FF4A2467021C0F22526FEF716
:1023F000C7F8E660DEE700BF703300084C0E00202F
:1024000030B44468036904EBC10401F10C05206990
:1024100003EB85056A6050B1022202FA01F1D86827
:10242000014204D141EA0002C943DA60196130BCBB
:10243000704700BFAFF30080AFF30080AFF30080C0
:10244000022202FA01F203690C3103EB8101002040
:102450004860D96821EA0202DA607047AFF3008071
:102460004FF48843C4F200039A8990B240F080018F
:1024700099817047AFF30080AFF30080AFF3008025
:102480002DE9F041FEF7CCF9544B5D6FAE892C88F5
:10249000A988A4B22207B6B28FB259D104F48072CF
:1024A00093B2002B3ED104F0200188B200282AD13B
:1024B00006F0800293B223B104F0800188B20028B4
:1024C0006FD104F04004A4B2BCB1202383F311887F
:1024D000FEF76EF942481021FEF75AFDFEF780F92B
:1024E000002383F311884FF6BF703040A8812A88FB
:1024F00022F040031904080C2880FEF7B1F9BDE86A
:10250000F041FDF7CDBF202383F31188FEF750F98A
:102510003248F9B2FFF70CF9FEF762F9002383F3B2
:102520001188C5E7202383F31188FEF741F92C4871
:102530004FF40071FEF72CFDFEF752F9002383F3F0
:102540001188298821F480700204130C2B80AAE7DB
:1025500004F008081FFA88F004F00202002814BFF3
:102560004FF080084FF00008E30793B248BF48F0EF
:1025700020080BB148F0400804F0040188B208B10B
:1025800048F48078202383F31188FEF711F914486A
:102590004146FEF7FDFCFEF723F9002383F3118883
:1025A0007CE7202383F31188FEF702F90D48FEF73C
:1025B0002FFE002807DB82B2AA80FEF711F9002364
:1025C00083F311887DE708210548FEF7E1FC26F03A
:1025D000C00343F04001A981EFE700BF600E002077
:1025E000640E0020900E0020AFF30080AFF3008057
:1025F00010B540F66064C2F2000442F26142204627
:102600000021C0F60002FFF743F84FF48843C4F2FC
:102610000003636710BD00BFAFF30080AFF300801D
:1026200038B5037A1B4C0546002918BF0C46012B10
:102630001FD020684AF68001C0F212116B6FB1FB07
:10264000F0F290B21881A288E088218942F4045205
:1026500040F0400080B241F0010142F02C021882AB
:1026600092B289B2002099829A8118801A889B8838
:1026700038BD09488542DCD14FF48051C4F20201D3
:10268000CA69262042F40033CB61C021FDF778FFF0
:10269000CFE700BF90330008600E0020AFF300804A
:1026A000FFF736BBAFF30080AFF30080AFF30080DD
:1026B000704700BFAFF30080AFF30080AFF300803E
:1026C000F0B400F10B0C074600F10A050C46B1FB13
:1026D000F2F602FB161101F13003392BC8BF01F1EC
:1026E0003703DBB2B4FBF2F42846314605F8013972
:1026F000002CECD1C0EB0C020146B818FA4382184A
:10270000D2070AD507F8013B11F8013F05E011F89F
:10271000013F7B7011F8013F571C3A4602F8013B1C
:102720008242F4D1F0BC7047AFF30080AFF3008079
:102730000EB42DE9F04F86B00FAA0DF10D0352F83B
:10274000044B0DF10C0ACAEB030C00938346029272
:10275000CDF804C0254615F8011B61B125290FD01D
:10276000DBF800405846A3682C462546984715F8E4
:10277000011B0029F2D106B0BDE8F04F03B070474D
:1027800063782D2B00F0828100272E2B00F07A81B8
:10279000302B00F0778120262C460299002506E098
:1027A0000A78043105EB8505237802EB4505A3F192
:1027B0003000C2B20134092AF4D92A2BF0D000200B
:1027C0002E2B029149D06C2B55D04C2B53D0A3F11A
:1027D000410119298CBF00210121A3F14402342AAF
:1027E00000F24A81DFE812F039014801480148014E
:1027F00048013901480148014801480148013701B1
:10280000480148014801480148012F014801480199
:102810002201480148014801480148014801480196
:10282000480148014801E6003901480148014801D2
:102830004801390148014801480148014801370170
:102840004801480148014F0048012F014801480153
:1028500022010A78043102EB480014F8013B00EB36
:102860008008A3F13002D2B2092AF4D92A2BF0D081
:102870006C2B0291A9D12178002900F00B810B4625
:1028800001340121A9E7029E43F2E0383368C0F623
:102890000008002B18BF9846311D98F8006047F6D5
:1028A000FF720291002808BF1046002E00F00F8131
:1028B00098F80130411E08EB000908F1010201F00F
:1028C0000100B3B19145134600F0FD8060B1567828
:1028D000013276B19145134606D1F4E056780132C3
:1028E0003EB1994500F0EF8058785A1C531C0028DF
:1028F000F4D1C8EB0209C9EB0505202625EAE575E8
:10290000002F67D0B9F1000F2ADD4746DBF8000041
:10291000C1446FEA080E17F8011B09EB0E0C83681F
:1029200058460CF0010898474F4519D0B8F1000FF0
:1029300004D0DBF8002017F8011B0CE0DBF80000E6
:10294000B84618F8011B826858469047DBF800200B
:10295000797808F101079368584698474F45EDD1BB
:10296000002D3FF4F7AEDBF800706B1EBA681D4611
:102970005846314603F001079047002D3FF4EAAE78
:1029800047B1DBF8001058468B6831469847013D47
:102990003FF4E0AEDBF800003146826858469047CD
:1029A000DBF80010013D8B68584631469847013DE1
:1029B000F0D1CFE60298DDF804900268011D029183
:1029C0008DF80C202026D046C9EB050525EAE575D3
:1029D000002F97D16D42002D94D098F800102D292A
:1029E00065D0DBF80010EA438B685846314602F0A8
:1029F00001079847013585D047B1DBF800105846EC
:102A00008A683146904701353FF47CAFDBF800001F
:102A10003146836858469847DBF8001001358A68CC
:102A20005846314690470135F0D16BE71022029BA2
:102A300069B1191D029119685046FFF741FED04651
:102A4000CAEB0009C0E70A22029B0029F1D1181D38
:102A500019680290F0E70822E9E7029B1A1DD9B92C
:102A60001968029200291BDB50460A22FFF728FE54
:102A7000D046CAEB0009A7E78DF80C30DDF80490CA
:102A8000D046A1E76B783026013585E6A51CA378F2
:102A900001277AE60121A0E6196802920029E3DA0B
:102AA0002D208DF80C0049420DF10D00DDE7302E90
:102AB00097D1DBF800705846BB68984708F10108C9
:102AC00009F1FF398DE7C8EB090920267CE7B146FB
:102AD000202679E7AFF30080AFF30080AFF30080EA
:102AE0004FF48053C4F2010310B49C680B46A10458
:102AF000024605D40548064923B110BCFFF718BEAD
:102B000010BC704710BCFFF713BE00BF600E002062
:102B1000F0330008AFF30080AFF30080AFF3008024
:102B200038B54E2505FB01F504462B492B482A46AE
:102B3000FFF7FEFD34B1012C2CD0022C3ED0032C2B
:102B400014D038BD26480221FEF732FD2146244824
:102B5000FEF72EFDADB222482A460321FEF700FD06
:102B60001F4801212A46FEF7FBFC38BD02211C4804
:102B7000FEF71EFDADB201211948FEF719FD2146F1
:102B80002A461748FEF7ECFC154800212A46FEF7B6
:102B9000E7FC38BD03211248FEF70AFDADB221461D
:102BA0000F48FEF705FD2A4602210D48FEF7D8FC26
:102BB0000B4800212A46FEF7D3FC38BD0848032104
:102BC000FEF7F6FCADB206480021FEF7F1FC214607
:102BD0002A460348C2E700BFF4330008600E002015
:102BE0004C0E0020AFF30080AFF30080AFF3008005
:102BF00038B54FF48053C4F201039868430441D4BC
:102C0000FF252A4625492648FFF792FD2946002040
:102C1000FFF786FF6C1E6420FEF732F922461F493B
:102C20001F48FFF785FD21460020FFF779FF64204C
:102C3000FEF726F9023D002CE3D10022174918487F
:102C4000FFF776FD00210220FFF76AFF6420FEF700
:102C500017F9002211491248FFF76AFD00210320ED
:102C6000FFF75EFF6420FEF70BF900220B490C48CA
:102C7000FFF75EFD00210120FFF752FF6420FEF701
:102C8000FFF838BD07480849084A0823FEF718FC32
:102C90000749064A0248FFF74BFDF3E73C340008BA
:102CA000600E0020180E002000340008881100205B
:102CB00030340008AFF30080AFF30080AFF3008042
:102CC00010B54FF44064C4F201044FF480738021C6
:102CD000236108486161FFF703FFE268FA2082F48C
:102CE0008073E360E16881F08002E260FEF7C8F87B
:102CF000F3E700BF44340008AFF30080AFF3008077
:102D000069646C6500000000000000000000000025
:102D100053562331000000005356233200000000B8
:102D200053562333000000005356233400000000A4
:102D30005356233500000000535623360000000090
:102D4000535623370000000053562338000000007C
:102D50005356233900000000535623313000000041
:102D60005356233131000000000000000000000035
:102D700022636856545365744922282900000000D4
:102D800022636856545265736574492228290000ED
:102D90006368565452657365744928292C20233181
:102DA0000000000000000000000000000000000023
:102DB000636853636852656164794928292C20232C
:102DC00031000000737461636B206F766572666C0E
:102DD0006F7700000000000000000000000000000D
:102DE00022636854686443726561746549222829C6
:102DF000000000002263685468645365745072696F
:102E00006F72697479222829000000006368546891
:102E100064526573756D6528292C202331000000EC
:102E2000226368546864536C656570222829000029
:102E30006368546864457869745328292C202331C9
:102E40000000000022636854686457616974222896
:102E50002900000063685468645761697428292C4C
:102E60002023310063685468645761697428292CF1
:102E700020233200000000000000000000000000DD
:102E80006D61696E0016C01104044C080C10141812
:102E90001C2021222324000000000000000000006C
:102EA0002263684D7478496E6974222829000000F5
:102EB0002263684D74784C6F636B5322282900009D
:102EC00063684D74784C6F636B5328292C20233131
:102ED0000000000063684D74784C6F636B532829C1
:102EE0002C202332000000002263684D7478547255
:102EF000794C6F636B5322282900000063684D747E
:102F000078556E6C6F636B28292C202331000000EC
:102F100063684D7478556E6C6F636B28292C202381
:102F20003200000063684D7478556E6C6F636B53AC
:102F300028292C202331000063684D7478556E6C6D
:102F40006F636B5328292C202332000000000000FF
:102F500022636845767452656769737465724D6162
:102F6000736B222829000000226368457674556E31
:102F70007265676973746572222829002263684547
:102F800076745369676E616C49222829000000003D
:102F90002263684576745369676E616C2228290044
:102FA00022636845767442726F6164636173744D25
:102FB00061736B492228290022636845767444694D
:102FC0007370617463682228290000006368457685
:102FD00074446973706174636828292C202331005C
:102FE00022636849515265616454696D656F7574F7
:102FF000222829002263684F515772697465546909
:103000006D656F7574222829000000000000000023
:1030100022616463537461727422282900000000E5
:10302000616463537461727428292C202331000079
:103030002261646353746F702228290061646353B2
:10304000746F7028292C20233100000022616463F2
:103050005374617274436F6E76657273696F6E49F3
:10306000222829006164635374617274436F6E7621
:10307000657273696F6E4928292C20233100000086
:103080002261646353746F70436F6E766572736907
:103090006F6E22282900000061646353746F7043CF
:1030A0006F6E76657273696F6E28292C202331004C
:1030B0002261646353746F70436F6E7665727369D7
:1030C0006F6E49222829000061646353746F704356
:1030D0006F6E76657273696F6E4928292C202331D3
:1030E00000000000616463436F6E76657274282986
:1030F0002C2023310000000022616463416371755C
:103100006972654275732228290000002261646398
:1031100052656C6561736542757322282900000051
:103120002270776D537461727422282900000000A8
:1031300070776D537461727428292C20233100003C
:103140002270776D53746F702228290070776D5349
:10315000746F7028292C2023310000002270776DB5
:103160004368616E6765506572696F642228290043
:1031700070776D4368616E6765506572696F64282A
:10318000292C2023310000002270776D456E61628A
:103190006C654368616E6E656C2228290000000032
:1031A00070776D456E61626C654368616E6E656CCB
:1031B00028292C202331000070776D4469736162E7
:1031C0006C654368616E6E656C28292C2023310084
:1031D00022736453746172742228290073645374D7
:1031E00061727428292C202331000000227364535B
:1031F000746F702228290000736453746F7028293B
:103200002C20233100000000227364496E636F6D2F
:10321000696E6744617461492228290022736452EF
:1032200065717565737444617461492228290000D1
:103230003116000811160008711600085116000812
:103240006116000841160008211600080116000842
:1032500022646D6153747265616D416C6C6F636162
:10326000746522282900000022646D615374726520
:10327000616D52656C65617365222829000000004C
:10328000646D6153747265616D52656C65617365DF
:1032900028292C202331000000000000000000003D
:1032A000080002400400024000000B001C00024025
:1032B0000400024004010C003000024004000240FF
:1032C00008020D0044000240040002400C030E00FE
:1032D000580002400400024010040F006C0002403D
:1032E0000400024014051000800002400400024067
:1032F00018061100080402400404024000073800C8
:103300001C04024004040240040839003004024056
:103310000404024008093A00440402400404024044
:103320000C0A3B005804024004040240100B3C000D
:103330006164635F6C6C645F737461727428292CC0
:103340002023310000000000000000000000000009
:103350000402040808000307080808080808080809
:103360000B0F000000000000000000000000000043
:1033700070776D5F6C6C645F737461727428292C54
:1033800020233100000000000000000000000000C9
:103390000096000000000040000000000000000057
:1033A000FFFFFFFF448B87334B444444FFFFFFFF85
:1033B00033448438F3B8BB383FFFFFFFB8884488F4
:1033C000888B8B44FFFFFFFF8888B8384B488B8879
:1033D000FFFFFFFF888888888888884400000000F5
:1033E000286E756C6C2900000000000000000000D1
:1033F000257300002564200A0D0000000000000075
:103400000100020000000000000000000000800039
:1034100000011C000000000000001000000000007F
:10342000500000000000000000000000000000004C
:10343000616463203D200A0D000000002564202007
:10344000000000000A0D48656C6C6F20776F726C8D
:0834500064210A0D00000000D8
:10345800204E00000A0000000000000001000000EB
:103468000000000001000000000000000100000052
:103478000000000001000000000000000000000043
:043488000000000040
:0400000508000241AC
:00000001FF
