:020000040800F2
:1000000000040020D1010008A1030008A10300089A
:10001000A1030008A1030008A1030008A103000830
:10002000A1030008A1030008A1030008D1030008F0
:10003000A1030008A1030008A1030008B1040008FF
:10004000A1030008A1030008A1030008A103000800
:10005000A1030008A1030008A1030008A1030008F0
:10006000A1030008A1030008A1030008A1030008E0
:10007000A1030008A1030008A1030008A1030008D0
:10008000A1030008A1030008A1030008A1030008C0
:10009000A1030008A1030008A1030008A1030008B0
:1000A000A1030008A1030008A1030008A1030008A0
:1000B000A1030008A1030008A1030008A103000890
:1000C000A1030008A1030008A1030008A103000880
:1000D000A1030008A103000861170008A10300089C
:1000E000A1030008A1030008A1030008A103000860
:1000F000A1030008A1030008A1030008A103000850
:10010000A1030008A1030008A1030008A10300083F
:10011000A1030008A1030008A1030008A10300082F
:10012000A1030008A1030008A1030008A10300081F
:10013000A1030008A1030008A1030008A10300080F
:10014000A1030008A1030008A1030008A1030008FF
:1001500010B582B001F0F4F800F02AFA40F67C50B5
:100160000021C2F2000001F073F9002441F6C153EE
:1001700040F62870F0214022C0F600030094C2F23D
:10018000000000F0F5FD40F6F85041F601630094E0
:100190004FF498714022C0F60003C2F2000000F054
:1001A000E7FD204602B010BDAFF30080AFF3008042
:1001B000704700BFAFF30080AFF30080AFF3008063
:1001C000FEE700BFAFF30080AFF30080AFF3008025
:1001D00072B6644C84F30988022383F31488BFF356
:1001E0006F8F61486149884218D2CA1C051D531B94
:1001F00023F00302034610184FF055318342196073
:10020000C2F380020AD01AB185422B46296005D07C
:100210001D1D5960083383426960F9D15448A042DA
:1002200018D25449041D0A1B22F00305034628185E
:100230004FF0553183421960C5F380020AD01AB1DC
:1002400084422346216005D01D1D59600833834236
:100250006960F9D101F08CFB4749484881421BD2C3
:10026000C61C0C1D321B464822F00302161D0568F1
:100270000423B3420D60C2F380020DD022B1456861
:100280000823B342256007D01D581A1D5D508458BD
:100290000833B3428C50F7D13A483B49884217D2D1
:1002A000CB1C041D1A1B22F003050346281800214D
:1002B00083421960C5F380020AD01AB184422346F2
:1002C000216005D01D1D5960083383426960F9D152
:1002D000FFF76EFF2D4D2E498D421DD2CC1C2E1DD9
:1002E000A71BB808471C01242A6800EA04089047A5
:1002F000BC4211D0B8F1000F05D0336802249847F2
:10030000BC42354608D0696888470234A8682E1D6B
:1003100080470835BC42F6D1FFF71AFF1D4D1E4A33
:1003200095421DD2D41C2E1DA71BBB085F1C0124A7
:10033000296803EA04088847BC4211D0B8F1000FCD
:1003400005D0306802248047BC42354608D06A6830
:1003500090470234AB682E1D98470835BC42F6D151
:10036000FFF72EFF000800200000002000040020FE
:1003700000040020030800200008002000080020DE
:10038000502200080008002018100020500100082A
:10039000500100085001000850010008AFF3008030
:1003A000FEE700BFAFF30080AFF30080AFF3008043
:1003B00072B6FEE7AFF30080AFF30080AFF30080CA
:1003C00000F086F900F044FC00F09AF900DF00BF6D
:1003D000EFF30983203383F30988002383F3118823
:1003E000704700BFAFF30080AFF30080AFF3008031
:1003F00008B54FF440724FF46D43CEF20003C0F2E3
:10040000FA520021996007201021DA6000F0A8F864
:100410000A204FF4007100F0A3F80B208021BDE802
:10042000084000F09DB800BFAFF30080AFF300803C
:10043000202383F311884FF46D43CEF200035868F4
:1004400010F400631AD0EFF30983A3F1200282F3C2
:10045000098811494FF080708A6943F8040C92F8BA
:10046000230009689268896858B1914294BF0022BC
:10047000012262B1094A43F8082C704783F31188BE
:100480007047914234BF00220122002AF2D1044871
:1004900043F8080C704700BF340D0020C10300086A
:1004A000CC030008AFF30080AFF30080AFF300800F
:1004B00008B500F07DF9202383F3118800F040F99E
:1004C00000F0B6F800F054F9002383F3118800F02F
:1004D0008FF9BDE80840FFF7ABBF00BFAFF3008066
:1004E0002DE9F04FC1F80CD0D0F80CD0BDE8F08F5A
:1004F00008B500F005F9002383F311882846A047CA
:1005000000F0C6FC08BD00BFAFF30080AFF3008071
:1005100000F0030370B4DA00FF2505FA02F500F0DD
:100520001F0401FA02F1012202FA04F24FF46143BE
:100530008408CEF20003C03453F82460400926EA50
:1005400005050D4300F1600643F8245043F82620CA
:1005500043F8202070BC7047AFF30080AFF30080F9
:1005600000F0030310B4FF22DC0002FA04F201FAE7
:1005700004F180084FF46D43CEF20003063053F8C7
:10058000204024EA02020A4343F8202010BC7047AE
:10059000024B034A98698261FEE700BF340D0020D8
:1005A000401E0008AFF30080AFF30080AFF300807F
:1005B00030B583B0FFF71CFF00F00AFA00F0A0F995
:1005C00000F066FE00F0ACFE00F062F940F60000BC
:1005D0004021C2F2000000F04BFB40F20043C2F2A7
:1005E0000003012540F63454C361C2F2000480F8D0
:1005F0002050A06100F054F8002383F3118862B604
:1006000041F6C071A269C0F60001916140F6500048
:10061000009340F29153C0212A46C0F60003C2F273
:10062000000000F0A5FB03B030BD00BFAFF30080B9
:10063000F8B500F0FDF8164B986990F8232012B138
:10064000511E80F82310446A124D631C4362E8680F
:100650002C68421CAC42EA6018D0A768013FA76032
:10066000A7B92168E6684D60E760296000F080F86E
:10067000002383F311882069B047202383F3118876
:1006800000F05EF82C68A368002BEAD0F8BD00BF2C
:10069000340D0020240D0020AFF30080AFF3008064
:1006A000054B186810B905490A6822B10448054B82
:1006B0001860FFF77DBE7047100900201C0D002058
:1006C000601E0008200D0020AFF30080AFF3008013
:1006D000074B10B51868074C08B9216821B1064AC4
:1006E000064B1A60FFF764FE0120206010BD00BFBA
:1006F000100900201C0D0020681E0008200D00209D
:10070000084B10B51868084C28B92168002902DD8B
:100710000020206010BD054A054B1A60FFF748FE17
:10072000F6E700BF100900201C0D0020701E000815
:10073000200D0020AFF30080AFF30080AFF3008006
:10074000074B10B51868074C002801DD216821B15E
:10075000054A064B1A60FFF72BFE0120206010BDF2
:10076000100900201C0D0020781E0008200D00201C
:10077000084B10B51868084C002805DD21680029D1
:1007800002DD0020206010BD044A054B1A60FFF70F
:100790000FFEF6E7100900201C0D0020801E000847
:1007A000200D0020AFF30080AFF30080AFF3008096
:1007B00010B5202383F31188094C2168002902DB3E
:1007C000084A106828B10849084B1960FFF7F0FD86
:1007D00021684A1C2260002383F3118810BD00BFEA
:1007E000100900201C0D0020881E0008200D00208C
:1007F00010B5202383F31188094C2168002902DDFC
:10080000084A106828B10849084B1960FFF7D0FD65
:1008100021684A1E2260002383F3118810BD00BFA7
:10082000100900201C0D0020901E0008200D002043
:10083000064B1868002804DB05490A68002A00DD19
:1008400070470448044B1860FFF7B2BD1009002040
:100850001C0D0020981E0008200D0020AFF3008022
:10086000064B186820B906490A68002A00DD70475F
:100870000448054B1860FFF79BBD00BF100900201E
:100880001C0D0020A01E0008200D0020AFF30080EA
:1008900040F61413C2F200031A46402142F8081B26
:1008A0005A607047AFF30080AFF30080AFF3008071
:1008B0000C4910B40C4ACC680C49536889691C6017
:1008C0005960846A03F110019C6090F8204002F5A1
:1008D000816081421C732ABF02F10803516053609A
:1008E00010BC7047240D002014090020340D002096
:1008F00040F62053C2F200031860FFF759BD00BF55
:1009000040F62453C2F200034FF0FF3200205B6038
:100910001B609A60D8607047AFF30080AFF300802F
:10092000F8B505460C4616461F46FFF781FFCDB1C8
:10093000C6B1BCB10D492F610B68EE609A68944254
:1009400004D91B68A41A9A68A242FAD358688B4249
:100950002B60686005605D60AC6002D099680C1B1C
:100960009C60F8BD0248FFF7C3FFE3E7240D0020B9
:10097000B01E0008AFF30080AFF30080AFF300803B
:1009800010B50446FFF754FF84B1E36893B12068C3
:100990000A4A904203D08168A368CA1882606268DC
:1009A000002110602068E160426010BD0448FFF73C
:1009B0009FFFEAE70348FFF79BFFE8E7240D0020CD
:1009C000C01E0008D01E0008AFF30080AFF3008007
:1009D00040F63453C2F2000300225B601B609A6051
:1009E0005B611B61704700BFAFF30080AFF3008015
:1009F00010B50446FFF71CFF94F820308BB10E2B86
:100A00000FD00022A168094884F82020006883687C
:100A10008B42FBD24168206061600C6044602046DC
:100A200010BD0348FFF764FFEBE700BF340D002063
:100A3000F01E0008AFF30080AFF30080AFF300803A
:100A400010B52023044683F31188FFF779FE94F84C
:100A500020300D2B11D8DFE803F016101007100B13
:100A6000101010101010100BA06A8268511C8160C9
:100A700094E80C001A60206843604FF0FF33A362D3
:100A80002046FFF7B5FFFFF773FE002383F31188BD
:100A900010BD00BFAFF30080AFF30080AFF3008064
:100AA00070B5114C0646FFF7DBFE2368A5691A688E
:100AB00014210120546085F8206085F8231083F804
:100AC000200028462260A361FFF7F2FEEB69ADF13A
:100AD0002402934202D90548FFF70AFFA06929467C
:100AE000BDE87040FFF7FCBC340D0020041F000877
:100AF00070B50C4686B00646FFF7B2FE631C12D0F6
:100B00000B4D2146AB690B4A01A8FFF709FF3046A0
:100B1000FFF7C6FF049B13B101A8FFF731FFA869D7
:100B2000806A06B070BD3046FFF7BAFF004DF6E7A9
:100B3000340D0020410A0008AFF30080AFF30080BD
:100B400070B5144D04460E46FFF78AFEA869A268E8
:100B50008368A6629A4213D9FFF74AFF012106462D
:100B600084F82010AC61FFF7A3FEF069ADF1240218
:100B700090420AD820463146BDE87040FFF7B0BC2D
:100B80002046BDE87040FFF733BF0348FFF7B0FED3
:100B9000F0E700BF340D0020041F0008AFF3008011
:100BA00038B5104C01212368A5691A6814205460D7
:100BB00083F8201085F8230028462260A361FFF700
:100BC00017FF2846FFF774FEEB69ADF1240293424C
:100BD00002D90548FFF78CFEA0692946BDE83840D8
:100BE000FFF77EBC340D0020041F0008AFF3008027
:100BF00070B5144E01213368B5691A680020AC68DD
:100C0000566083F820103260B36185F8200000E060
:100C10001B689A68A242FBD859682B606960284615
:100C20005D600D60FFF744FEEB69ADF12400834287
:100C300002D90548FFF75CFEB0692946BDE870405F
:100C4000FFF74EBC340D0020041F0008AFF30080F6
:100C5000044B986990F8231009B1FFF7C9BFFFF75B
:100C60009FBF00BF340D0020AFF30080AFF30080C2
:100C70002DE9F00140F63454C2F200046569002207
:100C8000046100F13006816000F12C0C00F14C078A
:100C900045614FF00208606141641424012180F82D
:100CA000208080F8212080F823400264C2634262E1
:100CB00080F8221082612861C0F82CC04663066368
:100CC000C761BDE8F0017047AFF30080AFF300806B
:100CD0002DE9F04704460D4690469946FFF7A8FDDA
:100CE0000CB1AF2D35D81E48FFF702FE1D4EA5F101
:100CF0002403E7187169E76044F80390089B002516
:100D00007B60194B04F130023B62022384F82030EF
:100D1000142304F12C0A04F14C0C84F82330012331
:100D20002661C4F8088061612046746184F821500E
:100D3000C4F844802564E563656284F82230A561C7
:100D40000C61C4F82CA062632263C4F81CC0BDE827
:100D5000F087B8F17F0FC6D8B9F1000FC6D1C2E74E
:100D6000201F0008340D0020F1040008AFF30080BC
:100D70002DE9F04F9B4683B080468946924600F1AC
:100D80004C0300F1010400F14D07FF26254604F84D
:100D9000016C05F8016B6C1CBC42F7D108EB09072C
:100DA000BB4215D218465526DA4300F8016BB91834
:100DB000B84201F001030BD01BB100F8016BB8423F
:100DC00006D0054605F8016B4670681CB842F8D19C
:100DD000202383F31188FFF77BFC0C9C5B46524673
:100DE000494600944046FFF773FF00210446FFF791
:100DF000A7FEFFF785FC002383F31188204603B08C
:100E0000BDE8F08FAFF30080AFF30080AFF3008058
:100E100010B5044610B90948FFF76AFD202383F393
:100E20001188FFF755FC21460620FFF761FEFFF70A
:100E300067FC002383F3118810BD00BF601F00080A
:100E400038B5104B9C69254655F82C1FA062A94265
:100E500007D00A680846E262FFF7CAFDE16AA942C4
:100E6000F7D194F82100830704D1636922691A61DC
:100E700021694B610E20FFF713FE0348BDE838409F
:100E8000FFF736BD340D0020701F0008AFF300805F
:100E900010B52023044683F31188FFF719FC204680
:100EA000BDE81040FFF7CCBFAFF30080AFF3008088
:100EB00010B5044620B1002364602460A36010BD17
:100EC0000148FFF715FDF6E7E01F0008AFF30080CB
:100ED00038B504460D46FFF7ABFCC4B1E26B94F89D
:100EE000203045EA0201082BE1630CD0092B00D029
:100EF00038BDA06A01408842FAD12046FFF778FD4C
:100F00000023836238BDA26A1142F6D138BD02487F
:100F1000FFF7EEFCE2E700BFBC200008AFF3008063
:100F200070B505460E46FFF783FC6DB12C68A542EF
:100F300009D0E36860683343E360A168FFF7C8FF46
:100F40002468A542F5D170BD0148FFF7D1FCEDE75B
:100F5000E0200008AFF30080AFF30080AFF3008023
:100F600010B4024659B1084B0D209B699A6254682F
:100F700083E814005360236010BCFFF7B9BD4FF045
:100F8000FF3010BC704700BF340D0020AFF300806D
:100F900010B4C361019B8A18002440600060846023
:100FA00041618161C1600261036210BC704700BF92
:100FB00038B504460D46FFF73BFC6369A269A0689B
:100FC00093421AD0411CA16003F8015B226963615E
:100FD00093420BD22068A0420DD0016821604C6082
:100FE000FFF706FD00228262104638BD2068E368E4
:100FF000A0426361F1D1002038BD0028E2D06FF03B
:10100000030038BDAFF30080AFF30080AFF3008082
:10101000F8B504460E46202383F31188FFF758FBEA
:10102000E3690BB120469847A5682046314655B97B
:10103000FFF796FF071EF7DAFFF762FB2B4683F3F5
:1010400011883846F8BDA069013DA56010F8017B04
:101050002269A061904224BFE068A061FFF750FBC5
:10106000002383F311883846F8BD00BFAFF300803A
:101070002DE9F0470446154688461E46C769002AF2
:101080003AD0202383F31188FFF722FB08F1010AED
:101090004FF00009A8440FB12046B847A568204684
:1010A00031465DB9FFF75CFF0028F7D0FFF728FB5A
:1010B0002B4683F311884846BDE8F087A369013DBC
:1010C000A56013F8012B0AF8012C2069A361834263
:1010D00024BFE368A361FFF713FB002383F31188A8
:1010E000C24509F10109E6D0202383F31188FFF7F7
:1010F000EFFA0AF1010ACEE70148FFF7F9FBC0E772
:1011000020210008AFF30080AFF30080AFF3008030
:1011100010B4C361019B8C18406000608260416123
:101120008161C1600461036210BC7047AFF300804D
:101130002DE9F041202304468846164683F31188A2
:10114000FFF7C6FAA568204631465DB9FFF708FFEC
:10115000071EF7DAFFF7D4FA2B4683F311883846D7
:10116000BDE8F0816369013DA56003F8018B226948
:101170006361934228BFE368E16928BF636109B1F5
:1011800020468847FFF7BCFA002383F311881F46E7
:101190003846BDE8F08100BFAFF30080AFF30080B8
:1011A00038B50446FFF744FBA3696269A0689A4218
:1011B00016D0411CA16013F8015B2269A361934220
:1011C0000BD22068A04206D0016821604C60FFF776
:1011D0000FFC00228262284638BDE368A361F0E775
:1011E0000028E6D06FF0020038BD00BFAFF30080EA
:1011F0002DE9F0470446164688469A46D0F81C90DA
:10120000002A39D0202383F31188FFF761FA0027E1
:10121000A56820466B1E0DB3A360656918F8011B15
:1012200005F8011B22696561954224BFE26862618D
:10123000B9F1000F00D0C847FFF762FA002383F32B
:1012400011880137013E14D0202383F31188FFF762
:101250003FFAA56820466B1E002DDDD12046514681
:10126000FFF77EFE0028D3D0FFF74AFA2B4683F320
:1012700011883846BDE8F0870148FFF739FBC1E720
:1012800034210008AFF30080AFF30080AFF300809B
:1012900040F20001084840F6545240F65053C2F262
:1012A0000101C2F2000220F00700C2F2000321F0A7
:1012B00007011060196070471F100020AFF3008015
:1012C00010B50446FFF7B4FA074A084913680968DD
:1012D000E01D20F00700C91A88429ABF1818106054
:1012E0000023184610BD00BF540D0020500D0020F3
:1012F00010B52023044683F31188FFF7E9F920464F
:10130000FFF7DEFF0446FFF7FBF9002383F31188A4
:10131000204610BDAFF30080AFF30080AFF3008034
:1013200040F65853C2F2000341F2F1210022C0F608
:10133000000103F1100019609A60DA60FFF7B8BD90
:1013400008B500F01DF900F0F3F842F2E010C0F625
:10135000000000F0B5F900F04BF8BDE8084000F0DF
:101360000FBB00BFAFF30080AFF30080AFF300808E
:101370000C30FFF77DBE00BFAFF30080AFF30080FD
:101380000C304FF0FF33FFF773BE00BFAFF30080A8
:101390003030FFF72DBF00BFAFF30080AFF3008008
:1013A00030304FF0FF33FFF723BF00BFAFF30080B3
:1013B0000C30FFF72DBE00BFAFF30080AFF300800D
:1013C0000C304FF0FF31FFF723BE00BFAFF30080BA
:1013D0003030FFF7ADBE00BFAFF30080AFF3008049
:1013E00030304FF0FF32FFF7A3BE00BFAFF30080F5
:1013F00000F066BAAFF30080AFF30080AFF3008077
:1014000070B50B4642F2B0110546C0F60001044625
:1014100045F8041B82B065600125164604F15401AD
:101420001022257200F10C000094FFF7B1FD00942A
:1014300004F1300004F1640110223346FFF768FE26
:1014400002B070BDAFF30080AFF30080AFF3008057
:1014500038B504460D46B8B1202383F31188FFF751
:1014600037F9237A581E012802D90948FFF740FAB4
:101470002046294600F03CFA02212172FFF740F98C
:10148000002383F3118838BD0248FFF731FAE3E700
:101490005C21000850210008AFF30080AFF300800A
:1014A00038B504460D46FFF7C3F9D4B163693BB1C3
:1014B00004F10C002946FFF77BFD00280BDB38BD4B
:1014C000201D0421FFF72CFD04F10C002946FFF735
:1014D0006FFD0028F3DA201D8021BDE83840FFF7BA
:1014E0001FBD0248FFF704FAE0E700BF88210008AB
:1014F0004FF48053CEF2000359688160704700BFFB
:101500004FF48053CEF20003084982685B68096893
:101510009B1AC268591A9142816004D803699942A2
:1015200038BF01617047C160704700BF780D00206F
:1015300010B540F6785486B00022C2F200044FF095
:10154000FF304FF48053226004920590CEF20003E6
:10155000596841F2F14241F2015301A8C0F600027C
:10156000C0F60003019202930391FFF7C9FF0398AD
:10157000206006B010BD00BFAFF30080AFF3008065
:101580004FF4805330B4C4F2020300214FF0FF3413
:1015900018694EF210021C611961DD68CEF200027A
:1015A000DC6048F69F44D9604EF6F050546091607C
:1015B00007211160CEF20000C2684FF4805142F062
:1015C0008072C260CEF2000108684FF4E04240F041
:1015D00001000860D969C4F2000241F08050D8616E
:1015E000D96941F00060D861136843F480711160DB
:1015F00030BC7047AFF30080AFF30080AFF30080E2
:101600004FF48053C4F202031A68194642F00100F5
:1016100018600A684FF480539007C4F20203F8D5AB
:10162000002159601868194600F0F9021A604868EC
:101630004FF4805310F00C0FC4F20203F7D11A6874
:10164000194642F4803018600A684FF480539203C0
:10165000C4F20203F8D548F24461D9621868194609
:1016600040F080621A6008684FF480530001C4F2B1
:101670000203F8D55A68194642F4E01058601A6817
:1016800042F0807018600A684FF480539201C4F2EF
:101690000203F8D54FF4C8414FF40050C0F21C01CA
:1016A000C4F202001122596002605968184641F0E4
:1016B00002025A60436803F00C010829FAD170470E
:1016C0004FF48053C4F202039A6910B442F07D01D2
:1016D000996104684FF40062C4F20102D460816829
:1016E0004FF4406351604468C4F201031460C2685F
:1016F0004FF48051DA604469C4F201015C6004690E
:101700004FF4A0521C608369C4F20102CB60046AEA
:101710004FF4C0534C60C469C4F201030C60416AC9
:10172000D160C16A5160816A1160026BDA60816BBD
:101730005960406B186010BC704700BFAFF3008069
:101740004FF48843C4F200039A8990B240F08001BC
:1017500099817047AFF30080AFF30080AFF3008052
:10176000F8B5514FFFF724F87D6FAE892C88B6B2DB
:10177000A4B204F4807398B2002862D1202383F3CA
:101780001188FEF7DDFF04F020018AB25AB928E083
:10179000A9884548C9B2FFF783FE288884B204F0BF
:1017A00020039AB2EAB12307F2D004F0080398B2FA
:1017B00004F00202002814BF8021002193B214F02B
:1017C000010F04F00404394818BF41F02001A2B20F
:1017D0000BB141F040010AB141F48071FFF7A0FB69
:1017E000D6E7FEF7C5FF002383F3118806F08001DA
:1017F00088B220B104F080039AB2002A37D104F0F5
:101800004004A4B2BCB1202383F31188FEF798FFF3
:1018100026481021FFF784FBFEF7AAFF002383F37D
:1018200011884FF6BF723240AA81298821F040000A
:1018300003041A0C2A80FEF7DBFFBDE8F840FEF730
:10184000F7BD202383F31188FEF77AFF381D4FF48C
:101850000071FFF765FBFEF78BFF002383F3118810
:10186000298821F480721304180C288086E720232D
:1018700083F31188FEF764FF0D48FFF791FC002801
:1018800007DB81B2A980FEF773FF002383F3118881
:10189000B5E706480821FFF743FB26F0C00040F0FB
:1018A0004003AB81EFE700BF7C0D0020800D0020DE
:1018B000AC0D0020AFF30080AFF30080AFF30080E9
:1018C00010B540F67C54C2F2000441F24172204649
:1018D0000021C0F60002FFF793FD4FF48843C4F2E5
:1018E0000003636710BD00BFAFF30080AFF300805B
:1018F00038B5037A1B4C0546002918BF0C46012B4E
:101900001FD020684AF68001C0F212116B6FB1FB44
:10191000F0F290B21881A288E088218942F4045242
:1019200040F0400080B241F0010142F02C021882E8
:1019300092B289B2002099829A8118801A889B8875
:1019400038BD09488542DCD14FF48051C4F2020110
:10195000CA69262042F40033CB61C021FEF7D8FDCE
:10196000CFE700BFD02100087C0D0020AFF300803E
:10197000FFF746BEAFF30080AFF30080AFF3008007
:10198000704700BFAFF30080AFF30080AFF300807B
:10199000F0B400F10B0C074600F10A050C46B1FB50
:1019A000F2F602FB161101F13003392BC8BF01F129
:1019B0003703DBB2B4FBF2F42846314605F80139AF
:1019C000002CECD1C0EB0C020146B818FA43821887
:1019D000D2070AD507F8013B11F8013F05E011F8DD
:1019E000013F7B7011F8013F571C3A4602F8013B5A
:1019F0008242F4D1F0BC7047AFF30080AFF30080B7
:101A00002DE9F04F89B005AB0DF1150C0546C3EB80
:101A10000C000293CDF804C00C4693460390264672
:101A200016F8011B59B125290CD02C682846A3684B
:101A300034462646984716F8011B0029F3D109B011
:101A4000BDE8F08F63782D2B00F084814FF0000803
:101A50002E2B00F06581302B00F062812027344668
:101A6000002608E09BF800100BF1040B06EB86063D
:101A7000237801EB4606A3F13002D1B201340929E3
:101A8000F4D92A2BEED02E2B00F04E8100216C2BA6
:101A900000F03F814C2B00F03C81A3F1440034283E
:101AA00000F23081DFE810F01E012E012E012E0120
:101AB0002E011E012E012E012E012E012E011C01D0
:101AC0002E012E012E012E012E011A012E012E01B2
:101AD0000B012E012E012E012E012E012E012E01B1
:101AE0002E012E012E01CE001E012E012E012E01EF
:101AF0002E011E012E012E012E012E012E011C0190
:101B00002E012E012E0135002E011A012E012E016B
:101B10000B01DBF8007042F22029C0F60009002F0B
:101B200018BFB94699F8003047F6FF720BF1040B65
:101B3000002908BF1146002B00F0238109EB0100AA
:101B400099F801706FEA09010B1803F0010209F11D
:101B5000010AD7B18245534617D07AB19AF80110DD
:101B60000AF1010A89B18245534607D10DE09AF87E
:101B700001100AF1010A41B1824506D003F1010AC0
:101B80005F785246531C002FF1D1C9EB0A0ACAEB09
:101B90000606202726EAE676B8F1000F64D0BAF1EF
:101BA000000F27DDC846286818F8011BCA446FEAF1
:101BB000090E836828460AEB0E099847D04509F0BC
:101BC000010917D0B9F1000F03D02A6818F8011BDA
:101BD0000BE02868C14619F8011B82682846904727
:101BE0002A6898F8011009F1010893682846984777
:101BF000D045EED1002E3FF412AF2968731E8A68DB
:101C00001E462846394603F001089047002E3FF44F
:101C100006AFB8F1000F07D0296828468B6839460F
:101C20009847013E3FF4FBAE286839468268284653
:101C300090472968013E8B68284639469847013EFF
:101C4000F2D1ECE6DBF80000DDF80CA08DF8140012
:101C50000BF1040B20270DF11409CAEB060626EA46
:101C6000E676B8F1000F9AD17642002E97D099F817
:101C700000102D2973D0296828468A6839466FEAF2
:101C800006089047013608F0010888D0B8F1000F27
:101C900007D02B6828469A683946904701363FF4AA
:101CA0007EAF2868394683682846984729680136F8
:101CB0008A682846394690470136F2D16FE71022EC
:101CC000DBF8001005A8FFF763FEDDF808C00BF194
:101CD000040B0DF11409CCEB000ABEE70A22EFE772
:101CE0000822EDE7DBF800100BF1040B002941DBC3
:101CF00005A80A22FFF74CFE029B0DF11409C3EB65
:101D0000000AAAE78DF81430DDF80CA00DF11409D3
:101D1000A3E72278002A3FF4C0AE01341346BCE6A4
:101D20007378302701369AE62046002105E09BF8BB
:101D300000200BF1040B02EB490110F8013B01EB11
:101D40008109A3F13004E2B2092A0446F3D92A2B0F
:101D5000EDD09CE6A61CA3784FF0010878E6302F62
:101D600089D12A6828469368984709F101090AF140
:101D7000FF3A80E72D228DF8142049420DF115001D
:101D8000B7E79A46202768E7AFF30080AFF30080FB
:101D90000EB400B582B003AB53F8041B40F67C5080
:101DA000C2F200001A460193FFF72AFE02B05DF866
:101DB00004EB03B0704700BFAFF30080AFF30080C7
:101DC000F8B50B480B49FFF7E3FF4FF440644FF4BD
:101DD0008076C4F20104374680252761FA206561C8
:101DE000FFF716F86661FA202561FFF711F8F4E7AE
:101DF0007C0D002030220008AFF30080AFF300809C
:101E000008B50A480A49FFF7C3FF02E00949FFF78E
:101E1000BFFF4FF0FF310848FFF7FAF802460D2ADE
:101E20000248F3D10549FFF7B3FFF2E77C0D00202C
:101E3000442200084C220008880D00204822000897
:101E400069646C65000000000000000000000000F4
:101E50005356233100000000535623320000000087
:101E60005356233300000000535623340000000073
:101E7000535623350000000053562336000000005F
:101E8000535623370000000053562338000000004B
:101E90005356233900000000535623313000000010
:101EA0005356233131000000000000000000000004
:101EB00022636856545365744922282900000000A3
:101EC00022636856545265736574492228290000BC
:101ED0006368565452657365744928292C20233150
:101EE00000000000000000000000000000000000F2
:101EF000636853636852656164794928292C2023FB
:101F000031000000737461636B206F766572666CDC
:101F10006F770000000000000000000000000000DB
:101F20002263685468644372656174654922282994
:101F3000000000002263685468645365745072693D
:101F40006F72697479222829000000006368546860
:101F500064526573756D6528292C202331000000BB
:101F6000226368546864536C6565702228290000F8
:101F70006368546864457869745328292C20233198
:101F80000000000022636854686457616974222865
:101F90002900000063685468645761697428292C1B
:101FA0002023310063685468645761697428292CC0
:101FB00020233200000000000000000000000000AC
:101FC0006D61696E0016C01104044C080C101418E1
:101FD0001C2021222324000000000000000000003B
:101FE0002263684D7478496E6974222829000000C4
:101FF0002263684D74784C6F636B5322282900006C
:1020000063684D74784C6F636B5328292C202331FF
:102010000000000063684D74784C6F636B5328298F
:102020002C202332000000002263684D7478547223
:10203000794C6F636B5322282900000063684D744C
:1020400078556E6C6F636B28292C202331000000BB
:1020500063684D7478556E6C6F636B28292C202350
:102060003200000063684D7478556E6C6F636B537B
:1020700028292C202331000063684D7478556E6C3C
:102080006F636B5328292C202332000000000000CE
:1020900022636845767452656769737465724D6131
:1020A000736B222829000000226368457674556E00
:1020B0007265676973746572222829002263684516
:1020C00076745369676E616C49222829000000000C
:1020D0002263684576745369676E616C2228290013
:1020E00022636845767442726F6164636173744DF4
:1020F00061736B492228290022636845767444691C
:102100007370617463682228290000006368457653
:1021100074446973706174636828292C202331002A
:1021200022636849515265616454696D656F7574C5
:10213000222829002263684F5157726974655469D7
:102140006D656F75742228290000000000000000F2
:102150002273645374617274222829007364537467
:1021600061727428292C20233100000022736453EB
:10217000746F702228290000736453746F702829CB
:102180002C20233100000000227364496E636F6DC0
:10219000696E674461746149222829002273645280
:1021A0006571756573744461746149222829000062
:1021B000A113000881130008E1130008C1130008EF
:1021C000D1130008B113000891130008711300081F
:1021D0000096000000000040000000000000000029
:1021E000FFFFFFFF448B87484B444444FFFFFFFF42
:1021F0008844843883B8BB383FFFFFFFB8884488E1
:10220000888B8B44FFFFFFFF8888B8384B488B884A
:10221000FFFFFFFF888888888888884400000000C6
:10222000286E756C6C2900000000000000000000A2
:102230000A0D48656C6C6F20776F726C64210A0D13
:10224000000000003E0000000A0D3E002563000073
:04000005080001D11D
:00000001FF
