:020000040800F2
:1000000000040020A10B0008710D0008710D00080C
:10001000710D0008710D0008710D0008710D0008C8
:10002000710D0008710D0008710D0008A10D000888
:10003000710D0008710D0008710D0008810E000897
:10004000710D0008710D0008710D0008710D000898
:10005000710D0008710D0008710D0008710D000888
:10006000710D0008710D0008710D0008710D000878
:10007000710D0008710D0008710D0008710D000868
:10008000710D0008710D0008710D0008710D000858
:10009000710D0008710D0008710D0008710D000848
:1000A000710D0008710D0008710D0008710D000838
:1000B000710D0008710D0008710D0008710D000828
:1000C000710D0008710D0008710D0008710D000818
:1000D000710D0008710D000831210008710D000834
:1000E000710D0008710D0008710D0008710D0008F8
:1000F000710D0008710D0008710D0008710D0008E8
:10010000710D0008710D0008710D0008710D0008D7
:10011000710D0008710D0008710D0008710D0008C7
:10012000710D0008710D0008710D0008710D0008B7
:10013000710D0008710D0008710D0008710D0008A7
:10014000710D0008710D0008710D0008710D000897
:1001500010B582B001F0DCFD00F012FF40F67C50DB
:100160000021C2F2000001F05BFE002442F67103A0
:1001700041F2A800F0214022C0F600030094C2F230
:10018000000001F0DDFA40F6F85042F62103009439
:100190004FF42C714022C0F60003C2F2000001F0BF
:1001A000CFFA204602B010BDAFF30080AFF300805D
:1001B00081F0004102E000BF83F0004330B54FEA18
:1001C00041044FEA430594EA050F08BF90EA020F85
:1001D0001FBF54EA000C55EA020C7FEA645C7FEA18
:1001E000655C00F0E2804FEA5454D4EB5555B8BF3B
:1001F0006D420CDD2C4480EA020281EA030382EAAC
:10020000000083EA010180EA020281EA0303362D3D
:1002100088BF30BD11F0004F4FEA01314FF4801C10
:100220004CEA113102D0404261EB410113F0004F22
:100230004FEA03334CEA133302D0524263EB4303D9
:1002400094EA050F00F0A780A4F10104D5F1200E77
:100250000DDB02FA0EFC22FA05F2801841F10001D2
:1002600003FA0EF2801843FA05F359410EE0A5F1A6
:1002700020050EF1200E012A03FA0EFC28BF4CF0D7
:10028000020C43FA05F3C01851EBE37101F000458D
:1002900007D54FF0000EDCF1000C7EEB00006EEB9A
:1002A0000101B1F5801F1BD3B1F5001F0CD3490824
:1002B0005FEA30004FEA3C0C04F101044FEA44527B
:1002C00012F5800F80F09A80BCF1004F08BF5FEA02
:1002D000500C50F1000041EB045141EA050130BDE2
:1002E0005FEA4C0C404141EB010111F4801FA4F185
:1002F0000104E9D191F0000F04BF01460020B1FADA
:1003000081F308BF2033A3F10B03B3F120020CDA11
:100310000C3208DD02F1140CC2F10C0201FA0CF0EF
:1003200021FA02F10CE002F11402D8BFC2F1200C54
:1003300001FA02F120FA0CFCDCBF41EA0C0190400A
:10034000E41AA2BF01EB0451294330BD6FEA040453
:100350001F3C1CDA0C340EDC04F11404C4F120023E
:1003600020FA04F001FA02F340EA030021FA04F350
:1003700045EA030130BDC4F10C04C4F1200220FAA7
:1003800002F001FA04F340EA0300294630BD21FAE5
:1003900004F0294630BD94F0000F83F4801306BFAB
:1003A00081F480110134013D4EE77FEA645C18BF9F
:1003B0007FEA655C29D094EA050F08BF90EA020F36
:1003C00005D054EA000C04BF1946104630BD91EA2E
:1003D000030F1EBF0021002030BD5FEA545C05D131
:1003E0004000494128BF41F0004130BD14F5800470
:1003F0003CBF01F5801130BD01F0004545F0FE41E4
:1004000041F470014FF0000030BD7FEA645C1ABF18
:10041000194610467FEA655C1CBF0B46024650EA4F
:10042000013406BF52EA033591EA030F41F400217B
:1004300030BD00BF90F0000F04BF0021704730B501
:100440004FF4806404F132044FF000054FF00001D6
:1004500050E700BF90F0000F04BF0021704730B597
:100460004FF4806404F1320410F0004548BF40426C
:100470004FF000013EE700BF42004FEAE2014FEAC1
:1004800031014FEA02701FBF12F07F4393F07F4F9C
:1004900081F06051704792F0000F14BF93F07F4FCE
:1004A000704730B54FF4607401F0004521F0004111
:1004B00020E700BF50EA010208BF704730B54FF097
:1004C00000050AE050EA010208BF704730B511F09C
:1004D000004502D5404261EB41014FF4806404F1D4
:1004E00032045FEA915C3FF4DCAE4FF003025FEA56
:1004F000DC0C18BF03325FEADC0C18BF033202EBDE
:10050000DC02C2F1200300FA03FC20FA02F001FA37
:1005100003FE40EA0E0021FA02F11444C1E600BFD6
:1005200070B54FF0FF0C4CF4E06C1CEA11541DBF89
:100530001CEA135594EA0C0F95EA0C0F00F0DEF854
:100540002C4481EA030621EA4C5123EA4C5350EA39
:10055000013518BF52EA033541F4801143F480138A
:1005600038D0A0FB02CE4FF00005E1FB02E506F01B
:100570000042E0FB03E54FF00006E1FB03569CF070
:10058000000F18BF4EF0010EA4F1FF04B6F5007F76
:1005900064F5407404D25FEA4E0E6D4146EB0606E8
:1005A00042EAC62141EA55514FEAC52040EA5E5071
:1005B0004FEACE2EB4F1FD0C88BFBCF5E06F1ED81B
:1005C000BEF1004F08BF5FEA500E50F1000041EB52
:1005D000045170BD06F0004646EA010140EA0200FF
:1005E00081EA0301B4EB5C04C2BFD4EB0C0541EA21
:1005F000045170BD41F480114FF0000E013C00F336
:10060000AB8014F1360FDEBF002001F0004170BD59
:10061000C4F10004203C35DA0C341BDC04F1140472
:10062000C4F1200500FA05F320FA04F001FA05F2FE
:1006300040EA020001F0004221F0004110EBD370CB
:1006400021FA04F642EB06015EEA430E08BF20EAF7
:10065000D37070BDC4F10C04C4F1200500FA04F39A
:1006600020FA05F001FA04F240EA020001F000412C
:1006700010EBD37041F100015EEA430E08BF20EA9F
:10068000D37070BDC4F1200500FA05F24EEA020EE7
:1006900020FA04F301FA05F243EA020321FA04F016
:1006A00001F0004121FA04F220EA020000EBD370CD
:1006B0005EEA430E08BF20EAD37070BD94F0000FCD
:1006C0000FD101F00046400041EB010111F4801F01
:1006D00008BF013CF7D041EA060195F0000F18BFB2
:1006E000704703F00046520043EB030313F4801FEE
:1006F00008BF013DF7D043EA0603704794EA0C0FA8
:100700000CEA135518BF95EA0C0F0CD050EA4106BD
:1007100018BF52EA4306D1D181EA030101F000413A
:100720004FF0000070BD50EA410606BF1046194662
:1007300052EA430619D094EA0C0F02D150EA01366E
:1007400013D195EA0C0F05D152EA03361CBF1046AF
:1007500019460AD181EA030101F0004141F0FE414E
:1007600041F470014FF0000070BD41F0FE4141F4D2
:10077000780170BD70B54FF0FF0C4CF4E06C1CEAD2
:1007800011541DBF1CEA135594EA0C0F95EA0C0F87
:1007900000F0A7F8A4EB050481EA030E52EA033542
:1007A0004FEA013100F088804FEA03334FF0805563
:1007B00045EA131343EA12634FEA022245EA111590
:1007C00045EA10654FEA00260EF000419D4208BF41
:1007D000964244F1FD0404F5407402D25B084FEAEE
:1007E0003202B61A65EB03055B084FEA32024FF49A
:1007F00080104FF4002CB6EB020E75EB030E22BFF7
:10080000B61A754640EA0C005B084FEA3202B6EBB6
:10081000020E75EB030E22BFB61A754640EA5C0065
:100820005B084FEA3202B6EB020E75EB030E22BFF5
:10083000B61A754640EA9C005B084FEA3202B6EBF6
:10084000020E75EB030E22BFB61A754640EADC00B5
:1008500055EA060E18D04FEA051545EA16754FEA17
:1008600006164FEAC30343EA52734FEAC2025FEA35
:100870001C1CC0D111F4801F0BD141EA00014FF0C4
:1008800000004FF0004CB6E711F4801F04BF014395
:100890000020B4F1FD0C88BFBCF5E06F3FF6AFAEB1
:1008A000B5EB030C04BFB6EB020C5FEA500C50F141
:1008B000000041EB045170BD0EF0004E4EEA1131C4
:1008C00014EB5C04C2BFD4EB0C0541EA045170BDCB
:1008D00041F480114FF0000E013C90E645EA060E0F
:1008E0008DE60CEA135594EA0C0F08BF95EA0C0F3D
:1008F0003FF43BAF94EA0C0F0AD150EA01347FF485
:1009000034AF95EA0C0F7FF425AF104619462CE75B
:1009100095EA0C0F06D152EA03353FF4FDAE1046BE
:10092000194622E750EA410618BF52EA43067FF40F
:10093000C5AE50EA41047FF40DAF52EA43057FF49F
:10094000EBAE12E700000000000000000000000015
:100950004FEA410212F5001215D211D56FF47873E7
:10096000B3EB625212D94FEAC12343F0004343EA8A
:10097000505311F0004F23FA02F018BF4042704765
:100980004FF00000704750EA013005D111F00040EF
:1009900008BF6FF0004070474FF00000704700BF85
:1009A0004FEA4102B2F1E04324BFB3F5001CDCF191
:1009B000FE5C0DD901F0004C4FEAC0024CEA5070C9
:1009C000B2F1004F40EB830008BF20F001007047F8
:1009D00011F0804F21D113F13872BCBF01F00040FB
:1009E000704741F480114FEA5252C2F11802C2F12D
:1009F000200C10FA0CF320FA02F018BF40F00100AE
:100A00004FEAC1234FEAD32303FA0CFC40EA0C005F
:100A100023FA02F34FEA4303CCE77FEA625307D19C
:100A200050EA01331EBF4FF0FE4040F440007047D3
:100A300001F0004040F0FE4040F40000704700BF6D
:100A40004FF0FF3C06E000BF4FF0010C02E000BF9A
:100A50004FF0010C4DF804CD4FEA40024FEA41033C
:100A60007FEA226C18BF7FEA236C11D001B052EAF2
:100A7000530C18BF90EA010F58BFB2EB030088BFB8
:100A8000C81738BF6FEAE17018BF40F00100704727
:100A90007FEA226C02D15FEA402C05D17FEA236C09
:100AA000E4D15FEA412CE1D05DF8040B704700BF50
:100AB000844608466146FFE70FB5FFF7C9FF0028E7
:100AC00048BF10F1000F0FBD4DF808EDFFF7F4FF20
:100AD0000CBF012000205DF808FB00BF4DF808EDB9
:100AE000FFF7EAFF34BF012000205DF808FB00BFDC
:100AF0004DF808EDFFF7E0FF94BF012000205DF8FE
:100B000008FB00BF4DF808EDFFF7D2FF94BF0120AE
:100B100000205DF808FB00BF4DF808EDFFF7C8FFA7
:100B200034BF012000205DF808FB00BF000000007A
:100B30004FEA4002B2F1FE4F0FD34FF09E03B3EBEA
:100B400012620DD94FEA002343F0004310F0004F2A
:100B500023FA02F018BF404270474FF00000704780
:100B600012F1610F01D1420205D110F0004008BF1F
:100B70006FF0004070474FF0000070470000000029
:100B8000704700BFAFF30080AFF30080AFF3008089
:100B9000FEE700BFAFF30080AFF30080AFF300804B
:100BA00072B6644C84F30988022383F31488BFF37C
:100BB0006F8F61486149884218D2CA1C051D531BBA
:100BC00023F00302034610184FF055318342196099
:100BD000C2F380020AD01AB185422B46296005D0A3
:100BE0001D1D5960083383426960F9D15448A04201
:100BF00018D25449041D0A1B22F003050346281885
:100C00004FF0553183421960C5F380020AD01AB102
:100C100084422346216005D01D1D5960083383425C
:100C20006960F9D101F08CFB4749484881421BD2E9
:100C3000C61C0C1D321B464822F00302161D056817
:100C40000423B3420D60C2F380020DD022B1456887
:100C50000823B342256007D01D581A1D5D508458E3
:100C60000833B3428C50F7D13A483B49884217D2F7
:100C7000CB1C041D1A1B22F0030503462818002173
:100C800083421960C5F380020AD01AB18442234618
:100C9000216005D01D1D5960083383426960F9D178
:100CA000FFF76EFF2D4D2E498D421DD2CC1C2E1DFF
:100CB000A71BB808471C01242A6800EA04089047CB
:100CC000BC4211D0B8F1000F05D033680224984718
:100CD000BC42354608D0696888470234A8682E1D92
:100CE00080470835BC42F6D1FFF732FA1D4D1E4A47
:100CF00095421DD2D41C2E1DA71BBB085F1C0124CE
:100D0000296803EA04088847BC4211D0B8F1000FF3
:100D100005D0306802248047BC42354608D06A6856
:100D200090470234AB682E1D98470835BC42F6D177
:100D3000FFF72EFF00080020000000200004002024
:100D40000004002003080020000800200008002004
:100D5000C02C000800080020981100205001000855
:100D6000500100085001000850010008AFF3008056
:100D7000FEE700BFAFF30080AFF30080AFF3008069
:100D800072B6FEE7AFF30080AFF30080AFF30080F0
:100D900000F086F900F044FC00F09AF900DF00BF93
:100DA000EFF30983203383F30988002383F3118849
:100DB000704700BFAFF30080AFF30080AFF3008057
:100DC00008B54FF440724FF46D43CEF20003C0F209
:100DD000FA520021996007201021DA6000F0A8F88B
:100DE0000A204FF4007100F0A3F80B208021BDE829
:100DF000084000F09DB800BFAFF30080AFF3008063
:100E0000202383F311884FF46D43CEF2000358681A
:100E100010F400631AD0EFF30983A3F1200282F3E8
:100E2000098811494FF080708A6943F8040C92F8E0
:100E3000230009689268896858B1914294BF0022E2
:100E4000012262B1094A43F8082C704783F31188E4
:100E50007047914234BF00220122002AF2D1044897
:100E600043F8080C704700BF340D0020910D0008B6
:100E70009C0D0008AFF30080AFF30080AFF300805B
:100E800008B500F07DF9202383F3118800F040F9C4
:100E900000F0B6F800F054F9002383F3118800F055
:100EA0008FF9BDE80840FFF7ABBF00BFAFF300808C
:100EB0002DE9F04FC1F80CD0D0F80CD0BDE8F08F80
:100EC00008B500F005F9002383F311882846A047F0
:100ED00000F0C6FC08BD00BFAFF30080AFF3008098
:100EE00000F0030370B4DA00FF2505FA02F500F004
:100EF0001F0401FA02F1012202FA04F24FF46143E5
:100F00008408CEF20003C03453F82460400926EA76
:100F100005050D4300F1600643F8245043F82620F0
:100F200043F8202070BC7047AFF30080AFF300801F
:100F300000F0030310B4FF22DC0002FA04F201FA0D
:100F400004F180084FF46D43CEF20003063053F8ED
:100F5000204024EA02020A4343F8202010BC7047D4
:100F6000024B034A98698261FEE700BF340D0020FE
:100F7000B0280008AFF30080AFF30080AFF300802B
:100F800030B583B0FFF71CFF00F00AFA00F0A0F9BB
:100F900000F066FE00F0ACFE00F062F940F60000E2
:100FA0004021C2F2000000F04BFB40F20043C2F2CD
:100FB0000003012540F63454C361C2F2000480F8F6
:100FC0002050A06100F054F8002383F3118862B62A
:100FD00042F63021A269C0F60001916140F650004E
:100FE000009340F66173C0212A46C0F60003C2F2A6
:100FF000000000F0A5FB03B030BD00BFAFF30080E0
:10100000F8B500F0FDF8164B986990F8232012B15E
:10101000511E80F82310446A124D631C4362E86835
:101020002C68421CAC42EA6018D0A768013FA76058
:10103000A7B92168E6684D60E760296000F080F894
:10104000002383F311882069B047202383F311889C
:1010500000F05EF82C68A368002BEAD0F8BD00BF52
:10106000340D0020240D0020AFF30080AFF300808A
:10107000054B186810B905490A6822B10448054BA8
:101080001860FFF77DBE7047100900201C0D00207E
:10109000D0280008200D0020AFF30080AFF30080BF
:1010A000074B10B51868074C08B9216821B1064AEA
:1010B000064B1A60FFF764FE0120206010BD00BFE0
:1010C000100900201C0D0020D8280008200D002049
:1010D000084B10B51868084C28B92168002902DDB2
:1010E0000020206010BD054A054B1A60FFF748FE3E
:1010F000F6E700BF100900201C0D0020E0280008C2
:10110000200D0020AFF30080AFF30080AFF300802C
:10111000074B10B51868074C002801DD216821B184
:10112000054A064B1A60FFF72BFE0120206010BD18
:10113000100900201C0D0020E8280008200D0020C8
:10114000084B10B51868084C002805DD21680029F7
:1011500002DD0020206010BD044A054B1A60FFF735
:101160000FFEF6E7100900201C0D0020F0280008F3
:10117000200D0020AFF30080AFF30080AFF30080BC
:1011800010B5202383F31188094C2168002902DB64
:10119000084A106828B10849084B1960FFF7F0FDAC
:1011A00021684A1C2260002383F3118810BD00BF10
:1011B000100900201C0D0020F8280008200D002038
:1011C00010B5202383F31188094C2168002902DD22
:1011D000084A106828B10849084B1960FFF7D0FD8C
:1011E00021684A1E2260002383F3118810BD00BFCE
:1011F000100900201C0D002000290008200D0020EF
:10120000064B1868002804DB05490A68002A00DD3F
:1012100070470448044B1860FFF7B2BD1009002066
:101220001C0D002008290008200D0020AFF30080CD
:10123000064B186820B906490A68002A00DD704785
:101240000448054B1860FFF79BBD00BF1009002044
:101250001C0D002010290008200D0020AFF3008095
:1012600040F61413C2F200031A46402142F8081B4C
:101270005A607047AFF30080AFF30080AFF3008097
:101280000C4910B40C4ACC680C49536889691C603D
:101290005960846A03F110019C6090F8204002F5C7
:1012A000816081421C732ABF02F1080351605360C0
:1012B00010BC7047240D002014090020340D0020BC
:1012C00040F62053C2F200031860FFF759BD00BF7B
:1012D00040F62453C2F200034FF0FF3200205B605F
:1012E0001B609A60D8607047AFF30080AFF3008056
:1012F000F8B505460C4616461F46FFF781FFCDB1EF
:10130000C6B1BCB10D492F610B68EE609A6894427A
:1013100004D91B68A41A9A68A242FAD358688B426F
:101320002B60686005605D60AC6002D099680C1B42
:101330009C60F8BD0248FFF7C3FFE3E7240D0020DF
:1013400020290008AFF30080AFF30080AFF30080E6
:1013500010B50446FFF754FF84B1E36893B12068E9
:101360000A4A904203D08168A368CA188260626802
:10137000002110602068E160426010BD0448FFF762
:101380009FFFEAE70348FFF79BFFE8E7240D0020F3
:101390003029000840290008AFF30080AFF3008037
:1013A00040F63453C2F2000300225B601B609A6077
:1013B0005B611B61704700BFAFF30080AFF300803B
:1013C00010B50446FFF71CFF94F820308BB10E2BAC
:1013D0000FD00022A168094884F8202000688368A3
:1013E0008B42FBD24168206061600C604460204603
:1013F00010BD0348FFF764FFEBE700BF340D00208A
:1014000060290008AFF30080AFF30080AFF30080E5
:1014100010B52023044683F31188FFF779FE94F872
:1014200020300D2B11D8DFE803F016101007100B39
:10143000101010101010100BA06A8268511C8160EF
:1014400094E80C001A60206843604FF0FF33A362F9
:101450002046FFF7B5FFFFF773FE002383F31188E3
:1014600010BD00BFAFF30080AFF30080AFF300808A
:1014700070B5114C0646FFF7DBFE2368A5691A68B4
:1014800014210120546085F8206085F8231083F82A
:10149000200028462260A361FFF7F2FEEB69ADF160
:1014A0002402934202D90548FFF70AFFA0692946A2
:1014B000BDE87040FFF7FCBC340D00207429000823
:1014C00070B50C4686B00646FFF7B2FE631C12D01C
:1014D0000B4D2146AB690B4A01A8FFF709FF3046C7
:1014E000FFF7C6FF049B13B101A8FFF731FFA869FE
:1014F000806A06B070BD3046FFF7BAFF004DF6E7D0
:10150000340D002011140008AFF30080AFF3008009
:1015100070B5144D04460E46FFF78AFEA869A2680E
:101520008368A6629A4213D9FFF74AFF0121064653
:1015300084F82010AC61FFF7A3FEF069ADF124023E
:1015400090420AD820463146BDE87040FFF7B0BC53
:101550002046BDE87040FFF733BF0348FFF7B0FEF9
:10156000F0E700BF340D002074290008AFF30080BD
:1015700038B5104C01212368A5691A6814205460FD
:1015800083F8201085F8230028462260A361FFF726
:1015900017FF2846FFF774FEEB69ADF12402934272
:1015A00002D90548FFF78CFEA0692946BDE83840FE
:1015B000FFF77EBC340D002074290008AFF30080D3
:1015C00070B5144E01213368B5691A680020AC6803
:1015D000566083F820103260B36185F8200000E087
:1015E0001B689A68A242FBD859682B60696028463C
:1015F0005D600D60FFF744FEEB69ADF124008342AE
:1016000002D90548FFF75CFEB0692946BDE8704085
:10161000FFF74EBC340D002074290008AFF30080A2
:10162000044B986990F8231009B1FFF7C9BFFFF781
:101630009FBF00BF340D0020AFF30080AFF30080E8
:101640002DE9F00140F63454C2F20004656900222D
:10165000046100F13006816000F12C0C00F14C07B0
:1016600045614FF00208606141641424012180F853
:10167000208080F8212080F823400264C263426207
:1016800080F8221082612861C0F82CC0466306638E
:10169000C761BDE8F0017047AFF30080AFF3008091
:1016A0002DE9F04704460D4690469946FFF7A8FD00
:1016B0000CB1AF2D35D81E48FFF702FE1D4EA5F127
:1016C0002403E7187169E76044F80390089B00253C
:1016D0007B60194B04F130023B62022384F8203016
:1016E000142304F12C0A04F14C0C84F82330012358
:1016F0002661C4F8088061612046746184F8215035
:10170000C4F844802564E563656284F82230A561ED
:101710000C61C4F82CA062632263C4F81CC0BDE84D
:10172000F087B8F17F0FC6D8B9F1000FC6D1C2E774
:1017300090290008340D0020C10E0008AFF300808E
:101740002DE9F04F9B4683B080468946924600F1D2
:101750004C0300F1010400F14D07FF26254604F873
:10176000016C05F8016B6C1CBC42F7D108EB090752
:10177000BB4215D218465526DA4300F8016BB9185A
:10178000B84201F001030BD01BB100F8016BB84265
:1017900006D0054605F8016B4670681CB842F8D1C2
:1017A000202383F31188FFF77BFC0C9C5B46524699
:1017B000494600944046FFF773FF00210446FFF7B7
:1017C000A7FEFFF785FC002383F31188204603B0B2
:1017D000BDE8F08FAFF30080AFF30080AFF300807F
:1017E00010B5044610B90948FFF76AFD202383F3BA
:1017F0001188FFF755FC21460620FFF761FEFFF731
:1018000067FC002383F3118810BD00BFD0290008B6
:1018100038B5104B9C69254655F82C1FA062A9428B
:1018200007D00A680846E262FFF7CAFDE16AA942EA
:10183000F7D194F82100830704D1636922691A6102
:1018400021694B610E20FFF713FE0348BDE83840C5
:10185000FFF736BD340D0020E0290008AFF300800B
:1018600010B52023044683F31188FFF719FC2046A6
:10187000BDE81040FFF7CCBFAFF30080AFF30080AE
:1018800010B5044620B1002364602460A36010BD3D
:101890000148FFF715FDF6E7502A0008AFF3008076
:1018A00038B504460D46FFF7ABFCC4B1E26B94F8C3
:1018B000203045EA0201082BE1630CD0092B00D04F
:1018C00038BDA06A01408842FAD12046FFF778FD72
:1018D0000023836238BDA26A1142F6D138BD0248A6
:1018E000FFF7EEFCE2E700BF2C2B0008AFF300800F
:1018F00070B505460E46FFF783FC6DB12C68A54216
:1019000009D0E36860683343E360A168FFF7C8FF6C
:101910002468A542F5D170BD0148FFF7D1FCEDE781
:10192000502B0008AFF30080AFF30080AFF30080CE
:1019300010B4024659B1084B0D209B699A62546855
:1019400083E814005360236010BCFFF7B9BD4FF06B
:10195000FF3010BC704700BF340D0020AFF3008093
:1019600010B4C361019B8A18002440600060846049
:1019700041618161C1600261036210BC704700BFB8
:1019800038B504460D46FFF73BFC6369A269A068C1
:1019900093421AD0411CA16003F8015B2269636184
:1019A00093420BD22068A0420DD0016821604C60A8
:1019B000FFF706FD00228262104638BD2068E3680A
:1019C000A0426361F1D1002038BD0028E2D06FF061
:1019D000030038BDAFF30080AFF30080AFF30080A9
:1019E000F8B504460E46202383F31188FFF758FB11
:1019F000E3690BB120469847A5682046314655B9A2
:101A0000FFF796FF071EF7DAFFF762FB2B4683F31B
:101A100011883846F8BDA069013DA56010F8017B2A
:101A20002269A061904224BFE068A061FFF750FBEB
:101A3000002383F311883846F8BD00BFAFF3008060
:101A40002DE9F0470446154688461E46C769002A18
:101A50003AD0202383F31188FFF722FB08F1010A13
:101A60004FF00009A8440FB12046B847A5682046AA
:101A700031465DB9FFF75CFF0028F7D0FFF728FB80
:101A80002B4683F311884846BDE8F087A369013DE2
:101A9000A56013F8012B0AF8012C2069A361834289
:101AA00024BFE368A361FFF713FB002383F31188CE
:101AB000C24509F10109E6D0202383F31188FFF71D
:101AC000EFFA0AF1010ACEE70148FFF7F9FBC0E798
:101AD000902B0008AFF30080AFF30080AFF30080DD
:101AE00010B4C361019B8C1840600060826041614A
:101AF0008161C1600461036210BC7047AFF3008074
:101B00002DE9F041202304468846164683F31188C8
:101B1000FFF7C6FAA568204631465DB9FFF708FF12
:101B2000071EF7DAFFF7D4FA2B4683F311883846FD
:101B3000BDE8F0816369013DA56003F8018B22696E
:101B40006361934228BFE368E16928BF636109B11B
:101B500020468847FFF7BCFA002383F311881F460D
:101B60003846BDE8F08100BFAFF30080AFF30080DE
:101B700038B50446FFF744FBA3696269A0689A423E
:101B800016D0411CA16013F8015B2269A361934246
:101B90000BD22068A04206D0016821604C60FFF79C
:101BA0000FFC00228262284638BDE368A361F0E79B
:101BB0000028E6D06FF0020038BD00BFAFF3008010
:101BC0002DE9F0470446164688469A46D0F81C9000
:101BD000002A39D0202383F31188FFF761FA002708
:101BE000A56820466B1E0DB3A360656918F8011B3C
:101BF00005F8011B22696561954224BFE2686261B4
:101C0000B9F1000F00D0C847FFF762FA002383F351
:101C100011880137013E14D0202383F31188FFF788
:101C20003FFAA56820466B1E002DDDD120465146A7
:101C3000FFF77EFE0028D3D0FFF74AFA2B4683F346
:101C400011883846BDE8F0870148FFF739FBC1E746
:101C5000A42B0008AFF30080AFF30080AFF3008047
:101C600040F20001084840F6545240F65053C2F288
:101C70000101C2F2000220F00700C2F2000321F0CD
:101C800007011060196070479F110020AFF30080BA
:101C900010B50446FFF7B4FA074A08491368096803
:101CA000E01D20F00700C91A88429ABF181810607A
:101CB0000023184610BD00BF540D0020500D002019
:101CC00010B52023044683F31188FFF7E9F9204675
:101CD000FFF7DEFF0446FFF7FBF9002383F31188CB
:101CE000204610BDAFF30080AFF30080AFF300805B
:101CF00040F65853C2F2000341F6C1410022C0F63B
:101D0000000103F1100019609A60DA60FFF7B8BDB6
:101D100008B500F01DF900F0F3F842F65040C0F6A7
:101D2000000000F0B5F900F04BF8BDE8084000F005
:101D30000FBB00BFAFF30080AFF30080AFF30080B4
:101D40000C30FFF77DBE00BFAFF30080AFF3008023
:101D50000C304FF0FF33FFF773BE00BFAFF30080CE
:101D60003030FFF72DBF00BFAFF30080AFF300802E
:101D700030304FF0FF33FFF723BF00BFAFF30080D9
:101D80000C30FFF72DBE00BFAFF30080AFF3008033
:101D90000C304FF0FF31FFF723BE00BFAFF30080E0
:101DA0003030FFF7ADBE00BFAFF30080AFF300806F
:101DB00030304FF0FF32FFF7A3BE00BFAFF300801B
:101DC00000F066BAAFF30080AFF30080AFF300809D
:101DD00070B50B4642F620410546C0F600010446A8
:101DE00045F8041B82B065600125164604F15401D4
:101DF0001022257200F10C000094FFF7B1FD009451
:101E000004F1300004F1640110223346FFF768FE4C
:101E100002B070BDAFF30080AFF30080AFF300807D
:101E200038B504460D46B8B1202383F31188FFF777
:101E300037F9237A581E012802D90948FFF740FADA
:101E40002046294600F03CFA02212172FFF740F9B2
:101E5000002383F3118838BD0248FFF731FAE3E726
:101E6000CC2B0008C02B0008AFF30080AFF300803C
:101E700038B504460D46FFF7C3F9D4B163693BB1E9
:101E800004F10C002946FFF77BFD00280BDB38BD71
:101E9000201D0421FFF72CFD04F10C002946FFF75B
:101EA0006FFD0028F3DA201D8021BDE83840FFF7E0
:101EB0001FBD0248FFF704FAE0E700BFF82B000857
:101EC0004FF48053CEF2000359688160704700BF21
:101ED0004FF48053CEF20003084982685B680968BA
:101EE0009B1AC268591A9142816004D803699942C9
:101EF00038BF01617047C160704700BF780D002096
:101F000010B540F6785486B00022C2F200044FF0BB
:101F1000FF304FF48053226004920590CEF200030C
:101F2000596841F6C16241F6D16301A8C0F60002CA
:101F3000C0F60003019202930391FFF7C9FF0398D3
:101F4000206006B010BD00BFAFF30080AFF300808B
:101F50004FF4805330B4C4F2020300214FF0FF3439
:101F600018694EF210021C611961DD68CEF20002A0
:101F7000DC6048F69F44D9604EF6F05054609160A2
:101F800007211160CEF20000C2684FF4805142F088
:101F90008072C260CEF2000108684FF4E04240F067
:101FA00001000860D969C4F2000241F08050D86194
:101FB000D96941F00060D861136843F48071116001
:101FC00030BC7047AFF30080AFF30080AFF3008008
:101FD0004FF48053C4F202031A68194642F001001C
:101FE00018600A684FF480539007C4F20203F8D5D2
:101FF000002159601868194600F0F9021A60486813
:102000004FF4805310F00C0FC4F20203F7D11A689A
:10201000194642F4803018600A684FF480539203E6
:10202000C4F20203F8D548F24461D962186819462F
:1020300040F080621A6008684FF480530001C4F2D7
:102040000203F8D55A68194642F4E01058601A683D
:1020500042F0807018600A684FF480539201C4F215
:102060000203F8D54FF4C8414FF40050C0F21C01F0
:10207000C4F202001122596002605968184641F00A
:1020800002025A60436803F00C010829FAD1704734
:102090004FF48053C4F202039A6910B442F07D01F8
:1020A000996104684FF40062C4F20102D46081684F
:1020B0004FF4406351604468C4F201031460C26885
:1020C0004FF48051DA604469C4F201015C60046934
:1020D0004FF4A0521C608369C4F20102CB60046A11
:1020E0004FF4C0534C60C469C4F201030C60416AF0
:1020F000D160C16A5160816A1160026BDA60816BE4
:102100005960406B186010BC704700BFAFF300808F
:102110004FF48843C4F200039A8990B240F08001E2
:1021200099817047AFF30080AFF30080AFF3008078
:10213000F8B5514FFFF724F87D6FAE892C88B6B201
:10214000A4B204F4807398B2002862D1202383F3F0
:102150001188FEF7DDFF04F020018AB25AB928E0A9
:10216000A9884548C9B2FFF783FE288884B204F0E5
:1021700020039AB2EAB12307F2D004F0080398B220
:1021800004F00202002814BF8021002193B214F051
:10219000010F04F00404394818BF41F02001A2B235
:1021A0000BB141F040010AB141F48071FFF7A0FB8F
:1021B000D6E7FEF7C5FF002383F3118806F0800100
:1021C00088B220B104F080039AB2002A37D104F01B
:1021D0004004A4B2BCB1202383F31188FEF798FF1A
:1021E00026481021FFF784FBFEF7AAFF002383F3A4
:1021F00011884FF6BF723240AA81298821F0400031
:1022000003041A0C2A80FEF7DBFFBDE8F840FEF756
:10221000F7BD202383F31188FEF77AFF381D4FF4B2
:102220000071FFF765FBFEF78BFF002383F3118836
:10223000298821F480721304180C288086E7202353
:1022400083F31188FEF764FF0D48FFF791FC002827
:1022500007DB81B2A980FEF773FF002383F31188A7
:10226000B5E706480821FFF743FB26F0C00040F021
:102270004003AB81EFE700BF7C0D0020800D002004
:10228000AC0D0020AFF30080AFF30080AFF300800F
:1022900010B540F67C54C2F2000442F211122046FE
:1022A0000021C0F60002FFF793FD4FF48843C4F20B
:1022B0000003636710BD00BFAFF30080AFF3008081
:1022C00038B5037A1B4C0546002918BF0C46012B74
:1022D0001FD020684AF68001C0F212116B6FB1FB6B
:1022E000F0F290B21881A288E088218942F4045269
:1022F00040F0400080B241F0010142F02C0218820F
:1023000092B289B2002099829A8118801A889B889B
:1023100038BD09488542DCD14FF48051C4F2020136
:10232000CA69262042F40033CB61C021FEF7D8FDF4
:10233000CFE700BF402C00087C0D0020AFF30080E9
:10234000FFF746BEAFF30080AFF30080AFF300802D
:10235000704700BFAFF30080AFF30080AFF30080A1
:10236000F0B4002B08BF0B46074600F10B0C00F140
:102370000A05B1FBF2F602FB161101F13004392C0B
:10238000C8BF01F13704E4B2B3FBF2F3284631468B
:1023900005F80149002BECD1C0EB0C03F9430246D0
:1023A000F8184318DB070AD507F8014B12F8014F5C
:1023B00005E012F8014F7C7012F8014F5F1C3B469C
:1023C00003F8014B8342F4D1F0BC7047AFF30080B7
:1023D0000EB42DE9F04F8CB015AB0DF1190C53F87C
:1023E000044B0DF11808CDF804C0C8EB0C0C0646E0
:1023F0000593CDF808C0254615F8011B59B12529CC
:102400000ED034683046A3682C462546984715F808
:10241000011B0029F3D10CB0BDE8F04F03B07047A9
:1024200063782D2B00F0CC814FF000092E2B00F0AB
:10243000C381302B00F0C08120272C460599002550
:1024400006E00A78043105EB8505237802EB4505A3
:10245000A3F13002D2B20134092AF4D92A2BF0D0E8
:1024600000202E2B059149D06C2B55D04C2B53D0EE
:10247000A3F1410119298CBF00210121A3F14402DC
:10248000342A00F29381DFE812F081019101910179
:1024900091019101810191019101910191019101BC
:1024A0007F019101910191019101910177019101C8
:1024B00091016901910191019101910191019101B4
:1024C00091019101910191012A0181019101E500A0
:1024D000910191018101910191019101910191017C
:1024E0007F019101910191014F00910177019101CB
:1024F000910169010A78043102EB4A0014F8013BAA
:1025000000EB800AA3F13002D2B2092AF4D92A2BB7
:10251000F0D06C2B0591A9D12178002900F05581CC
:102520000B4601340121A9E7059FAB493B683A1DE1
:10253000002B14BF9A468A469AF8007047F6FF733C
:102540000592002808BF1846002F00F065819AF810
:102550000170421E0AEB000B02F001000AF10102B9
:10256000002F73D09345134608D0002869D05178C6
:10257000013200296AD09345134662D1CAEB0B0B96
:10258000CBEB0505202725EAE575B9F1000F00F032
:10259000B880BBF1000F27DDD146306819F8011B68
:1025A000D3446FEA0A0E826830460BEB0E0A90475E
:1025B000D9450AF0010A17D0BAF1000F03D03368E9
:1025C00019F8011B0BE03068CA461AF8011B826833
:1025D00030469047336899F801100AF101099A686A
:1025E00030469047D945EED1002D3FF404AF316815
:1025F0006B1E8A681D463046394603F00109904734
:10260000002D3FF4F8AEB9F1000F07D03168304625
:102610008B6839469847013D3FF4EDAE3068394646
:102620008268304690473168013D8B6830463946B4
:102630009847013DF2D1DEE65178013231B19B4538
:102640009CD05F785A1C531C002FF5D1CAEB020BAB
:1026500020274EE0059AD01D20F0070303F1080261
:10266000D3E900010592FEF79BF900218246FEF7AF
:1026700035FA002840F0C880C3465046FEF758FAA5
:1026800003900A22002358460399FFF769FE844607
:102690002E200CF8010B5046CDF800C0FDF7ECFEE3
:1026A000824603988B46FDF7D5FE02460B46504600
:1026B0005946FDF781FD46A3D3E90023FDF730FF1E
:1026C000FEF746F9DDF800C001460A22604642F2F4
:1026D0001073FFF745FEC246C8EB000B09E0059FEB
:1026E000DDF808B03A683B1D05938DF818202027C7
:1026F000C246CBEB050525EAE575B9F1000F7FF47D
:1027000048AF6D42002D3FF444AF9AF800102D29D8
:102710006FD0316830468B6839466FEA05099847B3
:10272000013509F001093FF434AFB9F1000F07D0CA
:102730003268304693683946984701353FF429AFEF
:1027400030683946826830469047316801358B6879
:102750003046394698470135F2D11AE71022059BD9
:1027600071B1191D0591196840460023FFF7F8FD66
:10277000C246C8EB000BBCE70A22059B0029F0D13A
:10278000181D19680590EFE70822E8E7059B1A1D58
:1027900021B319680592002924DB40460A22002350
:1027A000FFF7DEFDC246C8EB000BA2E78DF818303C
:1027B000DDF808B0C2469CE76B78302701353CE66F
:1027C000A51CA3784FF0010930E6012156E600BFB1
:1027D00000000000006AF840902C0008196805927B
:1027E0000029DADA2D208DF8180049420DF1190080
:1027F000D4E7302F8DD1336830469A6890470AF17C
:10280000010A0BF1FF3B84E72D210AF1004A8DF804
:1028100018100DF1190B30E7BB46202769E700BF00
:1028200038B54FF67214C3F67F742046FDF724FEC8
:10283000044602460B460D460B480C49FFF7C8FDFF
:1028400007A3D3E9002320462946FDF7B5FCFEF790
:10285000A7F800210446FEF737F90028E5D038BD77
:102860002D431CEBE2361A3F7C0D0020A02C000803
:10287000F8B50B480B49FFF7ABFD4FF440644FF43C
:102880008076C4F20104374680252761FA2065610D
:10289000FEF7A6FF6661FA202561FEF7A1FFF4E7C7
:1028A0007C0D0020A82C0008AFF30080AFF300805F
:1028B00069646C650000000000000000000000007A
:1028C000535623310000000053562332000000000D
:1028D00053562333000000005356233400000000F9
:1028E00053562335000000005356233600000000E5
:1028F00053562337000000005356233800000000D1
:102900005356233900000000535623313000000095
:102910005356233131000000000000000000000089
:102920002263685654536574492228290000000028
:102930002263685654526573657449222829000041
:102940006368565452657365744928292C202331D5
:102950000000000000000000000000000000000077
:10296000636853636852656164794928292C202380
:1029700031000000737461636B206F766572666C62
:102980006F77000000000000000000000000000061
:10299000226368546864437265617465492228291A
:1029A00000000000226368546864536574507269C3
:1029B0006F726974792228290000000063685468E6
:1029C00064526573756D6528292C20233100000041
:1029D000226368546864536C65657022282900007E
:1029E0006368546864457869745328292C2023311E
:1029F00000000000226368546864576169742228EB
:102A00002900000063685468645761697428292CA0
:102A10002023310063685468645761697428292C45
:102A20002023320000000000000000000000000031
:102A30006D61696E0016C01104044C080C10141866
:102A40001C202122232400000000000000000000C0
:102A50002263684D7478496E697422282900000049
:102A60002263684D74784C6F636B532228290000F1
:102A700063684D74784C6F636B5328292C20233185
:102A80000000000063684D74784C6F636B53282915
:102A90002C202332000000002263684D74785472A9
:102AA000794C6F636B5322282900000063684D74D2
:102AB00078556E6C6F636B28292C20233100000041
:102AC00063684D7478556E6C6F636B28292C2023D6
:102AD0003200000063684D7478556E6C6F636B5301
:102AE00028292C202331000063684D7478556E6CC2
:102AF0006F636B5328292C20233200000000000054
:102B000022636845767452656769737465724D61B6
:102B1000736B222829000000226368457674556E85
:102B2000726567697374657222282900226368459B
:102B300076745369676E616C492228290000000091
:102B40002263684576745369676E616C2228290098
:102B500022636845767442726F6164636173744D79
:102B600061736B49222829002263684576744469A1
:102B700073706174636822282900000063684576D9
:102B800074446973706174636828292C20233100B0
:102B900022636849515265616454696D656F75744B
:102BA000222829002263684F51577269746554695D
:102BB0006D656F7574222829000000000000000078
:102BC00022736453746172742228290073645374ED
:102BD00061727428292C2023310000002273645371
:102BE000746F702228290000736453746F70282951
:102BF0002C20233100000000227364496E636F6D46
:102C0000696E674461746149222829002273645205
:102C100065717565737444617461492228290000E7
:102C2000711D0008511D0008B11D0008911D00080C
:102C3000A11D0008811D0008611D0008411D00083C
:102C400000960000000000400000000000000000AE
:102C5000FFFFFFFFB48BB7B84B444444FFFFFFFFB7
:102C6000884484388388B7B83FFFFFFF8888888806
:102C7000888B8844FFFFFFFF888888388888888889
:102C8000FFFFFFFF88888888888888480000000048
:102C9000286E756C6C290000000000000000000028
:102CA0002566200A0D0000000A0D48656C6C6F2037
:0C2CB000776F726C64210A0D00000000B8
:0400000508000BA143
:00000001FF
