:020000040800F2
:1000000000040020E10B0008B10D0008B10D00084C
:10001000B10D0008B10D0008B10D0008B10D0008C8
:10002000B10D0008B10D0008B10D0008E10D000888
:10003000B10D0008B10D0008B10D0008C10E000897
:10004000B10D0008B10D0008B10D0008B10D000898
:10005000B10D0008B10D0008B10D0008B10D000888
:10006000B10D0008B10D0008B10D0008A122000873
:10007000D122000801230008312300086123000871
:1000800091230008C1230008B10D0008B10D00083C
:10009000B10D0008B10D0008B10D0008B10D000848
:1000A000B10D0008B10D0008B10D0008B10D000838
:1000B000B10D0008B10D0008B10D0008B10D000828
:1000C000B10D0008112B0008412C0008B10D0008EB
:1000D000B10D0008B10D000851310008B10D000844
:1000E000B10D0008B10D0008B10D0008B10D0008F8
:1000F000B10D0008B10D0008B10D0008B10D0008E8
:10010000B10D0008B10D0008B10D0008B10D0008D7
:10011000B10D0008B10D0008B10D0008B10D0008C7
:10012000F12300082124000861240008A12400080C
:10013000E1240008B10D0008B10D0008B10D000860
:10014000B10D0008B10D0008B10D0008B10D000897
:1001500010B54FF4406482B0C4F2010401F0D0FE47
:1001600000F02EFF112220464FF4806102F088FB40
:10017000112220464FF4006102F082FB642001F05E
:100180004FFB40F618600021C2F2000001F0F0FFC2
:1001900040F6E05044F28031C2F20000C0F60001A7
:1001A00001F0D6FE002443F6812341F24010F021F5
:1001B0004022C0F600030094C2F2000001F0E0FA11
:1001C00040F6906043F6C12300944FF42C71402216
:1001D000C0F60003C2F2000001F0D2FA204602B0DD
:1001E00010BD00BFAFF30080AFF30080AFF300801D
:1001F00081F0004102E000BF83F0004330B54FEAD8
:1002000041044FEA430594EA050F08BF90EA020F44
:100210001FBF54EA000C55EA020C7FEA645C7FEAD7
:10022000655C00F0E2804FEA5454D4EB5555B8BFFA
:100230006D420CDD2C4480EA020281EA030382EA6B
:10024000000083EA010180EA020281EA0303362DFD
:1002500088BF30BD11F0004F4FEA01314FF4801CD0
:100260004CEA113102D0404261EB410113F0004FE2
:100270004FEA03334CEA133302D0524263EB430399
:1002800094EA050F00F0A780A4F10104D5F1200E37
:100290000DDB02FA0EFC22FA05F2801841F1000192
:1002A00003FA0EF2801843FA05F359410EE0A5F166
:1002B00020050EF1200E012A03FA0EFC28BF4CF097
:1002C000020C43FA05F3C01851EBE37101F000454D
:1002D00007D54FF0000EDCF1000C7EEB00006EEB5A
:1002E0000101B1F5801F1BD3B1F5001F0CD34908E4
:1002F0005FEA30004FEA3C0C04F101044FEA44523B
:1003000012F5800F80F09A80BCF1004F08BF5FEAC1
:10031000500C50F1000041EB045141EA050130BDA1
:100320005FEA4C0C404141EB010111F4801FA4F144
:100330000104E9D191F0000F04BF01460020B1FA99
:1003400081F308BF2033A3F10B03B3F120020CDAD1
:100350000C3208DD02F1140CC2F10C0201FA0CF0AF
:1003600021FA02F10CE002F11402D8BFC2F1200C14
:1003700001FA02F120FA0CFCDCBF41EA0C019040CA
:10038000E41AA2BF01EB0451294330BD6FEA040413
:100390001F3C1CDA0C340EDC04F11404C4F12002FE
:1003A00020FA04F001FA02F340EA030021FA04F310
:1003B00045EA030130BDC4F10C04C4F1200220FA67
:1003C00002F001FA04F340EA0300294630BD21FAA5
:1003D00004F0294630BD94F0000F83F4801306BF6B
:1003E00081F480110134013D4EE77FEA645C18BF5F
:1003F0007FEA655C29D094EA050F08BF90EA020FF6
:1004000005D054EA000C04BF1946104630BD91EAED
:10041000030F1EBF0021002030BD5FEA545C05D1F0
:100420004000494128BF41F0004130BD14F580042F
:100430003CBF01F5801130BD01F0004545F0FE41A3
:1004400041F470014FF0000030BD7FEA645C1ABFD8
:10045000194610467FEA655C1CBF0B46024650EA0F
:10046000013406BF52EA033591EA030F41F400213B
:1004700030BD00BF90F0000F04BF0021704730B5C1
:100480004FF4806404F132044FF000054FF0000196
:1004900050E700BF90F0000F04BF0021704730B557
:1004A0004FF4806404F1320410F0004548BF40422C
:1004B0004FF000013EE700BF42004FEAE2014FEA81
:1004C00031014FEA02701FBF12F07F4393F07F4F5C
:1004D00081F06051704792F0000F14BF93F07F4F8E
:1004E000704730B54FF4607401F0004521F00041D1
:1004F00020E700BF50EA010208BF704730B54FF057
:1005000000050AE050EA010208BF704730B511F05B
:10051000004502D5404261EB41014FF4806404F193
:1005200032045FEA915C3FF4DCAE4FF003025FEA15
:10053000DC0C18BF03325FEADC0C18BF033202EB9D
:10054000DC02C2F1200300FA03FC20FA02F001FAF7
:1005500003FE40EA0E0021FA02F11444C1E600BF96
:1005600070B54FF0FF0C4CF4E06C1CEA11541DBF49
:100570001CEA135594EA0C0F95EA0C0F00F0DEF814
:100580002C4481EA030621EA4C5123EA4C5350EAF9
:10059000013518BF52EA033541F4801143F480134A
:1005A00038D0A0FB02CE4FF00005E1FB02E506F0DB
:1005B0000042E0FB03E54FF00006E1FB03569CF030
:1005C000000F18BF4EF0010EA4F1FF04B6F5007F36
:1005D00064F5407404D25FEA4E0E6D4146EB0606A8
:1005E00042EAC62141EA55514FEAC52040EA5E5031
:1005F0004FEACE2EB4F1FD0C88BFBCF5E06F1ED8DB
:10060000BEF1004F08BF5FEA500E50F1000041EB11
:10061000045170BD06F0004646EA010140EA0200BE
:1006200081EA0301B4EB5C04C2BFD4EB0C0541EAE0
:10063000045170BD41F480114FF0000E013C00F3F5
:10064000AB8014F1360FDEBF002001F0004170BD19
:10065000C4F10004203C35DA0C341BDC04F1140432
:10066000C4F1200500FA05F320FA04F001FA05F2BE
:1006700040EA020001F0004221F0004110EBD3708B
:1006800021FA04F642EB06015EEA430E08BF20EAB7
:10069000D37070BDC4F10C04C4F1200500FA04F35A
:1006A00020FA05F001FA04F240EA020001F00041EC
:1006B00010EBD37041F100015EEA430E08BF20EA5F
:1006C000D37070BDC4F1200500FA05F24EEA020EA7
:1006D00020FA04F301FA05F243EA020321FA04F0D6
:1006E00001F0004121FA04F220EA020000EBD3708D
:1006F0005EEA430E08BF20EAD37070BD94F0000F8D
:100700000FD101F00046400041EB010111F4801FC0
:1007100008BF013CF7D041EA060195F0000F18BF71
:10072000704703F00046520043EB030313F4801FAD
:1007300008BF013DF7D043EA0603704794EA0C0F67
:100740000CEA135518BF95EA0C0F0CD050EA41067D
:1007500018BF52EA4306D1D181EA030101F00041FA
:100760004FF0000070BD50EA410606BF1046194622
:1007700052EA430619D094EA0C0F02D150EA01362E
:1007800013D195EA0C0F05D152EA03361CBF10466F
:1007900019460AD181EA030101F0004141F0FE410E
:1007A00041F470014FF0000070BD41F0FE4141F492
:1007B000780170BD70B54FF0FF0C4CF4E06C1CEA92
:1007C00011541DBF1CEA135594EA0C0F95EA0C0F47
:1007D00000F0A7F8A4EB050481EA030E52EA033502
:1007E0004FEA013100F088804FEA03334FF0805523
:1007F00045EA131343EA12634FEA022245EA111550
:1008000045EA10654FEA00260EF000419D4208BF00
:10081000964244F1FD0404F5407402D25B084FEAAD
:100820003202B61A65EB03055B084FEA32024FF459
:1008300080104FF4002CB6EB020E75EB030E22BFB6
:10084000B61A754640EA0C005B084FEA3202B6EB76
:10085000020E75EB030E22BFB61A754640EA5C0025
:100860005B084FEA3202B6EB020E75EB030E22BFB5
:10087000B61A754640EA9C005B084FEA3202B6EBB6
:10088000020E75EB030E22BFB61A754640EADC0075
:1008900055EA060E18D04FEA051545EA16754FEAD7
:1008A00006164FEAC30343EA52734FEAC2025FEAF5
:1008B0001C1CC0D111F4801F0BD141EA00014FF084
:1008C00000004FF0004CB6E711F4801F04BF014355
:1008D0000020B4F1FD0C88BFBCF5E06F3FF6AFAE71
:1008E000B5EB030C04BFB6EB020C5FEA500C50F101
:1008F000000041EB045170BD0EF0004E4EEA113184
:1009000014EB5C04C2BFD4EB0C0541EA045170BD8A
:1009100041F480114FF0000E013C90E645EA060ECE
:100920008DE60CEA135594EA0C0F08BF95EA0C0FFC
:100930003FF43BAF94EA0C0F0AD150EA01347FF444
:1009400034AF95EA0C0F7FF425AF104619462CE71B
:1009500095EA0C0F06D152EA03353FF4FDAE10467E
:10096000194622E750EA410618BF52EA43067FF4CF
:10097000C5AE50EA41047FF40DAF52EA43057FF45F
:10098000EBAE12E7000000000000000000000000D5
:100990004FEA410212F5001215D211D56FF47873A7
:1009A000B3EB625212D94FEAC12343F0004343EA4A
:1009B000505311F0004F23FA02F018BF4042704725
:1009C0004FF00000704750EA013005D111F00040AF
:1009D00008BF6FF0004070474FF00000704700BF45
:1009E0004FEA4102B2F1E04324BFB3F5001CDCF151
:1009F000FE5C0DD901F0004C4FEAC0024CEA507089
:100A0000B2F1004F40EB830008BF20F001007047B7
:100A100011F0804F21D113F13872BCBF01F00040BA
:100A2000704741F480114FEA5252C2F11802C2F1EC
:100A3000200C10FA0CF320FA02F018BF40F001006D
:100A40004FEAC1234FEAD32303FA0CFC40EA0C001F
:100A500023FA02F34FEA4303CCE77FEA625307D15C
:100A600050EA01331EBF4FF0FE4040F44000704793
:100A700001F0004040F0FE4040F40000704700BF2D
:100A80004FF0FF3C06E000BF4FF0010C02E000BF5A
:100A90004FF0010C4DF804CD4FEA40024FEA4103FC
:100AA0007FEA226C18BF7FEA236C11D001B052EAB2
:100AB000530C18BF90EA010F58BFB2EB030088BF78
:100AC000C81738BF6FEAE17018BF40F001007047E7
:100AD0007FEA226C02D15FEA402C05D17FEA236CC9
:100AE000E4D15FEA412CE1D05DF8040B704700BF10
:100AF000844608466146FFE70FB5FFF7C9FF0028A7
:100B000048BF10F1000F0FBD4DF808EDFFF7F4FFDF
:100B10000CBF012000205DF808FB00BF4DF808ED78
:100B2000FFF7EAFF34BF012000205DF808FB00BF9B
:100B30004DF808EDFFF7E0FF94BF012000205DF8BD
:100B400008FB00BF4DF808EDFFF7D2FF94BF01206E
:100B500000205DF808FB00BF4DF808EDFFF7C8FF67
:100B600034BF012000205DF808FB00BF000000003A
:100B70004FEA4002B2F1FE4F0FD34FF09E03B3EBAA
:100B800012620DD94FEA002343F0004310F0004FEA
:100B900023FA02F018BF404270474FF00000704740
:100BA00012F1610F01D1420205D110F0004008BFDF
:100BB0006FF0004070474FF00000704700000000E9
:100BC000704700BFAFF30080AFF30080AFF3008049
:100BD000FEE700BFAFF30080AFF30080AFF300800B
:100BE00072B6644C84F30988022383F31488BFF33C
:100BF0006F8F61486149884218D2CA1C051D531B7A
:100C000023F00302034610184FF055318342196058
:100C1000C2F380020AD01AB185422B46296005D062
:100C20001D1D5960083383426960F9D15448A042C0
:100C300018D25449041D0A1B22F003050346281844
:100C40004FF0553183421960C5F380020AD01AB1C2
:100C500084422346216005D01D1D5960083383421C
:100C60006960F9D102F07CFB4749484881421BD2B8
:100C7000C61C0C1D321B464822F00302161D0568D7
:100C80000423B3420D60C2F380020DD022B1456847
:100C90000823B342256007D01D581A1D5D508458A3
:100CA0000833B3428C50F7D13A483B49884217D2B7
:100CB000CB1C041D1A1B22F0030503462818002133
:100CC00083421960C5F380020AD01AB184422346D8
:100CD000216005D01D1D5960083383426960F9D138
:100CE000FFF76EFF2D4D2E498D421DD2CC1C2E1DBF
:100CF000A71BB808471C01242A6800EA040890478B
:100D0000BC4211D0B8F1000F05D0336802249847D7
:100D1000BC42354608D0696888470234A8682E1D51
:100D200080470835BC42F6D1FFF712FA1D4D1E4A26
:100D300095421DD2D41C2E1DA71BBB085F1C01248D
:100D4000296803EA04088847BC4211D0B8F1000FB3
:100D500005D0306802248047BC42354608D06A6816
:100D600090470234AB682E1D98470835BC42F6D137
:100D7000FFF72EFF000800200000002000040020E4
:100D800000040020030800200008002000080020C4
:100D9000D84300080008002030120020500100084D
:100DA000500100085001000850010008AFF3008016
:100DB000FEE700BFAFF30080AFF30080AFF3008029
:100DC00072B6FEE7AFF30080AFF30080AFF30080B0
:100DD00000F086F900F044FC00F09AF900DF00BF53
:100DE000EFF30983203383F30988002383F3118809
:100DF000704700BFAFF30080AFF30080AFF3008017
:100E000008B54FF440724FF46D43CEF20003C0F2C8
:100E1000FA520021996007201021DA6000F0A8F84A
:100E20000A204FF4007100F0A3F80B208021BDE8E8
:100E3000084000F09DB800BFAFF30080AFF3008022
:100E4000202383F311884FF46D43CEF200035868DA
:100E500010F400631AD0EFF30983A3F1200282F3A8
:100E6000098811494FF080708A6943F8040C92F8A0
:100E7000230009689268896858B1914294BF0022A2
:100E8000012262B1094A43F8082C704783F31188A4
:100E90007047914234BF00220122002AF2D1044857
:100EA00043F8080C704700BF340D0020D10D000836
:100EB000DC0D0008AFF30080AFF30080AFF30080DB
:100EC00008B500F07DF9202383F3118800F040F984
:100ED00000F0B6F800F054F9002383F3118800F015
:100EE0008FF9BDE80840FFF7ABBF00BFAFF300804C
:100EF0002DE9F04FC1F80CD0D0F80CD0BDE8F08F40
:100F000008B500F005F9002383F311882846A047AF
:100F100000F0C6FC08BD00BFAFF30080AFF3008057
:100F200000F0030370B4DA00FF2505FA02F500F0C3
:100F30001F0401FA02F1012202FA04F24FF46143A4
:100F40008408CEF20003C03453F82460400926EA36
:100F500005050D4300F1600643F8245043F82620B0
:100F600043F8202070BC7047AFF30080AFF30080DF
:100F700000F0030310B4FF22DC0002FA04F201FACD
:100F800004F180084FF46D43CEF20003063053F8AD
:100F9000204024EA02020A4343F8202010BC704794
:100FA000024B034A98698261FEE700BF340D0020BE
:100FB000203B0008AFF30080AFF30080AFF3008068
:100FC00030B583B0FFF71CFF00F00AFA00F0A0F97B
:100FD00000F03EFF00F084FF00F062F940F60000F0
:100FE0004021C2F2000000F04BFB40F20043C2F28D
:100FF0000003012540F63454C361C2F2000480F8B6
:101000002050A06100F054F8002383F3118862B6E9
:1010100043F6A041A269C0F60001916140F650007C
:10102000009340F6A173C0212A46C0F60003C2F225
:10103000000000F0A5FB03B030BD00BFAFF300809F
:10104000F8B500F0FDF8164B986990F8232012B11E
:10105000511E80F82310446A124D631C4362E868F5
:101060002C68421CAC42EA6018D0A768013FA76018
:10107000A7B92168E6684D60E760296000F080F854
:10108000002383F311882069B047202383F311885C
:1010900000F05EF82C68A368002BEAD0F8BD00BF12
:1010A000340D0020240D0020AFF30080AFF300804A
:1010B000054B186810B905490A6822B10448054B68
:1010C0001860FFF77DBE7047100900201C0D00203E
:1010D000403B0008200D0020AFF30080AFF30080FC
:1010E000074B10B51868074C08B9216821B1064AAA
:1010F000064B1A60FFF764FE0120206010BD00BFA0
:10110000100900201C0D0020483B0008200D002085
:10111000084B10B51868084C28B92168002902DD71
:101120000020206010BD054A054B1A60FFF748FEFD
:10113000F6E700BF100900201C0D0020503B0008FE
:10114000200D0020AFF30080AFF30080AFF30080EC
:10115000074B10B51868074C002801DD216821B144
:10116000054A064B1A60FFF72BFE0120206010BDD8
:10117000100900201C0D0020583B0008200D002005
:10118000084B10B51868084C002805DD21680029B7
:1011900002DD0020206010BD044A054B1A60FFF7F5
:1011A0000FFEF6E7100900201C0D0020603B000830
:1011B000200D0020AFF30080AFF30080AFF300807C
:1011C00010B5202383F31188094C2168002902DB24
:1011D000084A106828B10849084B1960FFF7F0FD6C
:1011E00021684A1C2260002383F3118810BD00BFD0
:1011F000100900201C0D0020683B0008200D002075
:1012000010B5202383F31188094C2168002902DDE1
:10121000084A106828B10849084B1960FFF7D0FD4B
:1012200021684A1E2260002383F3118810BD00BF8D
:10123000100900201C0D0020703B0008200D00202C
:10124000064B1868002804DB05490A68002A00DDFF
:1012500070470448044B1860FFF7B2BD1009002026
:101260001C0D0020783B0008200D0020AFF300800B
:10127000064B186820B906490A68002A00DD704745
:101280000448054B1860FFF79BBD00BF1009002004
:101290001C0D0020803B0008200D0020AFF30080D3
:1012A00040F61413C2F200031A46402142F8081B0C
:1012B0005A607047AFF30080AFF30080AFF3008057
:1012C0000C4910B40C4ACC680C49536889691C60FD
:1012D0005960846A03F110019C6090F8204002F587
:1012E000816081421C732ABF02F108035160536080
:1012F00010BC7047240D002014090020340D00207C
:1013000040F62053C2F200031860FFF759BD00BF3A
:1013100040F62453C2F200034FF0FF3200205B601E
:101320001B609A60D8607047AFF30080AFF3008015
:10133000F8B505460C4616461F46FFF781FFCDB1AE
:10134000C6B1BCB10D492F610B68EE609A6894423A
:1013500004D91B68A41A9A68A242FAD358688B422F
:101360002B60686005605D60AC6002D099680C1B02
:101370009C60F8BD0248FFF7C3FFE3E7240D00209F
:10138000903B0008AFF30080AFF30080AFF3008024
:1013900010B50446FFF754FF84B1E36893B12068A9
:1013A0000A4A904203D08168A368CA1882606268C2
:1013B000002110602068E160426010BD0448FFF722
:1013C0009FFFEAE70348FFF79BFFE8E7240D0020B3
:1013D000A03B0008B03B0008AFF30080AFF30080F3
:1013E00040F63453C2F2000300225B601B609A6037
:1013F0005B611B61704700BFAFF30080AFF30080FB
:1014000010B50446FFF71CFF94F820308BB10E2B6B
:101410000FD00022A168094884F820200068836862
:101420008B42FBD24168206061600C6044602046C2
:1014300010BD0348FFF764FFEBE700BF340D002049
:10144000D03B0008AFF30080AFF30080AFF3008023
:1014500010B52023044683F31188FFF779FE94F832
:1014600020300D2B11D8DFE803F016101007100BF9
:10147000101010101010100BA06A8268511C8160AF
:1014800094E80C001A60206843604FF0FF33A362B9
:101490002046FFF7B5FFFFF773FE002383F31188A3
:1014A00010BD00BFAFF30080AFF30080AFF300804A
:1014B00070B5114C0646FFF7DBFE2368A5691A6874
:1014C00014210120546085F8206085F8231083F8EA
:1014D000200028462260A361FFF7F2FEEB69ADF120
:1014E0002402934202D90548FFF70AFFA069294662
:1014F000BDE87040FFF7FCBC340D0020E43B000861
:1015000070B50C4686B00646FFF7B2FE631C12D0DB
:101510000B4D2146AB690B4A01A8FFF709FF304686
:10152000FFF7C6FF049B13B101A8FFF731FFA869BD
:10153000806A06B070BD3046FFF7BAFF004DF6E78F
:10154000340D002051140008AFF30080AFF3008089
:1015500070B5144D04460E46FFF78AFEA869A268CE
:101560008368A6629A4213D9FFF74AFF0121064613
:1015700084F82010AC61FFF7A3FEF069ADF12402FE
:1015800090420AD820463146BDE87040FFF7B0BC13
:101590002046BDE87040FFF733BF0348FFF7B0FEB9
:1015A000F0E700BF340D0020E43B0008AFF30080FB
:1015B00038B5104C01212368A5691A6814205460BD
:1015C00083F8201085F8230028462260A361FFF7E6
:1015D00017FF2846FFF774FEEB69ADF12402934232
:1015E00002D90548FFF78CFEA0692946BDE83840BE
:1015F000FFF77EBC340D0020E43B0008AFF3008011
:1016000070B5144E01213368B5691A680020AC68C2
:10161000566083F820103260B36185F8200000E046
:101620001B689A68A242FBD859682B6069602846FB
:101630005D600D60FFF744FEEB69ADF1240083426D
:1016400002D90548FFF75CFEB0692946BDE8704045
:10165000FFF74EBC340D0020E43B0008AFF30080E0
:10166000044B986990F8231009B1FFF7C9BFFFF741
:101670009FBF00BF340D0020AFF30080AFF30080A8
:101680002DE9F00140F63454C2F2000465690022ED
:10169000046100F13006816000F12C0C00F14C0770
:1016A00045614FF00208606141641424012180F813
:1016B000208080F8212080F823400264C2634262C7
:1016C00080F8221082612861C0F82CC0466306634E
:1016D000C761BDE8F0017047AFF30080AFF3008051
:1016E0002DE9F04704460D4690469946FFF7A8FDC0
:1016F0000CB1AF2D35D81E48FFF702FE1D4EA5F1E7
:101700002403E7187169E76044F80390089B0025FB
:101710007B60194B04F130023B62022384F82030D5
:10172000142304F12C0A04F14C0C84F82330012317
:101730002661C4F8088061612046746184F82150F4
:10174000C4F844802564E563656284F82230A561AD
:101750000C61C4F82CA062632263C4F81CC0BDE80D
:10176000F087B8F17F0FC6D8B9F1000FC6D1C2E734
:10177000003C0008340D0020010F0008AFF300808A
:101780002DE9F04F9B4683B080468946924600F192
:101790004C0300F1010400F14D07FF26254604F833
:1017A000016C05F8016B6C1CBC42F7D108EB090712
:1017B000BB4215D218465526DA4300F8016BB9181A
:1017C000B84201F001030BD01BB100F8016BB84225
:1017D00006D0054605F8016B4670681CB842F8D182
:1017E000202383F31188FFF77BFC0C9C5B46524659
:1017F000494600944046FFF773FF00210446FFF777
:10180000A7FEFFF785FC002383F31188204603B071
:10181000BDE8F08FAFF30080AFF30080AFF300803E
:1018200010B5044610B90948FFF76AFD202383F379
:101830001188FFF755FC21460620FFF761FEFFF7F0
:1018400067FC002383F3118810BD00BF403C0008F3
:1018500038B5104B9C69254655F82C1FA062A9424B
:1018600007D00A680846E262FFF7CAFDE16AA942AA
:10187000F7D194F82100830704D1636922691A61C2
:1018800021694B610E20FFF713FE0348BDE8384085
:10189000FFF736BD340D0020503C0008AFF3008048
:1018A00010B52023044683F31188FFF719FC204666
:1018B000BDE81040FFF7CCBFAFF30080AFF300806E
:1018C00010B5044620B1002364602460A36010BDFD
:1018D0000148FFF715FDF6E7C03C0008AFF30080B4
:1018E000F8B53B4B05469C69FFF7C2FC002D6BD059
:1018F000A868002836D0A2688168914208D290F882
:1019000020308260042B45D0052B30D0002B1ED018
:1019100028460068854203D08168A2689142F8D2C7
:101920004368206063601C604460A5620420FFF788
:10193000BFFDA868A04202D02648FFF7E1FC216C59
:10194000A94213D02448BDE8F840FFF7D9BC90E87D
:101950000C001A600268012180F820105360FFF724
:101960004FFDD5E7206CAC60E8602564F8BD4168A8
:101970000768866A0F600768334679601B689E4275
:1019800002D099689142F9D25A68036042601060AF
:101990005860BDE741680768866A0F60076833468C
:1019A00079601B689E420DD099689142F9D25A68BD
:1019B0000360426010605860B068A2688368934218
:1019C0009DD3A5E73346F2E70448FFF799FC8FE77C
:1019D000340D0020E03C0008F43C0008D03C000836
:1019E00010B52023044683F31188FFF779FB2046C6
:1019F000FFF776FFFFF78CFB002383F3118810BD00
:101A00001E4A70B52023956983F31188FFF768FBA0
:101A10002C6C002C2DD0A368AB4203D01848FFF7E4
:101A20006FFC2C6C2668E368A6422B641ED0696CA0
:101A30004BB11A689A4203D09068814238BF014680
:101A4000DB68002BF5D13368326CA9603046236027
:101A500000215C60A660E2603464FFF779FDFFF767
:101A600057FB002383F31188204670BD0020A0603F
:101A7000F5E70448FFF744FC2C6CCCE7340D00205C
:101A8000303D00081C3D0008AFF30080AFF300803C
:101A900038B504460D46FFF7D3FBC4B1E26B94F8AA
:101AA000203045EA0201082BE1630CD0092B00D05D
:101AB00038BDA06A01408842FAD12046FFF7A0FC59
:101AC0000023836238BDA26A1142F6D138BD0248B4
:101AD000FFF716FCE2E700BF9C3D0008AFF3008073
:101AE00070B505460E46FFF7ABFB6DB12C68A542FD
:101AF00009D0E36860683343E360A168FFF7C8FF7B
:101B00002468A542F5D170BD0148FFF7F9FBEDE768
:101B1000C03D0008AFF30080AFF30080AFF300805A
:101B200010B4024659B1084B0D209B699A62546863
:101B300083E814005360236010BCFFF7E1BC4FF052
:101B4000FF3010BC704700BF340D0020AFF30080A1
:101B500010B4C361019B8A18002440600060846057
:101B600041618161C1600261036210BC704700BFC6
:101B700038B504460D46FFF763FB6369A269A068A8
:101B800093421AD0411CA16003F8015B2269636192
:101B900093420BD22068A0420DD0016821604C60B6
:101BA000FFF72EFC00228262104638BD2068E368F1
:101BB000A0426361F1D1002038BD0028E2D06FF06F
:101BC000030038BDAFF30080AFF30080AFF30080B7
:101BD000F8B504460E46202383F31188FFF780FAF8
:101BE000E3690BB120469847A5682046314655B9B0
:101BF000FFF796FF071EF7DAFFF78AFA2B4683F303
:101C000011883846F8BDA069013DA56010F8017B38
:101C10002269A061904224BFE068A061FFF778FAD2
:101C2000002383F311883846F8BD00BFAFF300806E
:101C30002DE9F0470446154688461E46C769002A26
:101C40003AD0202383F31188FFF74AFA08F1010AFA
:101C50004FF00009A8440FB12046B847A5682046B8
:101C600031465DB9FFF75CFF0028F7D0FFF750FA67
:101C70002B4683F311884846BDE8F087A369013DF0
:101C8000A56013F8012B0AF8012C2069A361834297
:101C900024BFE368A361FFF73BFA002383F31188B5
:101CA000C24509F10109E6D0202383F31188FFF72B
:101CB00017FA0AF1010ACEE70148FFF721FBC0E756
:101CC000003E0008AFF30080AFF30080AFF3008068
:101CD00010B4C361019B8C18406000608260416158
:101CE0008161C1600461036210BC7047AFF3008082
:101CF0002DE9F041202304468846164683F31188D7
:101D0000FFF7EEF9A568204631465DB9FFF708FFF9
:101D1000071EF7DAFFF7FCF92B4683F311883846E4
:101D2000BDE8F0816369013DA56003F8018B22697C
:101D30006361934228BFE368E16928BF636109B129
:101D400020468847FFF7E4F9002383F311881F46F4
:101D50003846BDE8F08100BFAFF30080AFF30080EC
:101D600038B50446FFF76CFAA3696269A0689A4225
:101D700016D0411CA16013F8015B2269A361934254
:101D80000BD22068A04206D0016821604C60FFF7AA
:101D900037FB00228262284638BDE368A361F0E782
:101DA0000028E6D06FF0020038BD00BFAFF300801E
:101DB0002DE9F0470446164688469A46D0F81C900E
:101DC000002A39D0202383F31188FFF789F90027EF
:101DD000A56820466B1E0DB3A360656918F8011B4A
:101DE00005F8011B22696561954224BFE2686261C2
:101DF000B9F1000F00D0C847FFF78AF9002383F339
:101E000011880137013E14D0202383F31188FFF796
:101E100067F9A56820466B1E002DDDD1204651468E
:101E2000FFF77EFE0028D3D0FFF772F92B4683F32D
:101E300011883846BDE8F0870148FFF761FAC1E72D
:101E4000143E0008AFF30080AFF30080AFF30080D2
:101E500040F20001084840F6545240F65053C2F296
:101E60000101C2F2000220F00700C2F2000321F0DB
:101E7000070110601960704737120020AFF300802F
:101E800010B50446FFF7DCF9074A084913680968EA
:101E9000E01D20F00700C91A88429ABF1818106088
:101EA0000023184610BD00BF540D0020500D002027
:101EB00010B52023044683F31188FFF711F920465B
:101EC000FFF7DEFF0446FFF723F9002383F31188B1
:101ED000204610BDAFF30080AFF30080AFF3008069
:101EE00040F65853C2F2000341F6B1610022C0F639
:101EF000000103F1100019609A60DA60FFF7E0BC9E
:101F000008B500F0DDFB00F0A3F944F2E010C0F6E4
:101F1000000000F075FC00F00BF800F0F9F8BDE8E7
:101F2000084001F025BA00BFAFF30080AFF3008096
:101F300000F006BFAFF30080AFF30080AFF3008086
:101F400001230021037041600C30FFF7B9BC00BFD2
:101F500038B504460D46D0B1C9B123785A1E012ABE
:101F600004D9052B02D00C48FFF7CAF9202383F3CC
:101F70001188FFF7B5F82046656000F0F9FE0220F1
:101F80002070FFF7C5F8002383F3118838BD03489C
:101F9000FFF7B6F9E1E700BF403E0008303E000819
:101FA00010B5044608B1A06810BD0248FFF7A8F9B3
:101FB000A06810BD6C3E0008AFF30080AFF3008056
:101FC0002DE9F04685B004460F46924699460D9D90
:101FD0000E9E08B1002928D11B48FFF791F92078FF
:101FE000022802D01948FFF78BF9202383F31188C8
:101FF000FFF776F80C9B00210322A1602270204697
:102000008DE8680039464B46524601F001F8431C02
:10201000054615D002232370FFF77AF8002383F3D7
:102020001188284605B0BDE8F086002BD4D0002AE0
:10203000D2D015B10C9B002BCED0002ECFD1CBE748
:1020400005202070E8E700BF803E0008A03E0008A1
:1020500010B5044628B104F10C00BDE81040FFF7AC
:10206000BFBC0248FFF74CF9F5E700BFF43E00089B
:1020700008B518B1BDE80840FFF7C2BC0148FFF73A
:102080003FF9F7E7083F0008AFF30080AFF30080A7
:102090000C30FFF7CDBD00BFAFF30080AFF3008081
:1020A0000C304FF0FF33FFF7C3BD00BFAFF300802C
:1020B0003030FFF77DBE00BFAFF30080AFF300808C
:1020C00030304FF0FF33FFF773BE00BFAFF3008037
:1020D0000C30FFF77DBD00BFAFF30080AFF3008091
:1020E0000C304FF0FF31FFF773BD00BFAFF300803E
:1020F0003030FFF7FDBD00BFAFF30080AFF30080CD
:1021000030304FF0FF32FFF7F3BD00BFAFF3008078
:1021100001F0CEB8AFF30080AFF30080AFF30080E2
:1021200070B50B4643F680710546C0F600010446C3
:1021300045F8041B82B065600125164604F1540180
:102140001022257200F10C000094FFF701FD0094AD
:1021500004F1300004F1640110223346FFF7B8FDAA
:1021600002B070BDAFF30080AFF30080AFF300802A
:1021700038B504460D46B8B1202383F31188FEF725
:10218000AFFF237A581E012802D90948FFF7B8F893
:102190002046294601F0A4F802212172FEF7B8FF7B
:1021A000002383F3118838BD0248FFF7A9F8E3E75D
:1021B0002C3F0008203F0008AFF30080AFF3008001
:1021C00038B504460D46FFF73BF8D4B163693BB11F
:1021D00004F10C002946FFF7CBFC00280BDB38BDCF
:1021E000201D0421FFF77CFC04F10C002946FFF7B9
:1021F000BFFC0028F3DA201D8021BDE83840FFF73E
:102200006FBC0248FFF77CF8E0E700BF583F0008CA
:102210004FF48053CEF2000359688160704700BFCD
:102220004FF48053CEF20003084982685B68096866
:102230009B1AC268591A9142816004D80369994275
:1022400038BF01617047C160704700BF780D002042
:1022500010B540F6785486B00022C2F200044FF068
:10226000FF304FF48053226004920590CEF20003B9
:10227000596842F2112242F2212301A8C0F600025D
:10228000C0F60003019202930391FFF7C9FF039880
:10229000206006B010BD00BFAFF30080AFF3008038
:1022A00008B5FEF78DFF0023C4F202030748196842
:1022B000026801F00F0159600AB140689047FEF7CB
:1022C0009FFFBDE80840FEF7BBBD00BF7C0D0020AE
:1022D00010B5FEF775FF0023C4F202031968074822
:1022E000C1F3031182680C015C600AB1C0689047B9
:1022F000FEF786FFBDE81040FEF7A2BD7C0D002072
:1023000010B5FEF75DFF0023C4F202031968074809
:10231000C1F3032102690C025C600AB14069904775
:10232000FEF76EFFBDE81040FEF78ABD7C0D002071
:1023300010B5FEF745FF0023C4F2020319680748F1
:10234000C1F3033182690C035C600AB1C069904734
:10235000FEF756FFBDE81040FEF772BD7C0D002071
:1023600010B5FEF72DFF0023C4F2020319680748D9
:10237000C1F30341026A0C045C600AB1406A9047F1
:10238000FEF73EFFBDE81040FEF75ABD7C0D002071
:1023900010B5FEF715FF0023C4F2020319680748C1
:1023A000C1F30351826A0C055C600AB1C06A9047B0
:1023B000FEF726FFBDE81040FEF742BD7C0D002071
:1023C00010B5FEF7FDFE0023C4F2020319680748AA
:1023D000C1F30361026B0C065C600AB1406B90476D
:1023E000FEF70EFFBDE81040FEF72ABD7C0D002071
:1023F00008B5FEF7E5FE4FF48063C4F20203074818
:102400001968826B01F00F0159600AB1C06B9047E7
:10241000FEF7F6FEBDE80840FEF712BD7C0D002079
:1024200010B5FEF7CDFE4FF48063C4F202031968C5
:102430000748C1F30311026C0C015C600AB1406CE7
:102440009047FEF7DDFEBDE81040FEF7F9BC00BF87
:102450007C0D0020AFF30080AFF30080AFF300806D
:1024600010B5FEF7ADFE4FF48063C4F202031968A5
:102470000748C1F30321826C0C025C600AB1C06C96
:102480009047FEF7BDFEBDE81040FEF7D9BC00BF87
:102490007C0D0020AFF30080AFF30080AFF300802D
:1024A00010B5FEF78DFE4FF48063C4F20203196885
:1024B0000748C1F30331026D0C035C600AB1406D43
:1024C0009047FEF79DFEBDE81040FEF7B9BC00BF87
:1024D0007C0D0020AFF30080AFF30080AFF30080ED
:1024E00010B5FEF76DFE4FF48063C4F20203196865
:1024F0000748C1F30341826D0C045C600AB1C06DF2
:102500009047FEF77DFEBDE81040FEF799BC00BF86
:102510007C0D0020AFF30080AFF30080AFF30080AC
:102520002DE9F00F40F6DC5086B0C2F200000290B8
:102530004FF48660C4F20200019040F24440C4F2BD
:10254000020003904FF48B60C4F2020004904FF439
:102550008060C4F202000590002102980A460260E1
:102560004FF0080B019840F67C534FF01C0A4FF0D7
:1025700030094FF044084FF0580C6C2780264FF478
:10258000816540F21C44C2F20003C4F2020BC4F2A3
:10259000020AC4F20209C4F20208C4F2020CC4F234
:1025A0000207C4F20206C4F20205C4F20204CBF828
:1025B00000201A60CAF800209A60C9F800201A6149
:1025C000C8F800209A61CCF800201A623A609A623A
:1025D00032601A632A609A6322601A640260039868
:1025E0009A64026004981A6502609A65059B4FF030
:1025F000FF32C4F202014A605A6006B0BDE8F00F33
:10260000704700BFAFF30080AFF30080AFF30080EE
:10261000F0B5044685B000283ED0657A012000FA66
:1026200005FC224E37681CEA070F31D120484CEADE
:10263000070700EBC50CCCF804307B0640F83520CA
:10264000376007D04FF48053C4F202035D6945F050
:1026500001065E6117F4786F07D04FF48057C4F21B
:102660000207786940F002037B61236860681D6897
:102670000F2725F00F061E60267A002507FA06F6BA
:1026800006601D6032B1A07A0901FEF749FC2846B8
:1026900005B0F0BD1046FBE7064803910292019396
:1026A000FEF72EFE019B029A0399B6E7DC0D00208F
:1026B0007C0D0020A03F0008AFF30080AFF3008046
:1026C0004FF4805330B4C4F2020300214FF0FF34C2
:1026D00018694EF210021C611961DD68CEF2000229
:1026E000DC6048F69F44D9604EF6F050546091602B
:1026F00007211160CEF20000C2684FF4805142F011
:102700008072C260CEF2000108684FF4E04240F0EF
:1027100001000860D969C4F2000241F08050D8611C
:10272000D96941F00060D861136843F48071116089
:1027300030BCFFF7F5BE00BFAFF30080AFF3008001
:102740004FF48053C4F202031A68194642F00100A4
:1027500018600A684FF480539007C4F20203F8D55A
:10276000002159601868194600F0F9021A6048689B
:102770004FF4805310F00C0FC4F20203F7D11A6823
:10278000194642F4803018600A684FF4805392036F
:10279000C4F20203F8D548F24461D96218681946B8
:1027A00040F080621A6008684FF480530001C4F260
:1027B0000203F8D55A68194642F4E01058601A68C6
:1027C00042F0807018600A684FF480539201C4F29E
:1027D0000203F8D54FF4C8414FF40050C0F21C0179
:1027E000C4F202001122596002605968184641F093
:1027F00002025A60436803F00C010829FAD17047BD
:102800004FF48053C4F202039A6910B442F07D0180
:10281000996104684FF40062C4F20102D4608168D7
:102820004FF4406351604468C4F201031460C2680D
:102830004FF48051DA604469C4F201015C600469BC
:102840004FF4A0521C608369C4F20102CB60046A99
:102850004FF4C0534C60C469C4F201030C60416A78
:10286000D160C16A5160816A1160026BDA60816B6C
:102870005960406B186010BC704700BFAFF3008018
:10288000032AF0B400F09980042A08BF41614C4B40
:1028900001F080049B5C002C01F4004214BF1F4631
:1028A000002714BF00260F26002A14BF1D4600254E
:1028B0004FEA41024FEA06140CBFF0260026390108
:1028C0002D0112F0800F14BF194344F00F0412F4CD
:1028D000004F14BF1D4346F00F065200240136017D
:1028E00009012D0112F0800F14BF194344F00F04A9
:1028F00012F4004F14BF1D4346F00F06520024018E
:10290000360109012D0112F0800F14BF194344F064
:102910000F0412F4004F14BF1D4346F00F0652007F
:102920002401360109012D0112F0800F14BF194353
:1029300044F00F0412F4004F14BF1D4346F00F067D
:1029400052002401360109012D0112F0800F14BF3D
:10295000194344F00F0412F4004F14BF1D4346F016
:102960000F0652002401360109012D0112F0800FDB
:1029700014BF194344F00F0412F4004F14BF1D4359
:1029800046F00F0652002401360109012D0112F014
:10299000800F14BF194344F00F04120448BF1D43B5
:1029A000436858BF46F00F061E4035434560026835
:1029B000144021430160F0BC7047016167E700BF2C
:1029C00080400008AFF30080AFF30080AFF30080D9
:1029D000026B436B30B4002114684FF400451D8036
:1029E00019809980998223680F2123F00F032360B7
:1029F000147AC36A01FA04F450681A68046014680F
:102A0000586824F00F0414601B7A01FA03F1016086
:102A100030BC7047AFF30080AFF30080AFF30080AD
:102A200038B50446202383F31188FEF791FBE5694E
:102A300055B12046FFF7CCFF00234FF0FF31E36193
:102A40002846A962FEF7DCFCFEF79AFB002383F31D
:102A5000118838BDAFF30080AFF30080AFF3008082
:102A600038B50B070546446B01D5FEF7A9F92B6B6A
:102A70001A685968106820F00F0010601B7A0F2246
:102A800002FA03F00860A1888BB243F40072A280BE
:102A900038BD00BFAFF30080AFF30080AFF300801C
:102AA0000A0770B50546446B2FD4EA6A20231168E3
:102AB00050680E6826F00F060E60127A0F2101FA98
:102AC00002F20260A08820F480510A04100CA08059
:102AD000218821F480621004010C2180228890B2A8
:102AE00040F40071218083F31188FEF731FBEB691C
:102AF0002BB10022EA6118469A62FEF781FCFEF7CC
:102B00003FFB002383F3118870BDFEF759F9CCE732
:102B1000F8B5494DFEF754FB6C6B0822238BA68A4F
:102B2000C0F20302B6B246EA034020F07F4393426C
:102B300054D013D98222C0F20702934253D084208A
:102B4000C0F2070083422ED016F00A0F18BF238B65
:102B5000FEF756FBBDE8F840FEF772B90121C0F25E
:102B600003018B422DD00222C0F203029342EBD12B
:102B7000A388E86A23F400710B040268180CA08093
:102B8000116841F001031360A08881B241F48053C1
:102B9000A3805368012BD7D8228822F480600104D7
:102BA0000B0C2380D0E7EF6A3B685F6847B323884C
:102BB0002A8C98B242F0010140F4A063298423805A
:102BC000C6E72B8C1A0A0CD003F0010343F0F00384
:102BD00002F0060043EA00012182B5E72B8CC3F323
:102BE00047032382B0E7A0882A6B20F400710B040E
:102BF00010681A0CA280016841F001030360A3E78A
:102C0000A188202321F400721004010CA1802288E5
:102C100090B240F40071218083F31188FEF798FA96
:102C2000E86918B18762EF61FEF7EAFBFEF7A8FAE0
:102C3000002383F3118887E7E00D0020AFF30080C5
:102C4000F8B53D4C636B9D8AFEF7BAFAADB2216BC5
:102C500005F45F40626B80F47F470E6887F0FF03E6
:102C6000938237680F2027F00F0333600E7AE36AF0
:102C700000FA06F74E68196837600F685E6827F03B
:102C80000F070F60197A05F4807300FA01F09BB208
:102C9000306003B1012305F4007081B2A36011B16B
:102CA00043F00203A36005F4806081B269B19088AB
:102CB00043F0040320F400710804010C9180108893
:102CC00081B241F400701080A36005F4006291B2FB
:102CD00011B143F00803A36005F4804082B212B141
:102CE00043F02003A36005F4805188B210B143F093
:102CF0001003A360290406D443B9FEF781FABDE8A6
:102D0000F840FEF79DB843F04002A260202383F311
:102D10001188FEF71DFAE06938B16FF00101064B2A
:102D200000228162DA61FEF76BFBFEF729FA0023CD
:102D300083F31188E1E700BFE00D0020AFF30080CE
:102D400010B540F6E054C2F200042046FFF7F8F850
:102D5000064B4FF4B042C4F20002A3F10C01002074
:102D6000E0616263E362216310BD00BF20400008A0
:102D700003789A222DE9F041044682628A20012BD1
:102D80006062656B00F086802E466268236BE06AA5
:102D900019685768006805F11003836092F808808D
:102DA00000208B604FF400424FF41061002F2A8006
:102DB0002880A98056DDC0F23D018F4252DCB388E5
:102DC00048F2A06223F03F0001040B0CB380B088EE
:102DD000C0F2010281B241F012039742B38045DC98
:102DE000B8F1010F02D07C48FEF78AFA4AF6800358
:102DF0007F00C0F2121393FBF7F207FB02F04AF6D2
:102E00008001C0F212110B1A002B40F08D804AF69F
:102E10008002C0F2121292FBF7F7B8B203287BD9F6
:102E2000390513230F0DB0F5805F338402D36B484F
:102E3000FEF766FA6268616B1078B7830B88022828
:102E40009BB263D003285ED0012803D123F00A028D
:102E500013041B0C0B8029888AB242F001032B80DB
:102E6000BDE8F0815E48FEF74BFAA8E74FF4D45274
:102E7000C0F2060297420BDCA8F10200012857D9E4
:102E80005848FEF73DFA48F6FF7706213184D1E72E
:102E90000027CFE7544EB4427FF476AF4FF4805111
:102EA000C4F202010F69002247F480030B61E06A5B
:102EB00023460A610A214D4AFFF7AAFB002840F089
:102EC0008380306B0A214A4A474BFFF7A1FB002859
:102ED00076D14FF48057C4F20207F969212041F4FA
:102EE0008003FB61A021FEF71BF82220A021FEF742
:102EF00017F8706AB76A40F4805247F480517262E2
:102F0000B162766B41E743F00A03A3E74FF6F7702F
:102F1000184040F002039DE73648FEF7F1F93A0504
:102F20001320170D308485E73348FEF7E9F96EE783
:102F3000B8F1020F1FD14AF6800107EB4707C0F234
:102F4000121191FBF7F307FB03F24AF68000C0F27F
:102F50001210811A59B94AF68003C0F2121393FB7A
:102F6000F7F76FEA47426FEA524087B28DE723488E
:102F7000FEF7C6F9EFE7B8F1030F29D107EB870792
:102F80004AF6800107EB8707C0F2121191FBF7F3B5
:102F900007FB03F24AF68000C0F21210811A59B9F9
:102FA0004AF68003C0F2121393FBF7F76FEA8742E9
:102FB0006FEA924087B268E71148FEF7A1F9EFE7A0
:102FC0001048FEF79DF984E70F48FEF799F978E776
:102FD00048F6FF7759E700BFE0400008704100085D
:102FE000C840000828410008E00D0020A12A000880
:102FF000612A000810410008F8400008404100081C
:1030000058410008B4400008A0400008AFF3008019
:103010002DE9F04E86B00F9F06468B4692469946A4
:10302000109D446B27B1012F63D90E98002860D002
:103030006B1C05D001A82946384A3346FEF778F9BB
:10304000FEF766F8002383F31188316BF26A096892
:103050001268B360B36A4FEA4B0BA6F820B0706AEF
:103060000B60C1F80CA0C1F804900E991060D160FB
:10307000576004E0FEF74CF8002383F31188228B9D
:10308000202302F0020081B221B9228802F40070EC
:1030900081B269B183F31188FEF722F8681CE9D088
:1030A000049A002AE6D14FF0FF3006B0BDE8F08E5A
:1030B00083F31188FEF714F8691C1ED004990029C7
:1030C000F1D0A388164D9AB242F40070A0802188F6
:1030D000AB698AB242F4807020800220F361FEF76F
:1030E000E7F9049911B101A8FEF752F9AB69986AA2
:1030F000DBE70C48FEF704F99AE7A388084D9AB27B
:1031000042F40070A0802188AB698AB242F48070DA
:1031100020800220F361FEF7CBF9E7E7212A0008BF
:10312000340D0020AC410008AFF30080AFF3008005
:103130004FF48843C4F200039A8990B240F08001B2
:1031400099817047AFF30080AFF30080AFF3008048
:10315000F8B5514FFEF734F87D6FAE892C88B6B2C2
:10316000A4B204F4807398B2002862D1202383F3C0
:103170001188FDF7EDFF04F020018AB25AB928E06A
:10318000A9884548C9B2FFF71BF8288884B204F023
:1031900020039AB2EAB12307F2D004F0080398B2F0
:1031A00004F00202002814BF8021002193B214F021
:1031B000010F04F00404394818BF41F02001A2B205
:1031C0000BB141F040010AB141F48071FEF788FC77
:1031D000D6E7FDF7D5FF002383F3118806F08001C1
:1031E00088B220B104F080039AB2002A37D104F0EB
:1031F0004004A4B2BCB1202383F31188FDF7A8FFDB
:1032000026481021FEF76CFCFDF7BAFF002383F37C
:1032100011884FF6BF723240AA81298821F0400000
:1032200003041A0C2A80FDF7EBFFBDE8F840FDF718
:1032300007BE202383F31188FDF78AFF381D4FF462
:103240000071FEF74DFCFDF79BFF002383F311880F
:10325000298821F480721304180C288086E7202323
:1032600083F31188FDF774FF0D48FEF779FD002800
:1032700007DB81B2A980FDF783FF002383F3118868
:10328000B5E706480821FEF72BFC26F0C00040F009
:103290004003AB81EFE700BF180E00201C0E00209A
:1032A000480E0020AFF30080AFF30080AFF3008042
:1032B00010B540F61864C2F2000443F23112204601
:1032C0000021C0F60002FEF72BFF4FF48843C4F242
:1032D0000003636710BD00BFAFF30080AFF3008051
:1032E00038B5037A1B4C0546002918BF0C46012B44
:1032F0001FD020684AF68001C0F212116B6FB1FB3B
:10330000F0F290B21881A288E088218942F4045238
:1033100040F0400080B241F0010142F02C021882DE
:1033200092B289B2002099829A8118801A889B886B
:1033300038BD09488542DCD14FF48051C4F2020106
:10334000CA69262042F40033CB61C021FDF7E8FDB5
:10335000CFE700BFD0410008180E0020AFF3008077
:10336000FFF7EEB9AFF30080AFF30080AFF300805A
:10337000704700BFAFF30080AFF30080AFF3008071
:10338000F0B4002B08BF0B46074600F10B0C00F110
:103390000A05B1FBF2F602FB161101F13004392CDB
:1033A000C8BF01F13704E4B2B3FBF2F3284631465B
:1033B00005F80149002BECD1C0EB0C03F9430246A0
:1033C000F8184318DB070AD507F8014B12F8014F2C
:1033D00005E012F8014F7C7012F8014F5F1C3B466C
:1033E00003F8014B8342F4D1F0BC7047AFF3008087
:1033F0000EB42DE9F04F8CB015AB0DF1190C53F84C
:10340000044B0DF11808CDF804C0C8EB0C0C0646AF
:103410000593CDF808C0254615F8011B59B125299B
:103420000ED034683046A3682C462546984715F8D8
:10343000011B0029F3D10CB0BDE8F04F03B0704779
:1034400063782D2B00F0CC814FF000092E2B00F07B
:10345000C381302B00F0C08120272C460599002520
:1034600006E00A78043105EB8505237802EB450573
:10347000A3F13002D2B20134092AF4D92A2BF0D0B8
:1034800000202E2B059149D06C2B55D04C2B53D0BE
:10349000A3F1410119298CBF00210121A3F14402AC
:1034A000342A00F29381DFE812F081019101910149
:1034B000910191018101910191019101910191018C
:1034C0007F01910191019101910191017701910198
:1034D0009101690191019101910191019101910184
:1034E00091019101910191012A0181019101E50070
:1034F000910191018101910191019101910191014C
:103500007F019101910191014F009101770191019A
:10351000910169010A78043102EB4A0014F8013B79
:1035200000EB800AA3F13002D2B2092AF4D92A2B87
:10353000F0D06C2B0591A9D12178002900F055819C
:103540000B4601340121A9E7059FAB493B683A1DB1
:10355000002B14BF9A468A469AF8007047F6FF730C
:103560000592002808BF1846002F00F065819AF8E0
:103570000170421E0AEB000B02F001000AF1010289
:10358000002F73D09345134608D0002869D0517896
:10359000013200296AD09345134662D1CAEB0B0B66
:1035A000CBEB0505202725EAE575B9F1000F00F002
:1035B000B880BBF1000F27DDD146306819F8011B38
:1035C000D3446FEA0A0E826830460BEB0E0A90472E
:1035D000D9450AF0010A17D0BAF1000F03D03368B9
:1035E00019F8011B0BE03068CA461AF8011B826803
:1035F00030469047336899F801100AF101099A683A
:1036000030469047D945EED1002D3FF404AF3168E4
:103610006B1E8A681D463046394603F00109904703
:10362000002D3FF4F8AEB9F1000F07D031683046F5
:103630008B6839469847013D3FF4EDAE3068394616
:103640008268304690473168013D8B683046394684
:103650009847013DF2D1DEE65178013231B19B4508
:103660009CD05F785A1C531C002FF5D1CAEB020B7B
:1036700020274EE0059AD01D20F0070303F1080231
:10368000D3E900010592FDF7ABF900218246FDF771
:1036900045FA002840F0C880C3465046FDF768FA56
:1036A00003900A22002358460399FFF769FE8446D7
:1036B0002E200CF8010B5046CDF800C0FCF7FCFEA4
:1036C000824603988B46FCF7E5FE02460B465046C1
:1036D0005946FCF791FD46A3D3E90023FCF740FFD0
:1036E000FDF756F9DDF800C001460A22604642F2B5
:1036F0001073FFF745FEC246C8EB000B09E0059FBB
:10370000DDF808B03A683B1D05938DF81820202796
:10371000C246CBEB050525EAE575B9F1000F7FF44C
:1037200048AF6D42002D3FF444AF9AF800102D29A8
:103730006FD0316830468B6839466FEA0509984783
:10374000013509F001093FF434AFB9F1000F07D09A
:103750003268304693683946984701353FF429AFBF
:1037600030683946826830469047316801358B6849
:103770003046394698470135F2D11AE71022059BA9
:1037800071B1191D0591196840460023FFF7F8FD36
:10379000C246C8EB000BBCE70A22059B0029F0D10A
:1037A000181D19680590EFE70822E8E7059B1A1D28
:1037B00021B319680592002924DB40460A22002320
:1037C000FFF7DEFDC246C8EB000BA2E78DF818300C
:1037D000DDF808B0C2469CE76B78302701353CE63F
:1037E000A51CA3784FF0010930E6012156E600BF81
:1037F00000000000006AF8402042000819680592A5
:103800000029DADA2D208DF8180049420DF119004F
:10381000D4E7302F8DD1336830469A6890470AF14B
:10382000010A0BF1FF3B84E72D210AF1004A8DF8D4
:1038300018100DF1190B30E7BB46202769E700BFD0
:10384000F0B5F82387B0002604460D468DF81130F8
:103850008DF81060FEF7FCFB0420029000960196A4
:103860002046294604AA0223FEF7AAFB0746204663
:10387000FEF7FEFB002F3BD10121202220468DF8D0
:1038800010108DF811200026FEF7E2FB04230293AE
:10389000009601962046294604AA0223FEF790FBD3
:1038A00007462046FEF7E4FBEFB900260227204634
:1038B0008DF810708DF81160FEF7CAFB042002909D
:1038C000294600960196204604AA3B46FEF778FB5F
:1038D00005462046FEF7CCFB1DB12046074900F007
:1038E0004FF807B0F0BD2046044900F049F8DCE786
:1038F0002046024900F044F8BEE700BF180E002041
:103900002DE9F04188B008AC1E460323054604F8B3
:10391000083D88461746FEF79BFB04A806210422B3
:103920000090019102922846224641460123FEF76B
:1039300047FB04462846FEF79BFB1CB128460E4970
:1039400000F01EF89DF813209DF812009DF810500D
:103950009DF811109DF814409DF8153042EA0020A2
:103960000E9A41EA052143EA04233980338010800E
:1039700008B0BDE8F08100BF180E0020AFF3008052
:1039800038B50C46054631492046FFF731FD28463B
:10399000FEF706FB01383F2835D8DFE800F0393E56
:1039A000344334343448343434343434344D34349B
:1039B00034343434343434343434343434523434A9
:1039C00034343434343434343434343434343434B7
:1039D00034343434343434343434343434202046BD
:1039E0001B49FFF705FD1B491B48FFF701FD4FF47D
:1039F0007A70FDF715FF18481849FFF7F9FCBDE884
:103A00003840FDF7DDB920461549FFF7F1FCEAE73C
:103A100020461449FFF7ECFCE5E720461249FFF782
:103A2000E7FCE0E720461149FFF7E2FCDBE7204630
:103A30000F49FFF7DDFCD6E720460E49FFF7D8FC1B
:103A4000D1E720460C49FFF7D3FCCCE73042000811
:103A5000F042000808430008180E00203443000814
:103A600000430008744200088042000894420008A5
:103A7000AC420008C0420008DC420008AFF30080FE
:103A800010B50D480D49FFF7B3FC4FF44063C4F285
:103A900001034FF4807280201A611C465861E1686E
:103AA000FA2081F48073E360E26882F08001E160D3
:103AB000FDF7B6FEF3E700BF180E002090430008A4
:103AC00030B5134885B01E21FFF7BAFE11481249E0
:103AD000FFF78EFC0DF10E0500240DF10A0203AB79
:103AE0001E2100950A48ADF80A40ADF80C40ADF82B
:103AF0000E40FFF705FFBDF80E10BDF80A2000913B
:103B0000BDF80C3003480549FFF772FCE5E700BF3C
:103B1000E00D0020180E0020A4430008BC4300085C
:103B200069646C65000000000000000000000000F7
:103B3000535623310000000053562332000000008A
:103B40005356233300000000535623340000000076
:103B50005356233500000000535623360000000062
:103B6000535623370000000053562338000000004E
:103B70005356233900000000535623313000000013
:103B80005356233131000000000000000000000007
:103B900022636856545365744922282900000000A6
:103BA00022636856545265736574492228290000BF
:103BB0006368565452657365744928292C20233153
:103BC00000000000000000000000000000000000F5
:103BD000636853636852656164794928292C2023FE
:103BE00031000000737461636B206F766572666CE0
:103BF0006F770000000000000000000000000000DF
:103C00002263685468644372656174654922282997
:103C10000000000022636854686453657450726940
:103C20006F72697479222829000000006368546863
:103C300064526573756D6528292C202331000000BE
:103C4000226368546864536C6565702228290000FB
:103C50006368546864457869745328292C2023319B
:103C60000000000022636854686457616974222868
:103C70002900000063685468645761697428292C1E
:103C80002023310063685468645761697428292CC3
:103C900020233200000000000000000000000000AF
:103CA0006D61696E0016C01104044C080C101418E4
:103CB0001C2021222324000000000000000000003E
:103CC0002263684D7478496E6974222829000000C7
:103CD0002263684D74784C6F636B5322282900006F
:103CE00063684D74784C6F636B5328292C20233103
:103CF0000000000063684D74784C6F636B53282993
:103D00002C202332000000002263684D7478547226
:103D1000794C6F636B5322282900000063684D744F
:103D200078556E6C6F636B28292C202331000000BE
:103D300063684D7478556E6C6F636B28292C202353
:103D40003200000063684D7478556E6C6F636B537E
:103D500028292C202331000063684D7478556E6C3F
:103D60006F636B5328292C202332000000000000D1
:103D700022636845767452656769737465724D6134
:103D8000736B222829000000226368457674556E03
:103D90007265676973746572222829002263684519
:103DA00076745369676E616C49222829000000000F
:103DB0002263684576745369676E616C2228290016
:103DC00022636845767442726F6164636173744DF7
:103DD00061736B492228290022636845767444691F
:103DE0007370617463682228290000006368457657
:103DF00074446973706174636828292C202331002E
:103E000022636849515265616454696D656F7574C8
:103E1000222829002263684F5157726974655469DA
:103E20006D656F75742228290000000000000000F5
:103E300022693263537461727422282900000000E1
:103E4000693263537461727428292C202331000075
:103E50002269326353746F702228290069326353D8
:103E6000746F7028292C20233100000022693263EE
:103E70004765744572726F72732228290000000032
:103E8000226932634D61737465725472616E736D31
:103E9000697454696D656F757422282900000000EB
:103EA0006932634D61737465725472616E736D69CA
:103EB0007454696D656F757428292C2023310000B6
:103EC000226932634D617374657252656365697608
:103ED0006554696D656F7574222829006932634DD8
:103EE00061737465725265636569766528292C2053
:103EF0002331000022693263416371756972654242
:103F000075732228290000002269326352656C65AE
:103F100061736542757322282900000000000000CB
:103F20002273645374617274222829007364537479
:103F300061727428292C20233100000022736453FD
:103F4000746F702228290000736453746F702829DD
:103F50002C20233100000000227364496E636F6DD2
:103F6000696E674461746149222829002273645292
:103F70006571756573744461746149222829000074
:103F8000C1200008A120000801210008E12000084C
:103F9000F1200008D1200008B1200008912000087D
:103FA00022646D6153747265616D416C6C6F636105
:103FB000746522282900000022646D6153747265C3
:103FC000616D52656C6561736522282900000000EF
:103FD000646D6153747265616D52656C6561736582
:103FE00028292C20233100000000000000000000E0
:103FF000080002400400024000000B001C000240C8
:104000000400024004010C003000024004000240A1
:1040100008020D0044000240040002400C030E00A0
:10402000580002400400024010040F006C000240DF
:104030000400024014051000800002400400024009
:10404000180611000804024004040240000738006A
:104050001C040240040402400408390030040240F9
:104060000404024008093A004404024004040240E7
:104070000C0A3B005804024004040240100B3C00B0
:1040800004020408080003070808080808080808CC
:104090000B0F000000000000000000000000000006
:1040A0006932635F6C6C645F737461727428292C6D
:1040B000202333006932635F6C6C645F73746172D8
:1040C0007428292C20233400226932635F6C6C64CD
:1040D0005F7365745F636C6F636B22282900000057
:1040E0006932635F6C6C645F7365745F636C6F638C
:1040F0006B28292C202331006932635F6C6C645F6C
:104100007365745F636C6F636B28292C2023320006
:104110006932635F6C6C645F7365745F636C6F635B
:104120006B28292C202333006932635F6C6C645F39
:104130007365745F636C6F636B28292C20233400D4
:104140006932635F6C6C645F7365745F636C6F632B
:104150006B28292C202335006932635F6C6C645F07
:104160007365745F636C6F636B28292C20233600A2
:104170006932635F6C6C645F7365745F636C6F63FB
:104180006B28292C20233800226932635F6C6C6411
:104190005F6D61737465725F726563656976655F93
:1041A00074696D656F757422282900002269326375
:1041B0005F6C6C645F6D61737465725F7472616E65
:1041C000736D69745F74696D656F75742228290059
:1041D0000096000000000040000000000000000009
:1041E000FFFFFFFFB48BB7B84B444444FFFFFFFF12
:1041F000884484388388B7B83FFFFFFF8888888861
:10420000888B8844FFFFFFFF8888883888888888E3
:10421000FFFFFFFF888888888888884800000000A2
:10422000286E756C6C290000000000000000000082
:1042300057656C6C2C207468697320697320656DF8
:10424000626172617373696E67203A2728202D209E
:10425000736F6D657468696E672069732077726F1C
:104260006E672077697468206932632E2E2E0D0ADE
:1042700000000000427573206572726F720D0A00B3
:104280004172626974726174696F6E206C6F7374CD
:104290000D0A000041636B6E6F776C656467652083
:1042A0006661696C7572650D0A0000004F76657273
:1042B00072756E2F556E64657272756E0D0A000010
:1042C000504543206572726F7220696E207265637B
:1042D000657074696F6E0D0A0000000048617264B9
:1042E000776172652074696D656F75740D0A0000E1
:1042F000534D42757320616C746572740D0A000031
:104300005754463F0D0A0000446F20796F752068AE
:1043100061766520657665727468696720636F6E83
:104320006E656374656420636F72726563746C7923
:104330003F0D0A0041726520796F752073757265B3
:10434000207468617420796F7520686176656E27C6
:104350007420746865206461746120616E642063F8
:104360006C6F636B2070696E73207365742061736A
:10437000206F7574707574733F203B290D0A00001F
:1043800001000000801A060002000000000000008A
:104390000A0D48656C6C6F20776F726C64210A0D92
:1043A00000000000436F6E66696775726174696F23
:1043B0006E20646F6E650A0D0000000025642058B1
:1043C0002020202020256420592020202020256422
:0843D000205A0A0D0000000054
:0400000508000BE103
:00000001FF
